:100000000C944B010C947C010C947C010C947C01AD
:100010000C947C010C947C010C947C010C947C016C
:100020000C947C010C947C010C947C010C947C015C
:100030000C947C010C947C010C947C010C947C014C
:100040000C947C010C947C010C947C010C947C013C
:100050000C947C010C947C010C947C010C94A909F7
:100060000C947C010C941D0A0C94F3090C947C01F3
:100070000C947C010C947C010C947C010C947C010C
:100080000C947C010C947C010C947C010C947C01FC
:100090000C947C010C947C010C947C010C94530A0C
:1000A0000C947C010C947C010C947C010C947C01DC
:1000B0000C947C010C947C010C947C010C947C01CC
:1000C0000C947C010C947C010C947C010C947C01BC
:1000D0000C947C010C947C010C947C010C947C01AC
:1000E0000C947C010C946A050C94E9010C94630453
:1000F0000C94CC040C9428060C94D1050C942D047B
:100100000C940F020C9419020C94D4010C94F3017A
:100110000C9486040C94DE010C94DA010C94E60134
:100120000C94E2010C94FB050C9472040C94BC0B2F
:100130000C94B5070C94EF010C9436040C9419053B
:100140000C94E1050C94F9010C94FD010C94D2057A
:100150000C94F4050C940B020C9414020C9494046B
:100160000C9407020C942E040C9415020C943E0778
:100170000C94010200002100240027002A002D0019
:100180003000330001010000040107010A010000F2
:100190002200250028002B002E003100340002012F
:1001A0000000050108010B0100000A0B02090C0DFB
:1001B0000E0807030401000000000000000000001A
:1001C000000000000000000000000000000000002F
:1001D00000000000121110000000000000000000EC
:1001E000000000000000000000000000000000000F
:1001F00020002300260029002C002F0032000001DF
:1002000000000301060109010505050507050808A9
:100210000808020202020A0A080804040404010190
:1002200001010101010103030303030303030407A5
:1002300007070C0C0C0C0C0C0C0C0202020206063C
:100240000606060606060B0B0B0B0B0B0B0B01022F
:1002500010202008081020401020408002010201D8
:100260000804020101020408102040808040201090
:1002700008040201800402018040201008040201E9
:100280000804020101020408102040800102040851
:1002900010204080BC0B11241FBECFEFD1E2DEBF87
:1002A000CDBF00E00CBF13E0A0E0B2E0E2E3F7E274
:1002B00000E00BBF02C007900D92A83BB107D9F731
:1002C00025E0A8EBB3E001C01D92A635B207E1F727
:1002D00011E0CBE4D1E000E006C021970109802FB6
:1002E000FE010E948F13CA34D10780E00807A9F7E6
:1002F0000E942B0C0C9497130C940000CF92DF9269
:10030000EF92FF92CF93DF93B0914A05A0E0811165
:10031000AB2F80914B0590E0880F991FAC014251A3
:100320005E4FC0905005D0905105E0905205F0907E
:10033000530530E020E0FA01C591D491E881B9017C
:1003400090E080E0EB23EA130AC02F5F3F4F6C156B
:100350007D058E059F0578F36FEF7FEFCB01DF9171
:10036000CF91FF90EF90DF90CF9008958150823130
:1003700008F05AC0E82FF0E08827EE53FE4F8F4F69
:100380000C948F13E201E601D401DA01DE011402BC
:10039000E901EF01F301F901FD01010207020B027E
:1003A00014020F0215021902809180008F7780934A
:1003B00080000895809180008F7DF9CF809180002A
:1003C000877FF5CF84B58F7784BD089584B58F7D01
:1003D000FBCF8091B0008F778093B000089580911B
:1003E000B0008F7DF9CF809190008F77809390003F
:1003F0000895809190008F7DF9CF80919000877F44
:10040000F5CF8091A0008F778093A0000895809110
:10041000A0008F7DF9CF8091A000877FF5CF8091DC
:1004200020018F77809320010895809120018F7D96
:10043000F9CF80912001877FF5CFCF93DF93282FCD
:1004400030E0F901E855FE4F8491F901E25BFD4F80
:10045000D491F901E85FFD4FC491CC23A1F0811143
:100460000E94B601EC2FF0E0EE0FFF1FE251FE4FAD
:10047000A591B491EC91ED2381E090E009F480E046
:10048000DF91CF91089580E090E0FACF1F93CF9352
:10049000DF93282F30E0F901E855FE4F8491F901F0
:1004A000E25BFD4FD491F901E85FFD4FC491CC238D
:1004B000A9F0162F81110E94B601EC2FF0E0EE0F8B
:1004C000FF1FE257FE4FA591B4918FB7F894EC91BE
:1004D000111108C0D095DE23DC938FBFDF91CF913F
:1004E0001F910895DE2BF8CFCF93DF9390E0FC01AE
:1004F000E25BFD4F2491885F9D4FFC01849188232E
:10050000C9F090E0880F991FFC01EC58FE4FA591AF
:10051000B491FC01E257FE4FC591D49161110DC019
:100520009FB7F8948C91209582238C9388812823FF
:1005300028839FBFDF91CF910895623051F49FB718
:10054000F8943C91822F809583238C93E8812E2B05
:10055000EFCF8FB7F894EC912E2B2C938FBFEACF6F
:1005600090917B00977F90937B008653806480936B
:100570007C0080917A00806480937A0080917A0078
:1005800086FDFCCF809178009091790008953FB767
:10059000F8948091850490918604A0918704B0918D
:1005A000880426B5A89B05C02F3F19F00196A11D10
:1005B000B11D3FBFBA2FA92F982F8827BC01CD01AD
:1005C000620F711D811D911D42E0660F771F881F0C
:1005D000991F4A95D1F708958F929F92AF92BF923B
:1005E000CF92DF92EF92FF924B015C010E94C70213
:1005F0006B017C010E94C7026C197D098E099F095D
:10060000683E734081059105A8F321E0821A9108A4
:10061000A108B10888EEC80E83E0D81EE11CF11CC9
:1006200081149104A104B10429F7FF90EF90DF90A9
:10063000CF90BF90AF909F908F900895CF92DF9210
:10064000EF92FF920F931F93CF93DF93CDB7DEB757
:10065000C054D1400FB6F894DEBF0FBECDBF2FB748
:10066000F8948091890490918A04A0918B04B091B0
:100670008C042FBF40914C0550914D0560914E0563
:1006800070914F058C019D01041B150B260B370B38
:10069000B901A801403D57406105710590F4809172
:1006A0005405C05CDE4F0FB6F894DEBF0FBECDBF61
:1006B000DF91CF911F910F91FF90EF90DF90CF903E
:1006C000089580934C0590934D05A0934E05B093EB
:1006D0004F0510924705109246051092450510925D
:1006E00044051092430562E0809148050E9474021F
:1006F00061E070E080E090E00E94EC0261E08091B7
:1007000048050E94740260E0809148050E944602FC
:10071000809149058551823020F58BE291E1019766
:10072000F1F762E0809148050E94740280915505BE
:1007300090E08230910538F0880F991F880F991F3B
:1007400005970197F1F7F89480E00E947E016F3FD2
:100750007F4F8F4F9F4F61F410925405789480E043
:10076000A0CF64E170E080E090E00E94EC02D9CF7D
:1007700081E00E947E016F3F7F4F8F4F9F4F61F35B
:100780008E010F5F1F4F6E018FEBC81A8EEFD80AD4
:10079000780180E00E947E01F7016083718382838B
:1007A000938381E00E947E01F701648375838683D1
:1007B0009783F8E0EF0EF11CEC14FD0451F77894E8
:1007C00030E020E0F801C080D180E280F3804481F5
:1007D000558166817781FFEFCF16DF06EF06FF06B2
:1007E00031F04F3F8FEF58076807780719F41092E0
:1007F0005405B5CFF90183E0F595E7958A95E1F7C2
:10080000ED5BFA4F8081880FC416D506E606F70621
:1008100010F180832F5F3F4F085F1F4F2832310553
:1008200089F6409147052091430580914405280FA2
:100830003327331F80914505280F311D80914605D0
:10084000820F932F911D99274817190681F681E091
:100850008093540526CF8160DCCF08950895DC0194
:10086000ED91FC910190F081E02D1994AF92BF922F
:10087000CF92DF92EF92FF920F931F93CF93DF936C
:100880006C017B018B01040F151FEB015E01AE189B
:10089000BF08C017D10759F06991D601ED91FC91BD
:1008A0000190F081E02DC6011995892B79F7C501DA
:1008B000DF91CF911F910F91FF90EF90DF90CF903C
:1008C000BF90AF900895FC01538D448D252F30E0EB
:1008D000842F90E0821B930B541710F0CF9608954D
:1008E00001970895FC01918D828D981761F0A28D7A
:1008F000AE0FBF2FB11D5D968C91928D9F5F9F7340
:10090000928F90E008958FEF9FEF0895FC01918DF5
:10091000828D981731F0828DE80FF11D858D90E062
:1009200008958FEF9FEF0895FC01918D228D892FFF
:1009300090E0805C9F4F821B91098F7399270895E7
:100940008DE894E00E94940421E0892B09F420E0D2
:10095000822F0895FC01A48DA80FB92FB11DA35AB1
:10096000BF4F2C91848D90E001968F739927848FCF
:10097000A689B7892C93A089B1898C9183708064F2
:100980008C93938D848D981306C00288F389E02D93
:1009900080818F7D80830895EF92FF920F931F9344
:1009A000CF93DF93EC0181E0888F9B8D8C8D981322
:1009B0001AC0E889F989808185FF15C09FB7F8942E
:1009C000EE89FF896083E889F9898081837080647A
:1009D00080839FBF81E090E0DF91CF911F910F91C5
:1009E000FF90EF900895F62E0B8D10E00F5F1F4FD4
:1009F0000F731127E02E8C8D8E110CC00FB607FCE3
:100A0000FACFE889F989808185FFF5CFCE010E9470
:100A1000AA04F1CFEB8DEC0FFD2FF11DE35AFF4F30
:100A2000F0829FB7F8940B8FEA89FB8980818062FE
:100A3000CFCFCF93DF93EC01888D8823B9F0AA89BB
:100A4000BB89E889F9898C9185FD03C0808186FD89
:100A50000DC00FB607FCF7CF8C9185FFF2CF8081D8
:100A600085FFEDCFCE010E94AA04E9CFDF91CF919F
:100A7000089580E090E0892B29F00E94A004811164
:100A80000E94000080E090E0892B49F080E090E037
:100A9000892B29F00E94000081110E94000080E053
:100AA00090E0892B49F080E090E0892B29F00E94AA
:100AB000000081110E94000080E090E0892B49F045
:100AC00080E090E0892B29F00E94000081110C94B5
:100AD0000000089508952091F903260F3327331F4E
:100AE00021323105ECF420914204FC0190E080E0D9
:100AF000243069F082E00895A091F9032191AC01BE
:100B000047525C4FA40FB52FB11D2C930196861749
:100B100098F38091F903680F6093F90380E00895DA
:100B200081E008951092420481E080934104109284
:100B30001C0461E084E10E94460261E085E10E94BC
:100B40004602E9EBF0E080818E7F808380818D7F9B
:100B5000808388E48093B80085E48093BC00089586
:100B6000CF93DF9391E09093D8038823B9F0C0919D
:100B7000B800D091BA008091BC008A7B8093BC0001
:100B800060E084E10E94460260E085E10E94460246
:100B90000E949205D093BA00C093B800DF91CF9124
:100BA00008950895E091710480917004E81730F47D
:100BB000F0E0E854FC4F808190E008958FEF9FEFC4
:100BC000089590917104809170042FEF3FEF981772
:100BD00048F4E92FF0E0E854FC4F208130E09F5FBB
:100BE00090937104C90108958091700490917104EB
:100BF000891B990B0895CF92DF92EF92FF920F938A
:100C00001F93CF93DF937C01CB018A01209148048D
:100C1000222389F0EB016B01C40ED51ECC15DD0536
:100C200069F06991D701ED91FC910190F081E02D7F
:100C3000C7011995F3CF642F0E946B05C801DF919E
:100C4000CF911F910F91FF90EF90DF90CF9008957B
:100C5000CF93DF931F92CDB7DEB76983209148040D
:100C60002223F9F020916E04203258F021E030E088
:100C7000FC013383228390E080E00F90DF91CF91DD
:100C8000089580916F04E82FF0E0E75BFB4F9981B6
:100C900090838F5F80936F0480936E0481E090E077
:100CA000ECCF61E0CE0101960E946B05F7CFCF92A9
:100CB000DF92EF92FF920F931F93CF93DF93FC018C
:100CC000C48121E020934804C093690410926F040A
:100CD00010926E048485682B8AE295E00E942806B3
:100CE000D0916E04D13208F092C00E94C7026B010D
:100CF0007C0180914204811165C082E080934204AE
:100D000081E0809341048FEF8093400410923F0470
:100D1000D0933E04A9E4B4E0EEE1F4E080E0D8131F
:100D200085C010921D0480911D04CC0FC82BC09368
:100D30001D0480911C04813009F07CC010921C04B9
:100D40000E94C7026B017C0180911D048093BB004F
:100D50008091440490914504A0914604B0914704C9
:100D6000892B8A2B8B2B99F00E94C7020091440497
:100D70001091450420914604309147046C197D0977
:100D80008E099F090617170728073907E0F1809198
:100D9000BC0083FDD9CF85EC8093BC000E94C702C4
:100DA0006B017C0180914204823009F445C080913E
:100DB00040048F3F61F180914004803241F1809185
:100DC000400425C08091440490914504A0914604BC
:100DD000B0914704892B8A2B8B2B09F48ACF0E9470
:100DE000C7020091440410914504209146043091BB
:100DF00047046C197D098E099F09061717072807F4
:100E0000390708F076CF809143040E94B005109214
:100E10006F0410926E0410924804DF91CF911F91DD
:100E20000F91FF90EF90DF90CF9008959D91919357
:100E30008F5F75CF85EEB0CF8091440490914504CB
:100E4000A0914604B0914704892B8A2B8B2B09F47F
:100E5000A9CF0E94C702009144041091450420913B
:100E60004604309147046C197D098E099F090617C5
:100E700017072807390708F095CFC5CF90E080E025
:100E800008950F931F93CF938C01C62F0E9457068E
:100E90006C2F6460C8010E9457066C2F6B7FC801DD
:100EA0000E94570683EC90E00197F1F7CF911F91D4
:100EB0000F9108950F931F93CF93DF938C01D62F3B
:100EC000C42F607F642B0E94410780E1D89FB0014E
:100ED00011246C2BC801DF91CF911F910F910C94BD
:100EE0004107CF93DF9300D000D01F921F92CDB760
:100EF000DEB798E0E0E0F2E0DE01119601900D929D
:100F00009A95E1F790913E05961708F46FEF262F1A
:100F100030E0220F331F41E050E04C0F5D1F240FE3
:100F2000351FF9016081680F606840E086E395E055
:100F300028960FB6F894DEBF0FBECDBFDF91CF91DC
:100F40000C945A0740E061E086E395E00E945A075E
:100F50008BE39FE10197F1F780913F05882321F012
:100F600060E080E00C947107089541E00E945A0708
:100F700081E090E00895FB0101900020E9F73197AE
:100F8000AF01461B570BDC01ED91FC910280F38110
:100F9000E02D19948F929F92AF92BF92EF92FF92A1
:100FA0000F931F93CF93DF93CDB7DEB7A1970FB603
:100FB000F894DEBF0FBECDBF7C01FA01CB0119A2B0
:100FC000223008F42AE08E010F5D1F4F822E912CF3
:100FD000B12CA12CBF01A50194010E946D13F90150
:100FE000CA016A300CF5605DD8016E938D01232B28
:100FF000242B252B79F790E080E0109721F0BD019C
:10100000C7010E94BB07A1960FB6F894DEBF0FBEC2
:10101000CDBFDF91CF911F910F91FF90EF90BF90C7
:10102000AF909F908F900895695CDECFCF92DF9252
:10103000EF92FF920F931F93CF93DF936B01770F84
:10104000EE08FF08F7FE1BC0EC016DE20E942F04C2
:101050008C0144275527BA014C195D096E097F0997
:101060002AE0CE010E94CA07800F911FDF91CF9125
:101070001F910F91FF90EF90DF90CF9008952AE09D
:10108000B701A601DF91CF911F910F91FF90EF90D3
:10109000DF90CF900C94CA072F923F924F925F92AD
:1010A0006F927F928F929F92AF92BF92CF92DF9278
:1010B000EF92FF921F93CF93DF93EC016A017B01C4
:1010C000722EAB019601CB01B6010E94681368E352
:1010D00072E0811126C046015701E894B7F82FEF5E
:1010E0003FEF4FE75FE7C501B4010E94681381112C
:1010F0000CC02FEF3FEF4FE75FE7C501B4010E943F
:1011000097116CE372E0181664F02FEF3FEF4FE792
:101110005FE4C701B6010E94F6121816B4F460E449
:1011200072E0CE01DF91CF911F91FF90EF90DF90A1
:10113000CF90BF90AF909F908F907F906F905F9077
:101140004F903F902F900C94BB072FEF3FEF4FE74E
:101150005FECC701B6010E94971187FDE0CF20E048
:1011600030E0A901C701B6010E949711312C212C52
:1011700087FF09C06DE2CE010E942F041C01F7FA1F
:10118000F094F7F8F09410E060E070E080E09FE306
:10119000711641F020E030E040E251E40E949C11E1
:1011A0001F5FF6CFA70196010E942B112B013C0176
:1011B0000E9415124B015C012AE0BC01A401CE0182
:1011C0000E94CA077C01E20CF31C1123C1F1C50186
:1011D000B4010E9444129B01AC01C301B2010E9400
:1011E0002A114B015C016EE2CE010E942F04E80E31
:1011F000F91E115020F120E030E040E251E4C50139
:10120000B4010E94FB122B013C010E9415124B01FC
:10121000B12CA12C2AE0B501A401CE010E94CA077D
:10122000E80EF91EC501B4010E9444129B01AC01F5
:10123000C301B2010E942A114B015C01DACFC70140
:10124000DF91CF911F91FF90EF90DF90CF90BF90F3
:10125000AF909F908F907F906F905F904F903F9056
:101260002F90089522E00C944C080F931F93CF9376
:10127000DF93EC010E94BB078C0164E472E0CE01B5
:101280000E94BB07800F911FDF91CF911F910F919B
:1012900008950C94BB0785ED8093BC0080914404B5
:1012A00090914504A0914604B09147040796A11D72
:1012B000B11D23E0B695A795979587952A95D1F707
:1012C0002091BC0024FD03C0109242040895409177
:1012D0004404509145046091460470914704452BA5
:1012E000462B472B69F30097A105B10541F02AE28F
:1012F0002A95F1F700C00197A109B109E1CF8091CA
:1013000043040C94B005CF92DF92EF92FF920F93BB
:101310001F93CF93DF93EB017B0124E0E20EF11CDE
:101320008B016C01C61AD70AC601800F911F0E945B
:101330002211F80181938F01EE15FF05A9F7CE0167
:10134000DF91CF911F910F91FF90EF90DF90CF90A1
:1013500008951F920F920FB60F9211242F933F936F
:101360008F939F93AF93BF938091890490918A0448
:10137000A0918B04B0918C043091840423E0230F5E
:101380002D3758F50196A11DB11D2093840480933B
:10139000890490938A04A0938B04B0938C04809169
:1013A000850490918604A0918704B09188040196E9
:1013B000A11DB11D8093850490938604A09387049A
:1013C000B0938804BF91AF919F918F913F912F91DE
:1013D0000F900FBE0F901F90189526E8230F0296CE
:1013E000A11DB11DD2CF1F920F920FB60F921124E3
:1013F0000BB60F922F933F934F935F936F937F930F
:101400008F939F93AF93BF93EF93FF938DE894E0F7
:101410000E94AA04FF91EF91BF91AF919F918F918C
:101420007F916F915F914F913F912F910F900BBEE4
:101430000F900FBE0F901F9018951F920F920FB62E
:101440000F9211240BB60F922F938F939F93EF93CC
:10145000FF93E0919D04F0919E048081E091A304AC
:10146000F091A40482FD1DC090818091A6048F5F3D
:101470008F732091A704821741F0E091A604F0E059
:10148000E357FB4F958F8093A604FF91EF919F91B7
:101490008F912F910F900BBE0F900FBE0F901F904A
:1014A00018958081F2CF1F920F920FB60F921124E0
:1014B0000BB60F922F933F934F935F936F937F934E
:1014C0008F939F93AF93BF93EF93FF938091B90056
:1014D000887F803609F44DC008F040C0883209F496
:1014E000A9C028F5803109F49DC0C8F4882309F407
:1014F000FBC0883009F496C0FF91EF91BF91AF9186
:101500009F918F917F916F915F914F913F912F911B
:101510000F900BBE0F900FBE0F901F901895883143
:1015200009F488C0803241F78093400414C08034AD
:1015300009F49DC040F48033B9F38833E9F6809311
:10154000400485ECB0C0803509F485C0883509F4C5
:1015500096C0883489F60E944B09CECF883909F4A9
:101560008CC038F5883729F050F4883611F0803770
:1015700019F683E08093420410921B0457C0883808
:1015800009F47BC0803919F0803809F0B5CF80911B
:101590001B04803208F071C0E0911B0481E08E0FC3
:1015A00080931B048091BB00F0E0E550FC4F8083EA
:1015B0003DC0803B39F0E0F4803A09F479C0883AC4
:1015C00009F09ACF84E0809342041092FA031092BB
:1015D000F903E0916C04F0916D0419958091F90381
:1015E00081110FC081E08093F9031092D90309C0E3
:1015F000803C09F4A6CF883C09F4A3CF883B09F0CE
:101600007BCFE091FA0381E08E0F8093FA03F0E044
:10161000E752FC4F80818093BB009091FA03809148
:10162000F90329C080911D048093BB0085EC809351
:10163000BC0062CF90913F0480913E04981758F50A
:10164000E0913F0481E08E0F80933F04F0E0E25E82
:10165000FB4F8081E9CFE0913F0481E08E0F8093C2
:101660003F048091BB00F0E0E25EFB4F80839091ED
:101670003F0480913E049817C8F285E8D8CFE091E6
:101680003F0481E08E0F80933F048091BB00F0E027
:10169000E25EFB4F80838091410481115CCF81E049
:1016A00080931C0484EA8093BC001092420424CFEF
:1016B00085EC8093BC001092420480911B04803220
:1016C00030F4E0911B04F0E0E550FC4F1082609193
:1016D0001B0470E0E0916A04F0916B048BEF93E0DF
:1016E000199510921B0408CF1092400434CFCF926A
:1016F000DF92EF92FF920F931F93E82FF92F05C00F
:10170000015011092109310961F190819623941743
:10171000B9F305C0015011092109310911F1908176
:1017200096239413F7CFC12CD12CE12CF12C0AC0B5
:101730008FEFC81AD80AE80AF80A0C151D052E05FD
:101740003F0579F080818623841791F36C2D7D2DE0
:101750008E2D9F2D1F910F91FF90EF90DF90CF90D6
:10176000089560E070E080E090E01F910F91FF909D
:10177000EF90DF90CF900895EDE8F4E013821282AD
:1017800088EE93E0A0E0B0E084839583A683B783DE
:101790002CE032E03183208325EC30E0358724874C
:1017A00024EC30E03787268720EC30E0318B208B2B
:1017B00021EC30E0338B228B22EC30E0358B248B14
:1017C00026EC30E0378B268B118E128E138E148E02
:1017D000EAE2F5E01382128284839583A683B783BD
:1017E0008EE192E09183808386E30E94B00287E3DA
:1017F0000E94B002A3E4B5E08DE015968C93159796
:101800008BE016968C931697EBE5F2E0E491179631
:10181000EC931797E5E1F2E0E4911896EC931897B2
:1018200040E85EE360E070E01D964D935D936D933C
:101830007C935097E6E3F5E01382128280E392E016
:1018400091838083118687E2848380E1828782E0AE
:10185000838714860895CF93DF93CDB7DEB764975F
:101860000FB6F894DEBF0FBECDBF789484B582600A
:1018700084BD84B5816084BD85B5826085BD85B534
:10188000816085BD80916E00816080936E001092B2
:10189000810080918100826080938100809181002D
:1018A00081608093810080918000816080938000BE
:1018B0008091B10084608093B1008091B00081601C
:1018C0008093B0008091910082608093910080911C
:1018D000910081608093910080919000816080935D
:1018E00090008091A10082608093A1008091A1006E
:1018F00081608093A1008091A00081608093A0000E
:101900008091210182608093210180912101816079
:10191000809321018091200181608093200180913A
:101920007A00846080937A0080917A00826080934C
:101930007A0080917A00816080937A0080917A00A9
:10194000806880937A001092C100E0919D04F0912C
:101950009E0482E08083E0919904F0919A041082C1
:10196000E0919B04F0919C048FEC80831092A5047D
:10197000E091A104F091A20486E08083E0919F04AD
:10198000F091A004808180618083E0919F04F091B8
:10199000A004808188608083E0919F04F091A0047E
:1019A000808180688083E0919F04F091A004808111
:1019B0008F7D808362E0809148050E9474022FB77A
:1019C000F8948091890490918A04A0918B04B0913D
:1019D0008C042FBF805D9740A109B10980934C050D
:1019E00090934D05A0934E05B0934F0587E38093E8
:1019F000550561E08CE00E94740260E08BE00E947B
:101A0000740260E087E00E94740260E086E00E9459
:101A1000740260E084E00E94740260E085E00E944D
:101A2000740260E083E00E94740260E082E00E9441
:101A30007402109271041092700410926F0410924C
:101A40006E040E9492058DE294E090936D04809361
:101A50006C048EE294E090936B0480936A0410927D
:101A60003B0580914105823018F098E090933B054A
:101A700080933E0562E370E080E090E00E94EC021B
:101A80006091420586E395E00E94570668EE73E098
:101A900080E090E00E94EC0260E386E395E00E9423
:101AA00041070BE416E4C8010197F1F760E386E310
:101AB00095E00E944107C8010197F1F760E386E3D2
:101AC00095E00E94410783E592E00197F1F760E21B
:101AD00086E395E00E94410760913B05606240E02B
:101AE00086E395E00E945A0784E080933C0540E03D
:101AF0006CE086E395E00E945A070E94A20782E00C
:101B000080933D0540E066E086E395E00E945A0739
:101B100040E062E086E395E00E945A078BE39FE194
:101B20000197F1F788E08093420560E086E395E055
:101B30000E94570667E472E086E395E00E94490937
:101B400060ED77E080E090E00E94EC0223E2A22EBC
:101B5000B12C39E5832E32E0932E43E1642E42E02E
:101B6000742E0E94A20760E08CE00E9446020E9450
:101B70001E03882349F0809149058B3028F08D3071
:101B800040F085518230C0F160E070E080EC9FE76A
:101B90001CC06091440570E090E080E00E94461215
:101BA0002DEC3CEC4CEC5DE30E94FB126B017C01E4
:101BB0006091430570E090E080E00E9446129B0136
:101BC000AC01C701B6010E942B110E940E12709346
:101BD0008304609382040E941E03882341F0809155
:101BE00049058C3009F406C1C8F48B3091F160E0EE
:101BF00070E080EC9FE755C060914305709144050B
:101C000076276727762790E080E00E9444122DEC2B
:101C10003CEC4CEC5DE30E94FB12D7CF8551823047
:101C200030F7F09045056F2D70E0762F6627662718
:101C30007F7780914605682B90E080E00E944412F7
:101C40002DEC3CEC4CEC5DE30E94FB12F7FE29C04E
:101C5000EFC06091450570E090E080E00E94441282
:101C60006B017C011091460517FF0AC0AC019B0176
:101C700060E070E080E89FEB0E942A116B017C011C
:101C80001F70612F70E090E080E00E9446122DEC02
:101C90003CEC4CEC5DE30E94FB12A70196010E9414
:101CA0002B110E940E12709381046093800486E3CE
:101CB0000E94B0027C0187E30E94B0026C0187E0C1
:101CC0000E941D0290937F0480937E0486E00E9410
:101CD0001D0290937D0480937C0484E00E941D0289
:101CE00090937B0480937A0485E00E941D02909378
:101CF00079048093780483E00E941D029093770416
:101D00008093760482E00E941D0261E08CE00E94D4
:101D10004602C5010197F1F760E08CE00E9446029F
:101D2000F4016491F3018491E82FF0E0EE0FFF1FBE
:101D3000E251FE4F8591949100E412E42FE030E0EF
:101D4000462F0E94770B611571058105910529F0D9
:101D50006F5F7F4F8F4F9F4F9F700E9444122AE901
:101D600039E949E652E40E949C1160937204709331
:101D7000730480937404909375046091820470914D
:101D80008304072E000C880B990B0E9446129B01BE
:101D9000AC010E946813811110C0609180047091A1
:101DA0008104072E000C880B990B0E9446129B01A0
:101DB000AC010E9468138823E9F164E572E08DE8C4
:101DC00094E00E94350960E080E00E94710767E6B8
:101DD00072E086E395E00E94350961E080E00E94B0
:101DE000710764E772E086E395E00E9435090E947E
:101DF0003905B7CE10914505612F70E090E080E085
:101E00000E9444126B017C01609146056F7070E086
:101E100090E080E00E9446122DEC3CEC4CEC5DE33F
:101E20000E94FB12A70196010E942B1117FF39CFC8
:101E3000905837CF80917E0490917F04019709F0EC
:101E40005BC062E872E08DE894E00E94490960910D
:101E50008204709183048DE894E00E9416086DE876
:101E600072E08DE894E00E944909609180047091CD
:101E700081048DE894E00E9416086DE972E08DE817
:101E800094E00E94350960E080E00E94710761EAF9
:101E900072E086E395E00E94490960E085E00E94D7
:101EA0007107609182047091830486E395E00E943B
:101EB000160866EA72E086E395E00E94490961E04F
:101EC00080E00E9471076AEA72E086E395E00E9472
:101ED000490961E085E00E9471076091800470917A
:101EE000810486E395E00E9416086FEA72E086E3BB
:101EF00095E00E94490957C080917C0490917D042F
:101F0000019739F564EB72E08DE894E00E9449098D
:101F1000B6018DE894E00E94160864E472E08DE852
:101F200094E00E94BB0760E080E00E94710764ECCF
:101F300072E086E395E00E94490960E084E00E9437
:101F40007107B60186E395E00E94160869EC72E01D
:101F5000CECF80917A0490917B04019789F56DEC46
:101F600072E08DE894E00E944909B7018DE894E0A1
:101F70000E94160864E472E08DE894E00E94BB07BA
:101F800060E080E00E94710763ED72E086E395E017
:101F90000E94490960E085E00E947107B70186E36D
:101FA00095E00E94160868EE73E080E090E00E94E1
:101FB000EC0264E670E080E090E00E94EC0217CF53
:101FC00080917804909179040197A9F568ED72E009
:101FD0008DE894E00E944909409172045091730485
:101FE00060917404709175048DE894E00E94320948
:101FF00064EE72E08DE894E00E94350960E080E0D4
:102000000E94710768EE72E086E395E00E9449093C
:1020100060E085E00E947107409172045091730462
:10202000609174047091750486E395E00E94320912
:1020300064EE72E05CCF8091760490917704019712
:10204000C9F46DEE72E08DE894E00E9449090E94A7
:10205000A20760E080E00E9471076BE073E086E316
:1020600095E00E94490961E080E00E94710761E10A
:1020700073E03DCFBE016F5E7F4F90E080E00E9435
:102080008309BE01635F7F4F84E090E00E94830973
:10209000BE01675F7F4F88E090E00E948309BE0128
:1020A0006B5F7F4F8CE090E00E948309BE016F5F01
:1020B0007F4F80E190E00E9483096EE173E08DE83C
:1020C00094E00E94490949895A896B897C898DE885
:1020D00094E00E94320964EE72E08DE894E00E9480
:1020E000350965E373E08DE894E00E9449094D8568
:1020F0005E856F85788922E08DE894E00E944C0827
:1021000064E472E08DE894E00E94BB076EE473E043
:102110008DE894E00E94490949855A856B857C8544
:1021200022E08DE894E00E944C0864E472E08DE8BF
:1021300094E00E94BB076FE573E08DE894E00E9495
:1021400049094D815E816F8178858DE894E00E9418
:10215000320961EB72E08DE894E00E94350968E78E
:1021600073E08DE894E00E94490949815A816B81AE
:102170007C818DE894E00E9432096DE873E08DE87F
:1021800094E00E9435090E94A20760E080E00E946E
:10219000710760E973E086E395E00E9449094D818B
:1021A0005E816F81788586E395E00E94320967E958
:1021B00073E086E395E00E94490949815A816B8169
:1021C0007C8186E395E00E94320961E080E00E9414
:1021D000710760EA73E086E395E00E944909498946
:1021E0005A896B897C8986E395E00E94320967EA07
:1021F00073E086E395E00E94490961E080E00E9477
:1022000071076DEC72E086E395E00E94490949850B
:102210005A856B857C8586E395E00E9432096DEADC
:1022200073E086E395E00E9449094D855E856F85E0
:10223000788986E395E00E94320960ED77E080E0DE
:1022400090E0B5CEF999FECF92BD81BDF89A99275D
:1022500080B508955058BB27AA270E9442110C94BC
:10226000BC120E94AE1238F00E94B51220F039F470
:102270009F3F19F426F40C94AB120EF4E095E7FBA3
:102280000C94A512E92F0E94CD1258F3BA176207D9
:1022900073078407950720F079F4A6F50C94EF12E4
:1022A0000EF4E0950B2EBA2FA02D0B01B901900171
:1022B0000C01CA01A0011124FF27591B99F0593FB5
:1022C00050F4503E68F11A16F040A22F232F342FFD
:1022D0004427585FF3CF469537952795A795F0404B
:1022E0005395C9F77EF41F16BA0B620B730B840B60
:1022F000BAF09150A1F0FF0FBB1F661F771F881F18
:10230000C2F70EC0BA0F621F731F841F48F487956F
:1023100077956795B795F7959E3F08F0B0CF939561
:10232000880F08F09927EE0F9795879508950E94DA
:10233000811208F481E008950E94B0110C94BC123F
:102340000E94B51258F00E94AE1240F029F45F3F8F
:1023500029F00C94A51251110C94F0120C94AB12AC
:102360000E94CD1268F39923B1F3552391F3951B85
:10237000550BBB27AA2762177307840738F09F5FA6
:102380005F4F220F331F441FAA1FA9F335D00E2E13
:102390003AF0E0E832D091505040E695001CCAF780
:1023A0002BD0FE2F29D0660F771F881FBB1F261743
:1023B00037074807AB07B0E809F0BB0B802DBF011A
:1023C000FF2793585F4F3AF09E3F510578F00C94E9
:1023D000A5120C94F0125F3FE4F3983ED4F3869577
:1023E00077956795B795F7959F5FC9F7880F911D0A
:1023F0009695879597F90895E1E0660F771F881FF6
:10240000BB1F621773078407BA0720F0621B730BA8
:10241000840BBA0BEE1F88F7E09508950E94151201
:102420006894B1110C94F01208950E94D51288F0AE
:102430009F5798F0B92F9927B751B0F0E1F0660F88
:10244000771F881F991F1AF0BA95C9F714C0B130C9
:1024500091F00E94EF12B1E008950C94EF12672FF3
:10246000782F8827B85F39F0B93FCCF386957795F8
:102470006795B395D9F73EF49095809570956195E1
:102480007F4F8F4F9F4F0895E89409C097FB3EF40C
:1024900090958095709561957F4F8F4F9F4F9923B1
:1024A000A9F0F92F96E9BB279395F695879577952F
:1024B0006795B795F111F8CFFAF4BB0F11F460FFEF
:1024C0001BC06F5F7F4F8F4F9F4F16C0882311F047
:1024D00096E911C0772321F09EE8872F762F05C05B
:1024E000662371F096E8862F70E060E02AF09A95F6
:1024F000660F771F881FDAF7880F9695879597F9EB
:102500000895990F0008550FAA0BE0E8FEEF161684
:102510001706E807F907C0F012161306E407F507D7
:1025200098F0621B730B840B950B39F40A2661F04B
:10253000232B242B252B21F408950A2609F4A140EE
:10254000A6958FEF811D811D089597F99F6780E8FB
:1025500070E060E008959FEF80EC089500240A94F5
:102560001616170618060906089500240A9412166E
:102570001306140605060895092E0394000C11F4A1
:10258000882352F0BB0F40F4BF2B11F460FF04C04E
:102590006F5F7F4F8F4F9F4F089557FD9058440FA7
:1025A000551F59F05F3F71F04795880F97FB991FB2
:1025B00061F09F3F79F0879508951216130614066F
:1025C000551FF2CF4695F1DF08C0161617061806FC
:1025D000991FF1CF86957105610508940895E894D7
:1025E000BB2766277727CB0197F908950E948112B0
:1025F00008F48FEF08950E940E130C94BC120E94F1
:10260000AE1238F00E94B51220F0952311F00C9410
:10261000A5120C94AB1211240C94F0120E94CD124E
:1026200070F3959FC1F3950F50E0551F629FF00125
:10263000729FBB27F00DB11D639FAA27F00DB11D3E
:10264000AA1F649F6627B00DA11D661F829F2227C7
:10265000B00DA11D621F739FB00DA11D621F839F4E
:10266000A00D611D221F749F3327A00D611D231F24
:10267000849F600D211D822F762F6A2F11249F5772
:1026800050409AF0F1F088234AF0EE0FFF1FBB1F75
:10269000661F771F881F91505040A9F79E3F510534
:1026A00080F00C94A5120C94F0125F3FE4F3983E76
:1026B000D4F3869577956795B795F795E7959F5FDE
:1026C000C1F7FE2B880F911D9695879597F9089570
:1026D0000E948112880B990B0895A1E21A2EAA1B61
:1026E000BB1BFD010DC0AA1FBB1FEE1FFF1FA217C2
:1026F000B307E407F50720F0A21BB30BE40BF50BBF
:10270000661F771F881F991F1A9469F76095709547
:10271000809590959B01AC01BD01CF010895EE0F0E
:10272000FF1F881F8BBF0790F691E02D1994F89436
:02273000FFCFD9
:10273200000040001400540000000000CC043604E5
:10274200630419059404720486040000000028063C
:10275200FB053E07D105F405E105D20500000000A6
:10276200B50736043E076A056E616E00696E660043
:102772006F7666000D0A004143453220475255509C
:102782004F2037004572726F7220656E20656C2093
:1027920073656E736F720053656E736F72204D5165
:1027A200313335006E6F20656E636F6E74726164D3
:1027B2006F002048756D656461643A2000252054DD
:1027C200656D70657261747572613A2000204320F4
:1027D2000048554D3A002025200054454D3A00C28C
:1027E200B0204300204C756D696E6F73696461643B
:1027F200203D20004C554D3A006C756D00434F3220
:102802003A2000434F323A0044697374616E63693F
:10281200613A200020636D004449533A00446174D8
:102822006F7320616C6D6163656E61646F732065A7
:102832006E206D656D6F7269612E004461746F73F5
:1028420000616C6D6163656E61646F732E00446933
:102852007374616E63696120616C6D6163656E6141
:1028620064613A20004C756D696E6F7369646164CE
:1028720020616C6D6163656E6164613A2000434F53
:102882003220616C6D6163656E6164613A2000544F
:10289200656D706572617475726120616C6D6163E2
:1028A200656E6164613A200048756D6564616420FB
:1028B200616C6D6163656E6164613A200020250080
:1028C20054656D703A200043202048756D3A20000F
:1028D200446973743A2000636D2020200070706D8B
:0828E20020204C757A3A200019
:00000001FF
