:020000040000FA
:100000000C944B010C947C010C947C010C947C01AD
:100010000C947C010C947C010C947C010C947C016C
:100020000C947C010C947C010C947C010C947C015C
:100030000C947C010C947C010C947C010C947C014C
:100040000C947C010C947C010C947C010C947C013C
:100050000C947C010C947C010C947C010C949E0902
:100060000C947C010C94120A0C94E8090C947C0109
:100070000C947C010C947C010C947C010C947C010C
:100080000C947C010C947C010C947C010C947C01FC
:100090000C947C010C947C010C947C010C94480A17
:1000A0000C947C010C947C010C947C010C947C01DC
:1000B0000C947C010C947C010C947C010C947C01CC
:1000C0000C947C010C947C010C947C010C947C01BC
:1000D0000C947C010C947C010C947C010C947C01AC
:1000E0000C947C010C94E9010C942D040C940F02E7
:1000F0000C9419020C94D4010C94C5040C94F301D3
:100100000C94DE010C94DA010C94E6010C94E201EB
:100110000C94AE070C946B040C9412050C94B10B68
:100120000C94EF010C942F040C94CB050C946305F4
:100130000C947F040C945C040C948D040C94CA05FC
:100140000C94F9010C94FD010C94DA050C9437071A
:100150000C94F4050C940B020C9414020C940702FA
:100160000C942E040C9421060C9415020C94ED05AD
:100170000C94010200002100240027002A002D0019
:100180003000330001010000040107010A010000F2
:100190002200250028002B002E003100340002012F
:1001A0000000050108010B0100000A0B02090C0DFB
:1001B0000E0807030401000000000000000000001A
:1001C000000000000000000000000000000000002F
:1001D00000000000121110000000000000000000EC
:1001E000000000000000000000000000000000000F
:1001F00020002300260029002C002F0032000001DF
:1002000000000301060109010505050507050808A9
:100210000808020202020A0A080804040404010190
:1002200001010101010103030303030303030407A5
:1002300007070C0C0C0C0C0C0C0C0202020206063C
:100240000606060606060B0B0B0B0B0B0B0B01022F
:1002500010202008081020401020408002010201D8
:100260000804020101020408102040808040201090
:1002700008040201800402018040201008040201E9
:100280000804020101020408102040800102040851
:1002900010204080B10B11241FBECFEFD1E2DEBF92
:1002A000CDBF00E00CBF13E0A0E0B2E0EEE6F7E265
:1002B00000E00BBF02C007900D92AA38B107D9F732
:1002C00025E0AAE8B3E001C01D92A033B207E1F730
:1002D00011E0CBE4D1E000E006C021970109802FB6
:1002E000FE010E94AD13CA34D10780E00807A9F7C8
:1002F0000E94200C0C94B5130C940000CF92DF9256
:10030000EF92FF92CF93DF93B0912405A0E081118B
:10031000AB2F8091250590E0880F991FAC014251C9
:100320005E4FC0902A05D0902B05E0902C05F090F0
:100330002D0530E020E0FA01C591D491E881B901A2
:1003400090E080E0EB23EA130AC02F5F3F4F6C156B
:100350007D058E059F0578F36FEF7FEFCB01DF9171
:10036000CF91FF90EF90DF90CF9008958150823130
:1003700008F05AC0E82FF0E08827EE53FE4F8F4F69
:100380000C94AD13E201E601D401DA01DE0114029E
:10039000E901EF01F301F901FD01010207020B027E
:1003A00014020F0215021902809180008F7780934A
:1003B00080000895809180008F7DF9CF809180002A
:1003C000877FF5CF84B58F7784BD089584B58F7D01
:1003D000FBCF8091B0008F778093B000089580911B
:1003E000B0008F7DF9CF809190008F77809390003F
:1003F0000895809190008F7DF9CF80919000877F44
:10040000F5CF8091A0008F778093A0000895809110
:10041000A0008F7DF9CF8091A000877FF5CF8091DC
:1004200020018F77809320010895809120018F7D96
:10043000F9CF80912001877FF5CFCF93DF93282FCD
:1004400030E0F901E855FE4F8491F901E25BFD4F80
:10045000D491F901E85FFD4FC491CC23A1F0811143
:100460000E94B601EC2FF0E0EE0FFF1FE251FE4FAD
:10047000A591B491EC91ED2381E090E009F480E046
:10048000DF91CF91089580E090E0FACF1F93CF9352
:10049000DF93282F30E0F901E855FE4F8491F901F0
:1004A000E25BFD4FD491F901E85FFD4FC491CC238D
:1004B000A9F0162F81110E94B601EC2FF0E0EE0F8B
:1004C000FF1FE257FE4FA591B4918FB7F894EC91BE
:1004D000111108C0D095DE23DC938FBFDF91CF913F
:1004E0001F910895DE2BF8CFCF93DF9390E0FC01AE
:1004F000E25BFD4F2491885F9D4FFC01849188232E
:10050000C9F090E0880F991FFC01EC58FE4FA591AF
:10051000B491FC01E257FE4FC591D49161110DC019
:100520009FB7F8948C91209582238C9388812823FF
:1005300028839FBFDF91CF910895623051F49FB718
:10054000F8943C91822F809583238C93E8812E2B05
:10055000EFCF8FB7F894EC912E2B2C938FBFEACF6F
:1005600090917B00977F90937B008653806480936B
:100570007C0080917A00806480937A0080917A0078
:1005800086FDFCCF809178009091790008953FB767
:10059000F89480915F0490916004A0916104B091FF
:1005A000620426B5A89B05C02F3F19F00196A11D36
:1005B000B11D3FBFBA2FA92F982F8827BC01CD01AD
:1005C000620F711D811D911D42E0660F771F881F0C
:1005D000991F4A95D1F708958F929F92AF92BF923B
:1005E000CF92DF92EF92FF924B015C010E94C70213
:1005F0006B017C010E94C7026C197D098E099F095D
:10060000683E734081059105A8F321E0821A9108A4
:10061000A108B10888EEC80E83E0D81EE11CF11CC9
:1006200081149104A104B10429F7FF90EF90DF90A9
:10063000CF90BF90AF909F908F900895CF92DF9210
:10064000EF92FF920F931F93CF93DF93CDB7DEB757
:10065000C054D1400FB6F894DEBF0FBECDBF2FB748
:10066000F8948091630490916404A0916504B09122
:1006700066042FBF409126055091270560912805FB
:10068000709129058C019D01041B150B260B370B5E
:10069000B901A801403D57406105710590F4809172
:1006A0002E05C05CDE4F0FB6F894DEBF0FBECDBF87
:1006B000DF91CF911F910F91FF90EF90DF90CF903E
:1006C00008958093260590932705A0932805B0935D
:1006D0002905109221051092200510921F051092F5
:1006E0001E0510921D0562E0809122050E94740291
:1006F00061E070E080E090E00E94EC0261E08091B7
:1007000022050E94740260E0809122050E94460248
:10071000809123058551823020F58BE291E101978C
:10072000F1F762E0809122050E94740280912F050A
:1007300090E08230910538F0880F991F880F991F3B
:1007400005970197F1F7F89480E00E947E016F3FD2
:100750007F4F8F4F9F4F61F410922E05789480E069
:10076000A0CF64E170E080E090E00E94EC02D9CF7D
:1007700081E00E947E016F3F7F4F8F4F9F4F61F35B
:100780008E010F5F1F4F6E018FEBC81A8EEFD80AD4
:10079000780180E00E947E01F7016083718382838B
:1007A000938381E00E947E01F701648375838683D1
:1007B0009783F8E0EF0EF11CEC14FD0451F77894E8
:1007C00030E020E0F801C080D180E280F3804481F5
:1007D000558166817781FFEFCF16DF06EF06FF06B2
:1007E00031F04F3F8FEF58076807780719F41092E0
:1007F0002E05B5CFF90183E0F595E7958A95E1F7E8
:10080000E35EFA4F8081880FC416D506E606F70628
:1008100010F180832F5F3F4F085F1F4F2832310553
:1008200089F64091210520911D0580911E05280F14
:100830003327331F80911F05280F311D809120051C
:10084000820F932F911D99274817190681F681E091
:1008500080932E0526CF8160DCCF08950895AF9256
:10086000BF92CF92DF92EF92FF920F931F93CF939D
:10087000DF936C017B018B01040F151FEB015E01FF
:10088000AE18BF08C017D10759F06991D601ED9194
:10089000FC910190F081E02DC6011995892B79F723
:1008A000C501DF91CF911F910F91FF90EF90DF90E5
:1008B000CF90BF90AF900895FC01538D448D252FAC
:1008C00030E0842F90E0821B930B541710F0CF96EA
:1008D000089501970895FC01918D828D981761F01C
:1008E000A28DAE0FBF2FB11D5D968C91928D9F5F33
:1008F0009F73928F90E008958FEF9FEF0895FC0112
:10090000918D828D981731F0828DE80FF11D858DC4
:1009100090E008958FEF9FEF0895FC01918D228D57
:10092000892F90E0805C9F4F821B91098F739927DC
:10093000089587E694E00E948D0421E0892B09F454
:1009400020E0822F0895FC01A48DA80FB92FB11DBE
:10095000A35ABF4F2C91848D90E001968F739927F5
:10096000848FA689B7892C93A089B1898C918370D3
:1009700080648C93938D848D981306C00288F389CC
:10098000E02D80818F7D80830895EF92FF920F93F9
:100990001F93CF93DF93EC0181E0888F9B8D8C8D2B
:1009A00098131AC0E889F989808185FF15C09FB71F
:1009B000F894EE89FF896083E889F98980818370E2
:1009C000806480839FBF81E090E0DF91CF911F9191
:1009D0000F91FF90EF900895F62E0B8D10E00F5FB2
:1009E0001F4F0F731127E02E8C8D8E110CC00FB688
:1009F00007FCFACFE889F989808185FFF5CFCE0120
:100A00000E94A304F1CFEB8DEC0FFD2FF11DE35AF3
:100A1000FF4FF0829FB7F8940B8FEA89FB898081A2
:100A20008062CFCFCF93DF93EC01888D8823B9F01C
:100A3000AA89BB89E889F9898C9185FD03C08081E9
:100A400086FD0DC00FB607FCF7CF8C9185FFF2CF66
:100A5000808185FFEDCFCE010E94A304E9CFDF9115
:100A6000CF91089580E090E0892B29F00E949904AD
:100A700081110E94000080E090E0892B49F080E025
:100A800090E0892B29F00E94000081110E94000053
:100A900080E090E0892B49F080E090E0892B29F0FC
:100AA0000E94000081110E94000080E090E0892BEC
:100AB00049F080E090E0892B29F00E94000081112C
:100AC0000C940000089508952091CB03260F33273E
:100AD000331F21323105ECF420911404FC0190E025
:100AE00080E0243069F082E00895A091CB03219149
:100AF000AC0145555C4FA40FB52FB11D2C93019649
:100B0000861798F38091CB03680F6093CB0380E046
:100B1000089581E008951092140481E080931304F5
:100B20001092EE0361E084E10E94460261E085E1FB
:100B30000E944602E9EBF0E080818E7F8083808115
:100B40008D7F808388E48093B80085E48093BC0027
:100B50000895CF93DF9391E09093AA038823B9F08F
:100B6000C091B800D091BA008091BC008A7B80937C
:100B7000BC0060E084E10E94460260E085E10E94E2
:100B800046020E948B05D093BA00C093B800DF9153
:100B9000CF9108950895E091430480914204E817AD
:100BA00030F4F0E0E657FC4F808190E008958FEF3D
:100BB0009FEF089590914304809142042FEF3FEFFF
:100BC000981748F4E92FF0E0E657FC4F208130E019
:100BD0009F5F90934304C9010895809142049091CE
:100BE0004304891B990B0895CF92DF92EF92FF92F5
:100BF0000F931F93CF93DF937C01CB018A01209148
:100C00001A04222389F0EB016B01C40ED51ECC150A
:100C1000DD0569F06991D701ED91FC910190F081BA
:100C2000E02DC7011995F3CF642F0E946405C80118
:100C3000DF91CF911F910F91FF90EF90DF90CF90B8
:100C40000895CF93DF931F92CDB7DEB769832091CC
:100C50001A042223F9F020914004203258F021E0B8
:100C600030E0FC013383228390E080E00F90DF913D
:100C7000CF91089580914104E82FF0E0E55EFB4FAD
:100C8000998190838F5F809341048093400481E039
:100C900090E0ECCF61E0CE0101960E946405F7CFB1
:100CA000CF92DF92EF92FF920F931F93CF93DF9338
:100CB000FC01C48121E020931A04C0933B041092EC
:100CC0004104109240048485682B84E095E00E94E2
:100CD0002106D0914004D13208F092C00E94C70290
:100CE0006B017C0180911404811165C082E08093C6
:100CF000140481E0809313048FEF80931204109208
:100D00001104D0931004ABE1B4E0E0EFF3E080E035
:100D1000D81385C01092EF038091EF03CC0FC82B3E
:100D2000C093EF038091EE03813009F07CC01092F4
:100D3000EE030E94C7026B017C018091EF03809358
:100D4000BB008091160490911704A0911804B091F3
:100D50001904892B8A2B8B2B99F00E94C7020091D2
:100D600016041091170420911804309119046C197D
:100D70007D098E099F090617170728073907E0F133
:100D80008091BC0083FDD9CF85EC8093BC000E948C
:100D9000C7026B017C0180911404823009F445C0C4
:100DA000809112048F3F61F180911204803241F1F1
:100DB0008091120425C08091160490911704A0918F
:100DC0001804B0911904892B8A2B8B2B09F48ACF34
:100DD0000E94C70200911604109117042091180474
:100DE000309119046C197D098E099F0906171707A0
:100DF0002807390708F076CF809115040E94A905CD
:100E0000109241041092400410921A04DF91CF9185
:100E10001F910F91FF90EF90DF90CF9008959D91DB
:100E200091938F5F75CF85EEB0CF8091160490912E
:100E30001704A0911804B0911904892B8A2B8B2BCD
:100E400009F4A9CF0E94C70200911604109117045B
:100E500020911804309119046C197D098E099F099D
:100E6000061717072807390708F095CFC5CF90E078
:100E700080E008950F931F93CF938C01C62F0E949B
:100E800050066C2F6460C8010E9450066C2F6B7F67
:100E9000C8010E94500683EC90E00197F1F7CF91D2
:100EA0001F910F9108950F931F93CF93DF938C01A0
:100EB000D62FC42F607F642B0E943A0780E1D89F11
:100EC000B00111246C2BC801DF91CF911F910F91BC
:100ED0000C943A07CF93DF9300D000D01F921F925B
:100EE000CDB7DEB798E0E0E0F2E0DE0111960190C8
:100EF0000D929A95E1F790911805961708F46FEF07
:100F0000262F30E0220F331F41E050E04C0F5D1FD1
:100F1000240F351FF9016081680F606840E080E1AF
:100F200095E028960FB6F894DEBF0FBECDBFDF91D7
:100F3000CF910C94530740E061E080E195E00E947E
:100F400053078BE39FE10197F1F7809119058823FF
:100F500021F060E080E00C946A07089541E00E946F
:100F6000530781E090E00895FB0101900020E9F72C
:100F70003197AF01461B570BDC01ED91FC910280CC
:100F8000F381E02D19948F929F92AF92BF92EF92CE
:100F9000FF920F931F93CF93DF93CDB7DEB7A19747
:100FA0000FB6F894DEBF0FBECDBF7C01FA01CB01B6
:100FB00019A2223008F42AE08E010F5D1F4F822E05
:100FC000912CB12CA12CBF01A50194010E948B137F
:100FD000F901CA016A300CF5605DD8016E938D018C
:100FE000232B242B252B79F790E080E0109721F01C
:100FF000BD01C7010E94B407A1960FB6F894DEBFE9
:101000000FBECDBFDF91CF911F910F91FF90EF9059
:10101000BF90AF909F908F900895695CDECFCF9284
:10102000DF92EF92FF926C01990FEE08FF08F7FE36
:1010300018C041E06DE280E195E00E94530744272B
:101040005527BA014C195D096E097F092AE080E134
:1010500095E00E94C3070196FF90EF90DF90CF903C
:1010600008952AE0B701A60180E195E0FF90EF9096
:10107000DF90CF900C94C3072F923F924F925F92D4
:101080006F927F928F929F92AF92BF92CF92DF9298
:10109000EF92FF921F93CF93DF93EC016A017B01E4
:1010A000722EAB019601CB01B6010E94861368E354
:1010B00072E0811126C046015701E894B7F82FEF7E
:1010C0003FEF4FE75FE7C501B4010E94861381112E
:1010D0000CC02FEF3FEF4FE75FE7C501B4010E945F
:1010E000B5116CE372E0181664F02FEF3FEF4FE795
:1010F0005FE4C701B6010E9414131816B4F460E44B
:1011000072E0CE01DF91CF911F91FF90EF90DF90C1
:10111000CF90BF90AF909F908F907F906F905F9097
:101120004F903F902F900C94B4072FEF3FEF4FE775
:101130005FECC701B6010E94B51187FDE0CF20E04A
:1011400030E0A901C701B6010E94B511312C212C54
:1011500087FF0DC0E881F9810190F081E02D6DE2FB
:10116000CE0119951C01F7FAF094F7F8F09410E00D
:1011700060E070E080E09FE3711641F020E030E035
:1011800040E251E40E94BA111F5FF6CFA701960119
:101190000E9449112B013C010E9433124B015C015A
:1011A0002AE0BC01A401CE010E94C3077C01E20C2D
:1011B000F31C1123E1F1C501B4010E9462129B01ED
:1011C000AC01C301B2010E9448114B015C01E881EE
:1011D000F9810190F081E02D6EE2CE011995E80EC3
:1011E000F91E115020F120E030E040E251E4C50149
:1011F000B4010E9419132B013C010E9433124B01D0
:10120000B12CA12C2AE0B501A401CE010E94C30794
:10121000E80EF91EC501B4010E9462129B01AC01E7
:10122000C301B2010E9448114B015C01DACFC70132
:10123000DF91CF911F91FF90EF90DF90CF90BF9003
:10124000AF909F908F907F906F905F904F903F9066
:101250002F9008950F931F93CF93DF93EC010E947B
:10126000B4078C0164E472E0CE010E94B407800FE1
:10127000911FDF91CF911F910F9108950C94B407A6
:1012800085ED8093BC008091160490911704A09185
:101290001804B09119040796A11DB11D23E0B6955D
:1012A000A795979587952A95D1F72091BC0024FDA5
:1012B00003C010921404089540911604509117042D
:1012C0006091180470911904452B462B472B69F344
:1012D0000097A105B10541F02AE22A95F1F700C077
:1012E0000197A109B109E1CF809115040C94A905DA
:1012F000CF92DF92EF92FF920F931F93CF93DF93E2
:10130000EB017B0124E0E20EF11C8B016C01C61A9B
:10131000D70AC601800F911F0E944011F8018193E6
:101320008F01EE15FF05A9F7CE01DF91CF911F9137
:101330000F91FF90EF90DF90CF9008951F920F9242
:101340000FB60F9211242F933F938F939F93AF93D8
:10135000BF938091630490916404A0916504B0915F
:10136000660430915E0423E0230F2D3758F5019673
:10137000A11DB11D20935E048093630490936404C7
:10138000A0936504B093660480915F04909160041B
:10139000A0916104B09162040196A11DB11D8093DA
:1013A0005F0490936004A0936104B0936204BF91C2
:1013B000AF919F918F913F912F910F900FBE0F9002
:1013C0001F90189526E8230F0296A11DB11DD2CFBC
:1013D0001F920F920FB60F9211240BB60F922F93FC
:1013E0003F934F935F936F937F938F939F93AF93AD
:1013F000BF93EF93FF9387E694E00E94A304FF91CD
:10140000EF91BF91AF919F918F917F916F915F917C
:101410004F913F912F910F900BBE0F900FBE0F90E9
:101420001F9018951F920F920FB60F9211240BB6B2
:101430000F922F938F939F93EF93FF93E0917704F5
:10144000F09178048081E0917D04F0917E0482FD2A
:101450001DC09081809180048F5F8F7320918104E3
:10146000821741F0E0918004F0E0E959FB4F958F3D
:1014700080938004FF91EF919F918F912F910F9016
:101480000BBE0F900FBE0F901F9018958081F2CF6A
:101490001F920F920FB60F9211240BB60F922F933B
:1014A0003F934F935F936F937F938F939F93AF93EC
:1014B000BF93EF93FF938091B900887F803609F442
:1014C0004DC008F040C0883209F4A9C028F5803129
:1014D00009F49DC0C8F4882309F4FBC0883009F4DE
:1014E00096C0FF91EF91BF91AF919F918F917F91A6
:1014F0006F915F914F913F912F910F900BBE0F9085
:101500000FBE0F901F901895883109F488C0803263
:1015100041F78093120414C0803409F49DC040F454
:101520008033B9F38833E9F68093120485ECB0C0B8
:10153000803509F485C0883509F496C0883489F669
:101540000E944009CECF883909F48CC038F588371D
:1015500029F050F4883611F0803719F683E0809333
:1015600014041092ED0357C0883809F47BC0803909
:1015700019F0803809F0B5CF8091ED03803208F082
:1015800071C0E091ED0381E08E0F8093ED038091B7
:10159000BB00F0E0E353FC4F80833DC0803B39F05B
:1015A000E0F4803A09F479C0883A09F09ACF84E0EF
:1015B000809314041092CC031092CB03E0913E046C
:1015C000F0913F0419958091CB0381110FC081E008
:1015D0008093CB031092AB0309C0803C09F4A6CFE3
:1015E000883C09F4A3CF883B09F07BCFE091CC0382
:1015F00081E08E0F8093CC03F0E0E555FC4F8081B5
:101600008093BB009091CC038091CB0329C0809143
:10161000EF038093BB0085EC8093BC0062CF909178
:10162000110480911004981758F5E091110481E09D
:101630008E0F80931104F0E0E051FC4F8081E9CFE0
:10164000E091110481E08E0F809311048091BB0022
:10165000F0E0E051FC4F80839091110480911004E0
:101660009817C8F285E8D8CFE091110481E08E0F79
:10167000809311048091BB00F0E0E051FC4F808327
:101680008091130481115CCF81E08093EE0384EAA2
:101690008093BC001092140424CF85EC8093BC008E
:1016A000109214048091ED03803230F4E091ED0348
:1016B000F0E0E353FC4F10826091ED0370E0E091A5
:1016C0003C04F0913D048DEC93E019951092ED03EC
:1016D00008CF1092120434CFCF92DF92EF92FF9294
:1016E0000F931F93E82FF92F05C00150110921090D
:1016F000310961F1908196239417B9F305C0015027
:1017000011092109310911F1908196239413F7CF22
:10171000C12CD12CE12CF12C0AC08FEFC81AD80AA9
:10172000E80AF80A0C151D052E053F0579F08081A1
:101730008623841791F36C2D7D2D8E2D9F2D1F9167
:101740000F91FF90EF90DF90CF90089560E070E0F0
:1017500080E090E01F910F91FF90EF90DF90CF908D
:101760000895E7E6F4E01382128288EE93E0A0E0A9
:10177000B0E084839583A683B7832CE032E0318385
:10178000208325EC30E03587248724EC30E0378750
:10179000268720EC30E0318B208B21EC30E0338B3E
:1017A000228B22EC30E0358B248B26EC30E0378B1B
:1017B000268B118E128E138E148EE4E0F5E01382C8
:1017C000128284839583A683B7838EE192E091830E
:1017D000808386E30E94B00287E30E94B002ADE1FD
:1017E000B5E08DE015968C9315978BE016968C934B
:1017F0001697EBE5F2E0E4911796EC931797E5E185
:10180000F2E0E4911896EC93189740E85EE360E00C
:1018100070E01D964D935D936D937C935097E0E13E
:10182000F5E01382128280E392E091838083118637
:1018300087E2848380E1828782E08387148608952B
:10184000CF93DF93CDB7DEB764970FB6F894DEBFC2
:101850000FBECDBF789484B5826084BD84B58160AD
:1018600084BD85B5826085BD85B5816085BD80916B
:101870006E00816080936E001092810080918100E3
:1018800082608093810080918100816080938100DB
:10189000809180008160809380008091B10084609D
:1018A0008093B1008091B00081608093B0008091FE
:1018B000910082608093910080919100816080937B
:1018C0009100809190008160809390008091A100B0
:1018D00082608093A1008091A10081608093A1002B
:1018E0008091A00081608093A0008091210182609E
:1018F0008093210180912101816080932101809159
:10190000200181608093200180917A00846080931F
:101910007A0080917A00826080937A0080917A00C8
:10192000816080937A0080917A00806880937A0049
:101930001092C100E0917704F091780482E08083F6
:10194000E0917304F09174041082E0917504F091B9
:1019500076048FEC808310927F04E0917B04F091F9
:101960007C0486E08083E0917904F0917A048081A0
:1019700080618083E0917904F0917A0480818860AD
:101980008083E0917904F0917A048081806880837B
:10199000E0917904F0917A0480818F7D808362E008
:1019A000809122050E9474022FB7F89480916304FD
:1019B00090916404A0916504B09166042FBF805D8E
:1019C0009740A109B1098093260590932705A0931C
:1019D0002805B093290587E380932F0561E08CE00B
:1019E0000E94740260E08BE00E94740260E087E075
:1019F0000E94740260E086E00E94740260E084E06D
:101A00000E94740260E085E00E94740260E083E05E
:101A10000E94740260E082E00E947402109243040B
:101A20001092420410924104109240040E948B05CF
:101A30008DE294E090933F0480933E048EE294E024
:101A400090933D0480933C041092150580911B05F2
:101A5000823018F098E0909315058093180562E3A2
:101A600070E080E090E00E94EC0260911C0580E153
:101A700095E00E94500668EE73E080E090E00E94DE
:101A8000EC0260E380E195E00E943A070BE416E483
:101A9000C8010197F1F760E380E195E00E943A0701
:101AA000C8010197F1F760E380E195E00E943A07F1
:101AB00083E592E00197F1F760E280E195E00E9412
:101AC0003A0760911505606240E080E195E00E9470
:101AD000530784E08093160540E06CE080E195E0D8
:101AE0000E9453070E949B0782E08093170540E005
:101AF00066E080E195E00E94530740E062E080E10B
:101B000095E00E9453078BE39FE10197F1F788E08E
:101B100080931C0560E080E195E00E94500667E438
:101B200072E080E195E00E943E0960ED77E080E0A0
:101B300090E00E94EC0223E2E22EF12C39E5C32E64
:101B400032E0D32E43E1A42E42E0B42E0E949B0744
:101B500064E572E080E195E00E943E0960E08CE07F
:101B60000E9446020E941E03882349F080912305AB
:101B70008B3028F08D3040F085518230C0F160E02C
:101B800070E080EC9FE71CC060911E0570E090E063
:101B900080E00E9464122DEC3CEC4CEC5DE30E9472
:101BA00019132B013C0160911D0570E090E080E06D
:101BB0000E9464129B01AC01C301B2010E94491151
:101BC0000E942C1270935D0460935C040E941E03BB
:101BD000882341F0809123058C3009F40AC1C8F4B0
:101BE0008B3091F160E070E080EC9FE755C0609130
:101BF0001D0570911E0576276727762790E080E007
:101C00000E9462122DEC3CEC4CEC5DE30E94191337
:101C1000D7CF8551823030F790901F05692D70E045
:101C2000762F662766277F7780912005682B90E0C6
:101C300080E00E9462122DEC3CEC4CEC5DE30E94D3
:101C4000191397FE29C0F3C060911F0570E090E062
:101C500080E00E9462122B013C011091200517FFC9
:101C60000AC0AC019B0160E070E080E89FEB0E943D
:101C700048112B013C011F70612F70E090E080E063
:101C80000E9464122DEC3CEC4CEC5DE30E941913B5
:101C9000A30192010E9449110E942C1270935B04CF
:101CA00060935A0486E30E94B0024C0187E30E94CD
:101CB000B0023C0187E00E941D029093590480937A
:101CC000580486E00E941D029093570480935604A6
:101CD00084E00E941D02909355048093540485E093
:101CE0000E941D02909353048093520483E00E944B
:101CF0001D02909351048093500482E00E941D02C3
:101D000090934F0480934E0461E08CE00E94460261
:101D1000C7010197F1F760E08CE00E944602F601EE
:101D20006491F5018491E82FF0E0EE0FFF1FE2517E
:101D3000FE4F8591949100E412E42FE030E0462FAD
:101D40000E946C0B611571058105910529F06F5F8B
:101D50007F4F8F4F9F4F9F700E9462122AE939E98F
:101D600049E652E40E94BA1160934A0470934B040E
:101D700080934C0490934D0460915C0470915D04D9
:101D8000072E000C880B990B0E9464129B01AC017A
:101D90000E948613811110C060915A0470915B04F7
:101DA000072E000C880B990B0E9464129B01AC015A
:101DB0000E9486138823E9F160E672E087E694E0EA
:101DC0000E942A0960E080E00E946A0763E772E0EF
:101DD00080E195E00E942A0961E080E00E946A07A4
:101DE00060E872E080E195E00E942A090E943205D5
:101DF000ADCE10911F05612F70E090E080E00E9451
:101E000062122B013C01609120056F7070E090E040
:101E100080E00E9464122DEC3CEC4CEC5DE30E94EF
:101E20001913A30192010E94491117FF35CF905851
:101E300033CF8091580490915904019709F053C011
:101E40000E949B0781E08093490462E370E080E098
:101E500090E00E94EC0280914904882309F480C03C
:101E600060E080E00E946A076EE872E080E195E041
:101E70000E943E0960E085E00E946A0780915C0450
:101E800090915D040E940F0863E972E080E195E0A3
:101E90000E943E0961E080E00E946A0767E972E003
:101EA00080E195E00E943E0961E085E00E946A07BA
:101EB00080915A0490915B040E940F086CE972E0D3
:101EC00080E195E00E943E0960ED77E080E090E0DF
:101ED0000E94EC021092490464E670E080E090E019
:101EE0000E94EC0283CF8091560490915704019791
:101EF00031F40E949B0781E080934804A6CF809133
:101F0000540490915504019731F40E949B0781E09D
:101F1000809347049ACF8091520490915304019783
:101F200031F40E949B0781E0809346048ECF80911C
:101F3000500490915104019731F40E949B0781E075
:101F40008093450482CF80914E0490914F04019775
:101F500009F081CF0E949B0781E08093440475CFF4
:101F600080914804882301F160E080E00E946A07C4
:101F700061EA72E080E195E00E943E0960E084E061
:101F80000E946A07C3010E940F0866EA72E080E1BE
:101F900095E00E943E0960ED77E080E090E00E94CD
:101FA000EC021092480498CF809147048823D1F026
:101FB00060E080E00E946A076AEA72E080E195E0F2
:101FC0000E943E0960E085E00E946A07C4010E9409
:101FD0000F0860ED77E080E090E00E94EC02109244
:101FE00047047ACF80914604882351F160E080E075
:101FF0000E946A076FEA72E080E195E00E943E0964
:1020000060E085E00E946A0740914A0450914B04C9
:1020100060914C0470914D0422E080E195E00E94B3
:102020003C0864EB72E080E195E00E943E0960EDBF
:1020300077E080E090E00E94EC02109246044CCFE2
:1020400080914504882329F168EB72E087E694E0EB
:102050000E943E090E949B0760E080E00E946A07A0
:1020600066ED72E080E195E00E943E0961E080E06B
:102070000E946A076CED72E080E195E00E943E09E3
:102080001092450468EE73E080E090E00E94EC025C
:1020900023CF80914404882309F41ECFBE016F5ED4
:1020A0007F4F90E080E00E947809BE01635F7F4F20
:1020B00084E090E00E947809BE01675F7F4F88E06E
:1020C00090E00E947809BE016B5F7F4F8CE090E04A
:1020D0000E947809BE016F5F7F4F80E190E00E940F
:1020E000780969EE72E087E694E00E943E0949892A
:1020F0005A896B897C8922E087E694E00E943C083B
:1021000064EB72E087E694E00E942A0960E073E0E5
:1021100087E694E00E943E094D855E856F8578894B
:1021200022E087E694E00E943C0864E472E087E6DF
:1021300094E00E94B40769E173E087E694E00E94AE
:102140003E0949855A856B857C8522E087E694E0C7
:102150000E943C0864E472E087E694E00E94B407C1
:102160006AE273E087E694E00E943E094D815E8159
:102170006F81788522E087E694E00E943C086EE952
:1021800072E087E694E00E942A0963E473E087E640
:1021900094E00E943E0949815A816B817C8122E052
:1021A00087E694E00E943C0868E573E087E694E0E7
:1021B0000E942A090E949B0760E080E00E946A0753
:1021C0006BE573E080E195E00E943E094D815E8100
:1021D0006F81788522E080E195E00E943C0862E60C
:1021E00073E080E195E00E943E0949815A816B814C
:1021F0007C8122E080E195E00E943C0861E080E083
:102200000E946A076BE673E080E195E00E943E0958
:1022100049895A896B897C8922E080E195E00E9496
:102220003C0862E773E080E195E00E943E0961E0CE
:1022300080E00E946A0768E773E080E195E00E9411
:102240003E0949855A856B857C8522E080E195E0D1
:102250000E943C086EE773E080E195E00E943E0931
:102260004D855E856F85788922E080E195E00E944A
:102270003C081092440460ED77E080E090E006CFE7
:10228000F999FECF92BD81BDF89A992780B508953E
:102290005058BB27AA270E9460110C94DA120E94A2
:1022A000CC1238F00E94D31220F039F49F3F19F479
:1022B00026F40C94C9120EF4E095E7FB0C94C312BB
:1022C000E92F0E94EB1258F3BA17620773078407CD
:1022D000950720F079F4A6F50C940D130EF4E09513
:1022E0000B2EBA2FA02D0B01B90190010C01CA01D0
:1022F000A0011124FF27591B99F0593F50F4503E7B
:1023000068F11A16F040A22F232F342F4427585F6C
:10231000F3CF469537952795A795F0405395C9F784
:102320007EF41F16BA0B620B730B840BBAF091503C
:10233000A1F0FF0FBB1F661F771F881FC2F70EC0DB
:10234000BA0F621F731F841F48F4879577956795AE
:10235000B795F7959E3F08F0B0CF9395880F08F09A
:102360009927EE0F9795879508950E949F1208F47C
:1023700081E008950E94CE110C94DA120E94D312CB
:1023800058F00E94CC1240F029F45F3F29F00C94E1
:10239000C31251110C940E130C94C9120E94EB122B
:1023A00068F39923B1F3552391F3951B550BBB2784
:1023B000AA2762177307840738F09F5F5F4F220FC9
:1023C000331F441FAA1FA9F335D00E2E3AF0E0E8C0
:1023D00032D091505040E695001CCAF72BD0FE2F0A
:1023E00029D0660F771F881FBB1F2617370748079E
:1023F000AB07B0E809F0BB0B802DBF01FF27935856
:102400005F4F3AF09E3F510578F00C94C3120C9444
:102410000E135F3FE4F3983ED4F386957795679566
:10242000B795F7959F5FC9F7880F911D969587958A
:1024300097F90895E1E0660F771F881FBB1F6217A9
:1024400073078407BA0720F0621B730B840BBA0B67
:10245000EE1F88F7E09508950E9433126894B11139
:102460000C940E1308950E94F31288F09F5798F071
:10247000B92F9927B751B0F0E1F0660F771F881F89
:10248000991F1AF0BA95C9F714C0B13091F00E94A3
:102490000D13B1E008950C940D13672F782F882742
:1024A000B85F39F0B93FCCF3869577956795B395CA
:1024B000D9F73EF490958095709561957F4F8F4F39
:1024C0009F4F0895E89409C097FB3EF4909580953E
:1024D000709561957F4F8F4F9F4F9923A9F0F92FEA
:1024E00096E9BB279395F695879577956795B79568
:1024F000F111F8CFFAF4BB0F11F460FF1BC06F5F4E
:102500007F4F8F4F9F4F16C0882311F096E911C05F
:10251000772321F09EE8872F762F05C0662371F080
:1025200096E8862F70E060E02AF09A95660F771F94
:10253000881FDAF7880F9695879597F90895990F70
:102540000008550FAA0BE0E8FEEF16161706E8077D
:10255000F907C0F012161306E407F50798F0621B9E
:10256000730B840B950B39F40A2661F0232B242B73
:10257000252B21F408950A2609F4A140A6958FEF92
:10258000811D811D089597F99F6780E870E060E0E4
:1025900008959FEF80EC089500240A9416161706FC
:1025A00018060906089500240A9412161306140644
:1025B00005060895092E0394000C11F4882352F0A7
:1025C000BB0F40F4BF2B11F460FF04C06F5F7F4F5F
:1025D0008F4F9F4F089557FD9058440F551F59F046
:1025E0005F3F71F04795880F97FB991F61F09F3F00
:1025F00079F087950895121613061406551FF2CF29
:102600004695F1DF08C0161617061806991FF1CF78
:1026100086957105610508940895E894BB2766279F
:102620007727CB0197F908950E949F1208F48FEF46
:1026300008950E942C130C94DA120E94CC1238F0E8
:102640000E94D31220F0952311F00C94C3120C9425
:10265000C91211240C940E130E94EB1270F3959F73
:10266000C1F3950F50E0551F629FF001729FBB2789
:10267000F00DB11D639FAA27F00DB11DAA1F649F25
:102680006627B00DA11D661F829F2227B00DA11DD8
:10269000621F739FB00DA11D621F839FA00D611D5E
:1026A000221F749F3327A00D611D231F849F600D7F
:1026B000211D822F762F6A2F11249F5750409AF0A8
:1026C000F1F088234AF0EE0FFF1FBB1F661F771F34
:1026D000881F91505040A9F79E3F510580F00C94FF
:1026E000C3120C940E135F3FE4F3983ED4F3869527
:1026F00077956795B795F795E7959F5FC1F7FE2B9F
:10270000880F911D9695879597F908950E949F12BD
:10271000880B990B0895A1E21A2EAA1BBB1BFD0181
:102720000DC0AA1FBB1FEE1FFF1FA217B307E407B0
:10273000F50720F0A21BB30BE40BF50B661F771F08
:10274000881F991F1A9469F76095709580959095E8
:102750009B01AC01BD01CF010895EE0FFF1F881F43
:102760008BBF0790F691E02D1994F894FFCF0000ED
:1027700040001400540000000000C5042F045C0455
:1027800012058D046B047F04000000002106F4058F
:102790003707CA05ED05DA05CB0500000000AE07D6
:1027A0002F04370763056E616E00696E66006F76F1
:1027B00066000D0A004143453220475255504F20D4
:1027C00037004269656E76656E69646F2E004572EA
:1027D000726F7220656E20656C2073656E736F7208
:1027E0000053656E736F72204D51313335006E6F3B
:1027F00020656E636F6E747261646F0048554D3A68
:10280000002025200054454D3A00C2B02043004C22
:10281000554D3A006C756D00434F323A00444953B0
:102820003A0020636D004461746F7320616C6D61C8
:1028300063656E61646F7320656E206D656D6F7288
:1028400069612E004461746F7300616C6D61636532
:102850006E61646F732E0044697374616E636961A5
:1028600020616C6D6163656E6164613A20004C7536
:102870006D696E6F736964616420616C6D6163651D
:102880006E6164613A2000434F3220616C6D616378
:10289000656E6164613A200054656D7065726174A3
:1028A00075726120616C6D6163656E6164613A206F
:1028B0000048756D6564616420616C6D6163656E6F
:1028C0006164613A200020250054656D703A200053
:1028D00043202048756D3A2000446973743A200003
:1028E000636D20202000434F323A200070706D202D
:0828F000204C757A3A2000002B
:020000040003F7
:10E000000D9489F10D94B2F10D94B2F10D94B2F129
:10E010000D94B2F10D94B2F10D94B2F10D94B2F1F0
:10E020000D94B2F10D94B2F10D94B2F10D94B2F1E0
:10E030000D94B2F10D94B2F10D94B2F10D94B2F1D0
:10E040000D94B2F10D94B2F10D94B2F10D94B2F1C0
:10E050000D94B2F10D94B2F10D94B2F10D94B2F1B0
:10E060000D94B2F10D94B2F10D94B2F10D94B2F1A0
:10E070000D94B2F10D94B2F10D94B2F10D94B2F190
:10E080000D94B2F10D94B2F10D94B2F10D94B2F180
:10E090000D94B2F10D94B2F10D94B2F10D94B2F170
:10E0A0000D94B2F10D94B2F10D94B2F10D94B2F160
:10E0B0000D94B2F10D94B2F10D94B2F10D94B2F150
:10E0C0000D94B2F10D94B2F10D94B2F10D94B2F140
:10E0D0000D94B2F10D94B2F10D94B2F10D94B2F130
:10E0E0000D94B2F141546D656761323536300041AF
:10E0F000726475696E6F206578706C6F72657220DE
:10E1000073746B3530305632206279204D4C530099
:10E11000426F6F746C6F616465723E004875683F52
:10E1200000436F6D70696C6564206F6E203D200048
:10E130004350552054797065202020203D20005FF9
:10E140005F4156525F415243485F5F3D2000415658
:10E1500052204C696243205665723D20004743437C
:10E160002056657273696F6E203D20004350552024
:10E1700049442020202020203D20004C6F7720663D
:10E18000757365202020203D20004869676820665F
:10E190007573652020203D200045787420667573D6
:10E1A00065202020203D20004C6F636B2066757336
:10E1B000652020203D20004D617220203720323024
:10E1C000313300312E362E3800342E332E350056A2
:10E1D00023202020414444522020206F7020636F70
:10E1E00064652020202020696E73747275637469E1
:10E1F0006F6E2061646472202020496E74657272B3
:10E20000757074006E6F20766563746F7200726A49
:10E210006D702020006A6D70200057686174207056
:10E220006F72743A00506F7274206E6F7420737541
:10E2300070706F72746564004D7573742062652030
:10E2400061206C6574746572002000577269747483
:10E25000696E672045450052656164696E672045B7
:10E26000450045452065727220636E743D00504F35
:10E27000525400303D5A65726F2061646472003FF1
:10E280003D43505520737461747300403D454550C3
:10E29000524F4D207465737400423D426C696E6B41
:10E2A000204C454400453D44756D70204545505215
:10E2B0004F4D00463D44756D7020464C415348001B
:10E2C000483D48656C70004C3D4C69737420492F83
:10E2D0004F20506F72747300513D51756974005234
:10E2E0003D44756D702052414D00563D73686F7707
:10E2F00020696E7465727275707420566563746FF0
:10E30000727300593D506F727420626C696E6B00BD
:10E310002A0011241FBECFEFD1E2DEBFCDBF01E046
:10E320000CBF12E0A0E0B2E0EEE1FDEF03E00BBFB6
:10E3300002C007900D92A030B107D9F712E0A0E01B
:10E34000B2E001C01D92AE30B107E1F70F9460F367
:10E350000D948DFE01E20EBF0FEF0DBF11241FBE05
:10E360000D9460F30D9400F020E030E040ED57E0B4
:10E3700005C0FA013197F1F72F5F3F4F2817390792
:10E38000C0F308959C01260F311DC901A0E0B0E043
:10E390002F5F3F4FABBFFC018791882361F08093D3
:10E3A000C6008091C00086FFFCCF8091C0008064D1
:10E3B0008093C000EACF08958DE08093C6008091DD
:10E3C000C00086FFFCCF8091C00080648093C000B5
:10E3D0008AE08093C6008091C00086FFFCCF8091C8
:10E3E000C00080648093C00008950F94C2F10F9420
:10E3F000DCF10895FC019081992359F09093C600B7
:10E400008091C00086FFFCCF8091C0008064809323
:10E41000C0003196992379F70895282F982F929567
:10E420009F70892F805D8A3308F0895F8093C600D2
:10E430008091C00086FFFCCF8091C00080648093F3
:10E44000C000822F8F70982F905D9A3308F0995FEB
:10E450009093C6008091C00086FFFCCF8091C000E1
:10E4600080648093C00008959C01FB01853691056E
:10E470001CF46330710594F0C90164E670E00F94F8
:10E480002EFE605D7F4F6093C6008091C00086FFC6
:10E49000FCCF8091C00080648093C0002B30310598
:10E4A00014F43297B4F0C90164E670E00F942EFEC4
:10E4B0006AE070E00F942EFE605D7F4F6093C600AF
:10E4C0008091C00086FFFCCF8091C0008064809363
:10E4D000C000C9016AE070E00F942EFEC0968093E0
:10E4E000C6008091C00086FFFCCF8091C000806490
:10E4F0008093C00008951F93182F8EE692EE60E07F
:10E500000F94C2F11093C6008091C00086FFFCCF2B
:10E510008091C00080648093C0000F94DCF11F9153
:10E5200008952F923F924F925F926F927F928F92B7
:10E530009F92AF92BF92CF92DF92EF92FF920F9392
:10E540001F93DF93CF93CDB7DEB762970FB6F894E2
:10E55000DEBF0FBECDBF382E622ECA01DB015C01CB
:10E560006D01772420E2222E2E010894411C511CBB
:10E570008BC081E0A81680E0B80681E0C80680E084
:10E58000D80628F0C601AA27BB270F940DF2BB2797
:10E59000AD2D9C2D8B2D0F940DF28A2D0F940DF225
:10E5A0002092C6008091C00086FFFCCF8091C00001
:10E5B00080648093C0009DE29093C6008091C0006B
:10E5C00086FFFCCF8091C00080648093C0002092C1
:10E5D000C6008091C00086FFFCCF8091C00080649F
:10E5E0008093C00019828601750188249924A1E0D6
:10E5F0003A1651F03A1620F0B2E03B1661F409C029
:10E600000BBFF701779007C0C7010F9477FE782EF4
:10E6100002C0F7017080872D0F940DF22092C60082
:10E620008091C00086FFFCCF8091C0008064809301
:10E63000C000872D8052F401EF70F0708F3520F408
:10E64000E40DF51D708204C0E40DF51D8EE280839B
:10E650000894E11CF11C011D111D0894811C911CE2
:10E6600090E18916910409F0C2CF80E190E0A0E02A
:10E67000B0E0A80EB91ECA1EDB1E198AC2010F9493
:10E68000FAF10F94DCF16A94662009F072CF629679
:10E690000FB6F894DEBF0FBECDBFCF91DF911F91B3
:10E6A0000F91FF90EF90DF90CF90BF90AF909F9031
:10E6B0008F907F906F905F904F903F902F90089534
:10E6C0002F923F924F925F926F927F928F929F9282
:10E6D000AF92BF92CF92DF92EF92FF920F931F9370
:10E6E000DF93CF93CDB7DEB7CD53D1400FB6F894BB
:10E6F000DEBF0FBECDBF01E20EBF0FEF0DBF94B75F
:10E70000F894A89514BE80916000886180936000A1
:10E7100010926000789493FF05C0E0910002F091A0
:10E7200001021995279A2F9A8091C00082608093E8
:10E73000C00080E18093C40088E18093C1000000A4
:10E74000EE24FF24870144E0A42EB12CCC24DD2448
:10E7500024C0C5010197F1F70894E11CF11C011DCB
:10E76000111D21E2E2162EE4F20620E0020720E06D
:10E77000120718F031E0C32ED12CC801B70127ECE5
:10E780003BE140E050E00F9441FE611571058105C9
:10E79000910519F485B1805885B98091C00087FD35
:10E7A00003C0C114D104A9F2A6014F5F5F4FC25E3E
:10E7B000DE4F59834883CE51D140C25EDE4F8881FF
:10E7C0009981CE51D140019711F00D9410FEC05D9A
:10E7D000DE4F19821882C053D14060E0C15DDE4F28
:10E7E0001882CF52D14088249924C35DDE4F19820C
:10E7F0001882CD52D140C05EDE4F188219821A8233
:10E800001B82C052D140CE5CDE4F188219821A8220
:10E810001B82C253D140EE24FF2487010BBFF701B6
:10E8200007911691C45CDE4F19830883CC53D14005
:10E830000D940BFEC25EDE4F28813981CE51D1404E
:10E840002130310509F52091C600C25EDE4F1982E4
:10E850001882CE51D14022C02F5F3F4F4F4F5F4FA4
:10E86000213082E138078AE7480780E0580780F0C6
:10E87000C45CDE4FE881F981CC53D140EF5FFF4F9C
:10E8800019F0EE27FF27099420E030E040E050E047
:10E890008091C00087FFE0CF2091C600C35DDE4FAE
:10E8A00048815981CD52D1404F5F5F4FC35DDE4FEC
:10E8B00059834883CD52D140213209F063C64A3092
:10E8C000510508F05FC60894811C911C53E0851621
:10E8D000910409F059C600E010E018C081E280936D
:10E8E000C6008091C00086FFFCCF8091C00080648C
:10E8F0008093C0002F5F3F4F2931310579F70F9486
:10E90000DCF10F5F1F4F0530110519F020E030E0FA
:10E91000E5CF10920A0210920B0210920C02109294
:10E920000D02109206021092070210920802109235
:10E930000902109202021092030210920402109235
:10E9400005028FEE90EE60E00F94F5F180E191EE1C
:10E9500060E00F94C2F18091C00087FFFCCF9091DE
:10E96000C600903608F09F759032B8F09093C600BC
:10E970008091C00086FFFCCF8091C00080648093AE
:10E98000C000A0E2A093C6008091C00086FFFCCF2B
:10E990008091C00080648093C000983409F4D7C18E
:10E9A0009934B8F4923409F459C1933458F490333B
:10E9B00019F1903308F4E3C59F33A1F1903409F0C5
:10E9C000DEC5BDC0953409F470C1963409F0D7C5D1
:10E9D00098C1923509F42BC2933538F49C3409F46C
:10E9E000F5C1913509F0CBC518C2963509F445C279
:10E9F000993509F0C4C567C483E792EE62E00F94CD
:10EA0000F5F110920602109207021092080210927D
:10EA1000090210920A0210920B0210920C0210923C
:10EA20000D0213C18FE792EE62E00F94F5F18FEEC5
:10EA300090EE60E00F94F5F181E291EE60E00F94CA
:10EA4000C2F187EB91EE60E00F94F5F180E391EE77
:10EA500060E00F94C2F184EE90EE60E00F94F5F167
:10EA60008FE391EE60E00F94C2F186E090E061E008
:10EA700070E00F9434F20F94DCF18DE591EE60E0DC
:10EA80000F94C2F189EC91EE60E00F94F5F18EE401
:10EA900091EE60E00F94C2F183EC91EE60E00F9490
:10EAA000F5F18CE691EE60E00F94C2F18EE10F94E7
:10EAB0000DF288E90F940DF281E00F940DF20F949E
:10EAC000DCF18BE791EE60E00F94C2F119E0E0E039
:10EAD000F0E010935700E4918E2F0F940DF20F94F5
:10EAE000DCF18AE891EE60E00F94C2F1E3E0F0E03F
:10EAF00010935700E4918E2F0F940DF20F94DCF1D8
:10EB000089E991EE60E00F94C2F1E2E0F0E0109349
:10EB10005700E4918E2F0F940DF20F94DCF188EAE8
:10EB200091EE60E00F94C2F1E1E0F0E01093570045
:10EB30001491812F0F940DF20F94DCF107CF8BE825
:10EB400092EE62E00F94F5F18BE492EE60E00F94A8
:10EB5000F5F10F94DCF100E010E019C0C8016F2D51
:10EB60000F947FFEFF2031F489E492EE60E00F9471
:10EB7000C2F10BC0F092C6008091C00086FFFCCFAE
:10EB80008091C00080648093C0000F5F1F4FC80158
:10EB900081519F41A0E0B0E0ABBFFC01F790BAE229
:10EBA000FB1621F0E2E000301E07C1F60F94DCF105
:10EBB0000F94DCF187E592EE60E00F94F5F10F948D
:10EBC000DCF1CC24DD2400E010E01EC0C8010F946D
:10EBD00077FEF82E882331F489E492EE60E00F94FA
:10EBE000C2F10BC08093C6008091C00086FFFCCFAD
:10EBF0008091C00080648093C000FE1419F00894D6
:10EC0000C11CD11C0F5F1F4FC80181519F41A0E063
:10EC1000B0E0ABBFFC01E790FAE2EF1621F022E092
:10EC20000030120799F60F94DCF10F94DCF182E6C4
:10EC300092EE60E00F94C2F1C60161E070E00F94C3
:10EC400034F20F94DCF10F94DCF110920202109276
:10EC50000302109204021092050278CE89E992EE26
:10EC600062E00F94F5F1279A2F9A16C02F9880E052
:10EC700090E0E0EDF7E03197F1F7019684369105E9
:10EC8000C1F72F9A80E090E0E0EDF7E03197F1F7DF
:10EC9000019684369105C1F78091C00087FFE6CFC9
:10ECA0008091C00087FFFCCF64C485EA92EE62E0E9
:10ECB0000F94F5F140910202509103026091040219
:10ECC0007091050281E020E10F9491F2809102029F
:10ECD00090910302A0910402B091050280509F4FD1
:10ECE000AF4FBF4F8093020290930302A0930402A0
:10ECF000B093050280509041A040B04008F426CE69
:10ED0000A4CF83EB92EE62E00F94F5F140910602FE
:10ED100050910702609108027091090280E020E1A1
:10ED20000F9491F28091060290910702A09108023F
:10ED3000B091090280509F4FAF4FBF4F80930602A2
:10ED400090930702A0930802B0930902FFCD80ECD4
:10ED500092EE62E00F94F5F183E792EE60E00F949B
:10ED6000F5F18FE792EE60E00F94F5F18BE892EE0B
:10ED700060E00F94F5F189E992EE60E00F94F5F10F
:10ED800085EA92EE60E00F94F5F183EB92EE60E09D
:10ED90000F94F5F180EC92EE60E00F94F5F187ECC2
:10EDA00092EE60E00F94F5F188ED92EE60E00F9442
:10EDB000F5F18FED92EE60E00F94F5F18AEE92EEB0
:10EDC00060E00F94F5F183E093EEBDCD87EC92EE19
:10EDD00062E00F94F5F181E40F947BF282E40F94EA
:10EDE0007BF283E40F947BF284E40F947BF285E45E
:10EDF0000F947BF286E40F947BF287E40F947BF20E
:10EE000088E40F947BF28AE40F947BF28BE40F94F6
:10EE10007BF28CE40F947BF299CD88ED92EE62E068
:10EE20000F94F5F1772473948824992409C48FED05
:10EE300092EE62E00F94F5F140910A0250910B02BC
:10EE400060910C0270910D0282E020E10F9491F22A
:10EE500080910A0290910B02A0910C02B0910D02D8
:10EE600080509F4FAF4FBF4F80930A0290930B0289
:10EE7000A0930C02B0930D0269CD8AEE92EE62E08F
:10EE80000F94F5F184EE90EE60E00F94F5F18FECC5
:10EE900091EE60E00F94F5F1662477244301CC5D98
:10EEA000DE4F19821882C452D140D401C301B695F5
:10EEB000A79597958795CA5DDE4F88839983AA8326
:10EEC000BB83C652D140CC5DDE4FA881B981C4520C
:10EED000D1401196CC5DDE4FB983A883C452D14096
:10EEE000CD0162E070E00F9434F2B0E2B093C6005E
:10EEF0008091C00086FFFCCF8091C0008064809329
:10EF0000C000EDE2E093C6008091C00086FFFCCF18
:10EF10008091C00080648093C000F0E2F093C6004E
:10EF20008091C00086FFFCCF8091C00080648093F8
:10EF3000C000CA5DDE4FE880F9800A811B81C6529D
:10EF4000D140BB27A12F902F8F2D0F940DF2CA5DBA
:10EF5000DE4F8881C652D1400F940DF2B0E2FB2EF5
:10EF6000F092C6008091C00086FFFCCF8091C00067
:10EF700080648093C0000DE30093C6008091C000C0
:10EF800086FFFCCF8091C00080648093C00010E2B7
:10EF90001093C6008091C00086FFFCCF8091C00016
:10EFA00080648093C0008BBEF3012791C65DDE4F65
:10EFB0002883CA52D140A22EBB24CC24DD2408943D
:10EFC000611C711C811C911C8BBEF3018791282E42
:10EFD0003324442455240894611C711C811C911C09
:10EFE0008BBEF3013791C55DDE4F3883CB52D140E4
:10EFF0000894611C711C811C911C8BBEF30147910C
:10F00000C45DDE4F4883CC52D140ADEFEA2EAFEF66
:10F01000FA2EAFEF0A2FAFEF1A2F6E0C7F1C801E57
:10F02000911E142D032DF22CEE24EA0CFB1C0C1D5A
:10F030001D1D0F940DF220E22093C6008091C000A8
:10F0400086FFFCCF8091C00080648093C000C65DC5
:10F05000DE4F8881CA52D1400F940DF230E23093D6
:10F06000C6008091C00086FFFCCF8091C000806404
:10F070008093C000C45DDE4F8881CC52D1400F9494
:10F080000DF240E24093C6008091C00086FFFCCFA5
:10F090008091C00080648093C000C55DDE4F888190
:10F0A000CB52D1400F940DF250E25093C6008091A4
:10F0B000C00086FFFCCF8091C00080648093C000B8
:10F0C0008FEFE8168FEFF80680E0080780E018075A
:10F0D00031F484E092EE60E00F94C2F1DFC0D80119
:10F0E000C7018070907CA070B0708050904CA040A0
:10F0F000B040D1F52FEF3FE340E050E0E222F322B1
:10F1000004231523CA5DDE4FA880B980CA80DB8046
:10F11000C652D140AE0CBF1CC01ED11EAA0CBB1CD7
:10F12000CC1CDD1C8EE092EE60E00F94C2F1BB2798
:10F13000A12F902F8F2D0F940DF28E2D0F940DF285
:10F1400030E23093C6008091C00086FFFCCF8091F2
:10F15000C00080648093C0004EE34093C60080915D
:10F16000C00086FFFCCF87C08EE09EEFA0E0B0E03D
:10F17000E822F9220A231B239CE0E91694E9F90608
:10F1800090E0090790E0190709F088C0C45DDE4FE0
:10F19000A881CC52D140EA2EFF2400E010E0102FCD
:10F1A0000F2DFE2CEE24C55DDE4FB881CB52D14031
:10F1B000EB0EF11C011D111DD601C501817090706F
:10F1C000A070B070DC0199278827E80EF91E0A1F8D
:10F1D0001B1F20EF30E040E050E0A222B322C42207
:10F1E000D52241E1AA0CBB1CCC1CDD1C4A95D1F7F1
:10F1F000EA0CFB1C0C1D1D1D81E090E0A0E0B0E0BE
:10F20000282239224A225B2235E1220C331C441C7D
:10F21000551C3A95D1F7E20CF31C041D151D57013E
:10F220006801AA0CBB1CCC1CDD1C85E192EE60E0E1
:10F230000F94C2F1C801AA27BB270F940DF2BB2778
:10F24000A12F902F8F2D0F940DF28E2D0F940DF274
:10F2500090E29093C6008091C00086FFFCCF809121
:10F26000C00080648093C000AEE3A093C60080918C
:10F27000C00086FFFCCF8091C00080648093C000F6
:10F28000C601AA27BB270F940DF2BB27AD2D9C2DDD
:10F290008B2D0F940DF28A2D0F940DF20F94DCF14B
:10F2A000CC5DDE4FE881F981C452D140F99709F471
:10F2B0004DCBF4E0EF2EF12C012D112D6E0C7F1CA7
:10F2C000801E911EF2CD83E093EE62E00F94F5F183
:10F2D0008AE192EE60E00F94C2F18091C00087FF56
:10F2E000FCCF1091C6001F751093C6008091C0001E
:10F2F00086FFFCCF8091C00080648093C0000F9493
:10F30000DCF1812F81548A3108F036C1163409F4BA
:10F3100095C0173490F4133409F44EC0143430F40B
:10F320001134F1F0123409F01DC130C0143409F465
:10F3300059C0153409F016C16BC01A3409F4C4C0A1
:10F340001B3438F4173409F48FC0183409F00AC19B
:10F35000A1C01B3409F4D2C01C3409F003C1E8C0B9
:10F360008FEF81B90DC082B1809582B980E090E0C5
:10F37000E0EDF7E03197F1F70196883C9105C1F790
:10F380008091C00087FFEFCF12B8EFC08FEF84B934
:10F390000DC085B1809585B980E090E0E0EDF7E0A3
:10F3A0003197F1F70196883C9105C1F78091C00033
:10F3B00087FFEFCF15B8D9C08FEF87B90DC088B1DF
:10F3C000809588B980E090E0E0EDF7E03197F1F7C3
:10F3D0000196883C9105C1F78091C00087FFEFCF6F
:10F3E00018B8C3C08FEF8AB90DC08BB180958BB9A7
:10F3F00080E090E0E0EDF7E03197F1F70196883C8E
:10F400009105C1F78091C00087FFEFCF1BB8ADC059
:10F410008FEF8DB90DC08EB180958EB980E090E0F0
:10F42000E0EDF7E03197F1F70196883C9105C1F7DF
:10F430008091C00087FFEFCF1EB897C08FEF80BBD1
:10F440000DC081B3809581BB80E090E0E0EDF7E0F6
:10F450003197F1F70196883C9105C1F78091C00082
:10F4600087FFEFCF11BA81C08FEF83BB0DC084B38C
:10F47000809584BB80E090E0E0EDF7E03197F1F714
:10F480000196883C9105C1F78091C00087FFEFCFBE
:10F4900014BA6BC08FEF809301010FC080910201FD
:10F4A00080958093020180E090E0E0EDF7E03197F5
:10F4B000F1F70196883C9105C1F78091C00087FF64
:10F4C000EDCF1092020151C08FEF809304010FC065
:10F4D0008091050180958093050180E090E0E0ED4A
:10F4E000F7E03197F1F70196883C9105C1F78091DB
:10F4F000C00087FFEDCF1092050137C08FEF8093DA
:10F5000007010FC08091080180958093080180E079
:10F5100090E0E0EDF7E03197F1F70196883C910536
:10F52000C1F78091C00087FFEDCF109208011DC088
:10F530008FEF80930A010FC080910B01809580931B
:10F540000B0180E090E0E0EDF7E03197F1F70196F4
:10F55000883C9105C1F78091C00087FFEDCF1092E4
:10F560000B0103C085E292EEEEC98091C00087FFD7
:10F57000FCCF8091C600EAC988E392EEE4C98CE131
:10F5800091EEE1C988249924933011F1943028F444
:10F59000913089F09230B8F408C0953061F195301F
:10F5A000F0F0963009F048C043C02B3109F042C951
:10F5B00091E06BE13FC96227C15DDE4F2883CF52E6
:10F5C000D14092E037C9B22FA0E0622793E032C960
:10F5D000822F90E0A82BB92B622794E02BC92E3004
:10F5E00009F039C3622795E0C05DDE4F19821882A9
:10F5F000C053D1401FC9E1E0F0E0EC0FFD1FC05D3A
:10F60000DE4F08811981C053D140E00FF11F2083E4
:10F610000F5F1F4FC05DDE4F19830883C053D14079
:10F6200062270A171B0709F005C9D80196E002C92D
:10F63000261709F010C303C0973009F0FBC87724E0
:10F640009981933109F412C19431C8F4963009F4C8
:10F65000D8C0973050F4923009F406C1933009F4C1
:10F660006DC0913009F059C253C0913109F477C08F
:10F67000923108F0BBC0903109F04FC2F5C098310B
:10F6800009F487C0993150F4953109F4EFC09531F0
:10F6900008F4C6C1963109F040C2C2C19A3109F4DA
:10F6A0006CC09A3108F491C09B3109F45BC09D3164
:10F6B00009F033C29D81903359F48F81882311F46E
:10F6C0009EE11CC0813011F091E018C098E916C08D
:10F6D000892F807591F0903539F4E0E0F0E089E011
:10F6E0008093570094910AC0983539F4E3E0F0E034
:10F6F00089E080935700949101C090E01A821B82A8
:10F700008D818C831D829E831F8227E030E009C299
:10F710001A8288E08B8381E48C8386E58D8382E581
:10F720008E8389E48F8383E5888780E589878FE5E9
:10F730008A8782E38B872BE030E0F3C18A818139AD
:10F7400041F0823941F0803911F48FE005C080E04A
:10F7500003C082E001C08AE01A828B8344C0772410
:10F76000739482C08D81882311F48EE12CC0813086
:10F7700011F081E028C088E926C01A82E1E0F0E0BB
:10F7800089E08093570084918B831C8224E030E0D1
:10F79000C8C18B81803589F48C81883039F4E2E0EE
:10F7A000F0E089E08093570084910DC0E0E0F0E044
:10F7B00089E080935700849106C0E3E0F0E089E09F
:10F7C0008093570084911A82DFCF8D81836C99E0FA
:10F7D000E1E0F0E0082E90935700E89507B600FCB2
:10F7E000FDCF1A821B8223E030E09BC180EC8A832C
:10F7F000CE5CDE4F188219821A821B82C253D1401E
:10F800008EC18A8190E0A0E0B0E0582F44273327D2
:10F8100022278B8190E0A0E0B0E0DC0199278827C7
:10F82000282B392B4A2B5B2B8D8190E0A0E0B0E098
:10F83000282B392B4A2B5B2B8C8190E0A0E0B0E089
:10F84000BA2FA92F982F8827282B392B4A2B5B2BCF
:10F85000220F331F441F551FC05EDE4F288339839C
:10F860004A835B83C052D1401A8259C13A81C95C34
:10F87000DE4F3883C753D140CA5CDE4F1882C6536F
:10F88000D1408B81C82EDD24CA5CDE4F488159816E
:10F89000C653D140C42AD52A933109F082C0CE5C28
:10F8A000DE4F88819981AA81BB81C253D1408050AB
:10F8B000904CA340B04030F583E0CE5CDE4FE88052
:10F8C000F9800A811B81C253D140F70100935B008C
:10F8D00080935700E89507B600FCFDCFCE5CDE4F65
:10F8E000088119812A813B81C253D14000501F4FAA
:10F8F0002F4F3F4FCE5CDE4F088319832A833B8313
:10F90000C253D140C05EDE4F488159816A817B81FC
:10F91000C052D140DE011B9631E08C9111962C91A2
:10F9200011971296C75CDE4F2883C953D140C85C3B
:10F93000DE4F1882C853D14090E0C85CDE4FE881AA
:10F94000F981C853D1408E2B9F2B0C01FA01609393
:10F950005B0030935700E89511244E5F5F4F6F4F67
:10F960007F4F0EEFE02E0FEFF02ECE0CDF1CC114F8
:10F97000D10499F685E0C05EDE4F088119812A81A5
:10F980003B81C052D140F80120935B008093570027
:10F99000E89507B600FCFDCF81E180935700E8951C
:10F9A00035C0C05EDE4F88819981AA81BB81C0527B
:10F9B000D140B695A795979587957C018601ABE0D8
:10F9C000AA2EB12CAC0EBD1E0BC0D5016D915D01F0
:10F9D000C7010F947FFE0894E11CF11C01501040F8
:10F9E0000115110591F7A60160E070E0440F551F65
:10F9F000661F771FC05EDE4FE880F9800A811B8199
:10FA0000C052D1404E0D5F1D601F711F1A82C05E33
:10FA1000DE4F488359836A837B83C052D1407FC0C5
:10FA2000FA80C55CDE4FF882CB53D140C65CDE4F16
:10FA30001882CA53D1408B81C82EDD24C65CDE4FAC
:10FA400008811981CA53D140C02AD12A1A828981DA
:10FA5000BE016D5F7F4F843121F59601C05EDE4FA0
:10FA6000E880F9800A811B81C052D1400BBFF701A9
:10FA700087919691DB018C9311969C936E5F7F4FDB
:10FA8000D801C7010296A11DB11DC05EDE4F88835B
:10FA90009983AA83BB83C052D14022503040F1F6F3
:10FAA00036C0C05EDE4F288139814A815B81C052F9
:10FAB000D1400894C108D108760100E010E0089414
:10FAC000C11CD11C0894E11CF11C011D111DE20E8A
:10FAD000F31E041F151F21BDBB27A52F942F832FB5
:10FAE00082BD2F5F3F4F4F4F5F4FF89A80B5DB01CC
:10FAF0008D93BD012E153F054007510761F7C05E8C
:10FB0000DE4F288339834A835B83C052D1409601FC
:10FB10002D5F3F4FFB01108204C080EC8A8322E0FE
:10FB200030E08BE18093C6008091C00086FFFCCF5F
:10FB30008091C00080648093C000C15DDE4FF88179
:10FB4000CF52D140F093C6008091C00086FFFCCF19
:10FB50008091C00080648093C000432F3093C60022
:10FB60008091C00086FFFCCF8091C00080648093AC
:10FB7000C000922F2093C6008091C00086FFFCCF6A
:10FB80008091C00080648093C0008EE08093C600A6
:10FB90008091C00086FFFCCF8091C000806480937C
:10FBA000C00065E1C15DDE4FE880CF52D1406E25D7
:10FBB00069276427FE01319610C090819093C6009A
:10FBC0008091C00086FFFCCF31968091C000806498
:10FBD0008093C0006927215030402115310569F715
:10FBE0006093C6008091C00086FFFCCF8091C0006A
:10FBF00080648093C00085B1805885B9772081F4F6
:10FC0000C15DDE4F0881CF52D1400F5FC15DDE4F35
:10FC10000883CF52D14090E0A0E0B0E00D941AF4F8
:10FC200027982F9880E090E020ED37E0F901319798
:10FC3000F1F7019684369105C9F700008091C00064
:10FC40008D7F8093C00081E180935700E895EE2777
:10FC5000FF270994FFCF90E00D941AF497FB092E2B
:10FC600007260AD077FD04D02ED006D000201AF443
:10FC7000709561957F4F0895F6F7909581959F4F08
:10FC80000895A1E21A2EAA1BBB1BFD010DC0AA1FDD
:10FC9000BB1FEE1FFF1FA217B307E407F50720F0F5
:10FCA000A21BB30BE40BF50B661F771F881F991F70
:10FCB0001A9469F760957095809590959B01AC01B9
:10FCC000BD01CF010895AA1BBB1B51E107C0AA1FAC
:10FCD000BB1FA617B70710F0A61BB70B881F991FED
:10FCE0005A95A9F780959095BC01CD010895F99991
:10FCF000FECF92BD81BDF89A992780B50895262F31
:10FD0000F999FECF1FBA92BD81BD20BD0FB6F89400
:0EFD1000FA9AF99A0FBE01960895F894FFCF63
:00000001FF
