:100000000C9451010C945E0B0C94330B0C94080B64
:100010000C94DD0A0C94B20A0C94870A0C945C0AC6
:100020000C94310A0C9482010C9482010C9482018C
:100030000C9482010C9482010C9482010C94820134
:100040000C9482010C9482010C9482010C94820124
:100050000C9482010C9482010C9482010C94E709A7
:100060000C9482010C94B30B0C94890B0C948201B8
:100070000C9482010C9482010C9482010C948201F4
:100080000C9482010C9482010C9482010C948201E4
:100090000C9482010C9482010C9482010C94E90B63
:1000A0000C9482010C9482010C9482010C948201C4
:1000B0000C9482010C9482010C9482010C948201B4
:1000C0000C9482010C9482010C9482010C948201A4
:1000D0000C9482010C9482010C9482010C94820194
:1000E0000C9482010C940D060C942B050C94E801E1
:1000F0000C9446040C94C7070C94F5010C94480426
:100100000C947C050C9407020C94A6040C94110228
:100110000C9484040C94E4010C9445040C943A0669
:100120000C9475040C9406060C94F3050C94EC01E5
:100130000C9447040C94FF010C941B020C943304A0
:100140000C940D020C94DA010C94DE040C943C0423
:100150000C9403020C94E0010C9415020C94980486
:100160000C941A020C9450070C94520D0C941F021C
:100170000C94E4050C94EF010C94F9010C94E30544
:1001800000002100240027002A002D003000330049
:1001900001010000040107010A01000022002500FE
:1001A00028002B002E003100340002010000050160
:1001B00008010B0100000A0B02090C0D0E080703D1
:1001C000040100000000000000000000000000002A
:1001D000000000000000000000000000000000001F
:1001E00012111000000000000000000000000000DC
:1001F00000000000000000000000000020002300BC
:10020000260029002C002F0032000001000003010D
:100210000601090105050505070508080808020289
:1002200002020A0A08080404040401010101010190
:1002300001010303030303030303040707070C0C73
:100240000C0C0C0C0C0C020202020606060606063A
:1002500006060B0B0B0B0B0B0B0B010210202008DF
:100260000810204010204080020102010804020111
:100270000102040810204080804020100804020180
:1002800080040201804020100804020108040201D9
:100290000102040810204080010204081020408060
:1002A000520D11241FBECFEFD1E2DEBFCDBF00E063
:1002B0000CBF13E0A0E0B2E0E0EFFBE200E00BBF18
:1002C00002C007900D92A039B107D9F725E0A0E947
:1002D000B3E001C01D92A033B207E1F711E0C1E520
:1002E000D1E000E006C021970109802FFE010E94A5
:1002F000EE15C035D10780E00807A9F70E94BB0DB5
:100300000C94F6150C940000CF92DF92EF92FF92BE
:10031000CF93DF93B0912405A0E08111AB2F8091A2
:10032000250590E0880F991FAC0146505E4FC090A4
:100330002A05D0902B05E0902C05F0902D0530E09B
:1003400020E0FA01C591D491E881B90190E080E004
:10035000EB23EA130AC02F5F3F4F6C157D058E0516
:100360009F0578F36FEF7FEFCB01DF91CF91FF9087
:10037000EF90DF90CF9008958150823108F05AC0FD
:10038000E82FF0E08827E853FE4F8F4F0C94EE15CE
:10039000E801EC01DA01E001E4011A02EF01F501E4
:1003A000F901FF01030207020D0211021A021502F0
:1003B0001B021F02809180008F7780938000089538
:1003C000809180008F7DF9CF80918000877FF5CF6D
:1003D00084B58F7784BD089584B58F7DFBCF8091E0
:1003E000B0008F778093B00008958091B0008F7D2A
:1003F000F9CF809190008F7780939000089580913D
:1004000090008F7DF9CF80919000877FF5CF80910C
:10041000A0008F778093A00008958091A0008F7D29
:10042000F9CF8091A000877FF5CF809120018F7751
:10043000809320010895809120018F7DF9CF8091D4
:100440002001877FF5CFCF93DF93282F30E0F9018C
:10045000EC54FE4F8491F901E65AFD4FD491F90115
:10046000EC5EFD4FC491CC23A1F081110E94BC0130
:10047000EC2FF0E0EE0FFF1FE650FE4FA591B49178
:10048000EC91ED2381E090E009F480E0DF91CF91E1
:10049000089580E090E0FACF1F93CF93DF93282F49
:1004A00030E0F901EC54FE4F8491F901E65AFD4F1A
:1004B000D491F901EC5EFD4FC491CC23A9F0162F25
:1004C00081110E94BC01EC2FF0E0EE0FFF1FE656F9
:1004D000FE4FA591B4918FB7F894EC91111108C01B
:1004E000D095DE23DC938FBFDF91CF911F910895CC
:1004F000DE2BF8CFCF93DF9390E0FC01E65AFD4F5F
:1005000024918C5E9D4FFC0184918823C9F090E07A
:10051000880F991FFC01E058FE4FA591B491FC0192
:10052000E656FE4FC591D49161110DC09FB7F89466
:100530008C91209582238C938881282328839FBFC8
:10054000DF91CF910895623051F49FB7F8943C91B8
:10055000822F809583238C93E8812E2BEFCF8FB74A
:10056000F894EC912E2B2C938FBFEACF90917B00C7
:10057000977F90937B008653806480937C0080916A
:100580007A00806480937A0080917A0086FDFCCFA7
:10059000809178009091790008953FB7F894809108
:1005A0005F0490916004A0916104B091620426B54B
:1005B000A89B05C02F3F19F00196A11DB11D3FBF9B
:1005C000BA2FA92F982F8827BC01CD01620F711D6A
:1005D000811D911D42E0660F771F881F991F4A9564
:1005E000D1F708958F929F92AF92BF92CF92DF92F0
:1005F000EF92FF924B015C010E94CD026B017C01E6
:100600000E94CD026C197D098E099F09683E7340D6
:1006100081059105A8F321E0821A9108A108B1088B
:1006200088EEC80E83E0D81EE11CF11C81149104F1
:10063000A104B10429F7FF90EF90DF90CF90BF9015
:10064000AF909F908F900895CF92DF92EF92FF929C
:100650000F931F93CF93DF93CDB7DEB7C054D14034
:100660000FB6F894DEBF0FBECDBF2FB7F8948091C0
:10067000630490916404A0916504B09166042FBF57
:100680004091260550912705609128057091290514
:100690008C019D01041B150B260B370BB901A8011A
:1006A000403D57406105710590F480912E05C05C76
:1006B000DE4F0FB6F894DEBF0FBECDBFDF91CF91F6
:1006C0001F910F91FF90EF90DF90CF90089580934E
:1006D000260590932705A0932805B093290510922D
:1006E00021051092200510921F0510921E051092F0
:1006F0001D0562E0809122050E947A0261E070E0AF
:1007000080E090E00E94F20261E0809122050E9468
:100710007A0260E0809122050E944C0280912305BC
:100720008551823020F58BE291E10197F1F762E08B
:10073000809122050E947A0280912F0590E08230FC
:10074000910538F0880F991F880F991F0597019719
:10075000F1F7F89480E00E9484016F3F7F4F8F4F44
:100760009F4F61F410922E05789480E0A0CF64E151
:1007700070E080E090E00E94F202D9CF81E00E9418
:1007800084016F3F7F4F8F4F9F4F61F38E010F5F4B
:100790001F4F6E018FEBC81A8EEFD80A780180E0E8
:1007A0000E948401F701608371838283938381E0D7
:1007B0000E948401F7016483758386839783F8E040
:1007C000EF0EF11CEC14FD0451F7789430E020E0BA
:1007D000F801C080D180E280F38044815581668138
:1007E0007781FFEFCF16DF06EF06FF0631F04F3FB0
:1007F0008FEF58076807780719F410922E05B5CFC8
:10080000F90183E0F595E7958A95E1F7E35EFA4F04
:100810008081880FC416D506E606F70610F180839E
:100820002F5F3F4F085F1F4F2832310589F64091F7
:10083000210520911D0580911E05280F3327331FA8
:1008400080911F05280F311D80912005820F932F65
:10085000911D99274817190681F681E080932E058E
:1008600026CF8160DCCF81E080934B0462E370E0AF
:1008700080E090E00C94F20281E080934A0462E30D
:1008800070E080E090E00C94F202089508950895DD
:10089000AF92BF92CF92DF92EF92FF920F931F938E
:1008A000CF93DF936C017B018B01040F151FEB01CC
:1008B0005E01AE18BF08C017D10759F06991D60183
:1008C000ED91FC910190F081E02DC6011995892BE5
:1008D00079F7C501DF91CF911F910F91FF90EF90B4
:1008E000DF90CF90BF90AF900895FC01538D448D61
:1008F000252F30E0842F90E0821B930B541710F0CB
:10090000CF96089501970895FC01918D828D9817D7
:1009100061F0A28DAE0FBF2FB11D5D968C91928DAF
:100920009F5F9F73928F90E008958FEF9FEF0895E0
:10093000FC01918D828D981731F0828DE80FF11DA9
:10094000858D90E008958FEF9FEF0895FC01918DC4
:10095000228D892F90E0805C9F4F821B91098F73BD
:100960009927089587E694E00E94A60421E0892B48
:1009700009F420E0822F0895FC01A48DA80FB92F5F
:10098000B11DA35ABF4F2C91848D90E001968F73B7
:100990009927848FA689B7892C93A089B1898C91D6
:1009A000837080648C93938D848D981306C0028825
:1009B000F389E02D80818F7D80830895EF92FF92EF
:1009C0000F931F93CF93DF93EC0181E0888F9B8D72
:1009D0008C8D98131AC0E889F989808185FF15C02C
:1009E0009FB7F894EE89FF896083E889F98980814F
:1009F0008370806480839FBF81E090E0DF91CF911E
:100A00001F910F91FF90EF900895F62E0B8D10E03F
:100A10000F5F1F4F0F731127E02E8C8D8E110CC0AE
:100A20000FB607FCFACFE889F989808185FFF5CFF9
:100A3000CE010E94BC04F1CFEB8DEC0FFD2FF11D18
:100A4000E35AFF4FF0829FB7F8940B8FEA89FB8936
:100A500080818062CFCFCF93DF93EC01888D882394
:100A6000B9F0AA89BB89E889F9898C9185FD03C011
:100A7000808186FD0DC00FB607FCF7CF8C9185FFF6
:100A8000F2CF808185FFEDCFCE010E94BC04E9CF7B
:100A9000DF91CF91089580E090E0892B29F00E94AA
:100AA000B20481110E94000080E090E0892B49F09F
:100AB00080E090E0892B29F00E94000081110E94C3
:100AC000000080E090E0892B49F080E090E0892BE5
:100AD00029F00E94000081110E94000080E090E057
:100AE000892B49F080E090E0892B29F00E940000DA
:100AF00081110C940000089508952091D103260FD0
:100B00003327331F21323105ECF420911A04FC0104
:100B100090E080E0243069F082E00895A091D10354
:100B20002191AC014F545C4FA40FB52FB11D2C93F4
:100B30000196861798F38091D103680F6093D103D3
:100B400080E0089581E0089510921A0481E0809376
:100B500019041092F40361E084E10E944C0261E008
:100B600085E10E944C02E9EBF0E080818E7F80837A
:100B700080818D7F808388E48093B80085E48093B2
:100B8000BC000895CF93DF9391E09093B003882346
:100B9000B9F0C091B800D091BA008091BC008A7BB6
:100BA0008093BC0060E084E10E944C0260E085E13B
:100BB0000E944C020E94A405D093BA00C093B800D2
:100BC000DF91CF9108950895E09149048091480400
:100BD000E81730F4F0E0E057FC4F808190E0089592
:100BE0008FEF9FEF089590914904809148042FEF73
:100BF0003FEF981748F4E92FF0E0E057FC4F2081D1
:100C000030E09F5F90934904C901089580914804A2
:100C100090914904891B990B0895CF92DF92EF922E
:100C2000FF920F931F93CF93DF937C01CB018A0137
:100C300020912004222389F0EB016B01C40ED51E04
:100C4000CC15DD0569F06991D701ED91FC9101901A
:100C5000F081E02DC7011995F3CF642F0E947D0527
:100C6000C801DF91CF911F910F91FF90EF90DF901E
:100C7000CF900895CF93DF931F92CDB7DEB76983EE
:100C8000209120042223F9F020914604203258F0CC
:100C900021E030E0FC013383228390E080E00F907C
:100CA000DF91CF91089580914704E82FF0E0EF5D48
:100CB000FB4F998190838F5F809347048093460414
:100CC00081E090E0ECCF61E0CE0101960E947D05CD
:100CD000F7CFCF92DF92EF92FF920F931F93CF93B4
:100CE000DF93FC01C48121E020932004C0934104E0
:100CF00010924704109246048485682B84E095E0A6
:100D00000E943A06D0914604D13208F092C00E9467
:100D1000CD026B017C0180911A04811165C082E0D3
:100D200080931A0481E0809319048FEF8093180454
:100D300010921704D0931604A1E2B4E0E6EFF3E0BA
:100D400080E0D81385C01092F5038091F503CC0F95
:100D5000C82BC093F5038091F403813009F07CC067
:100D60001092F4030E94CD026B017C018091F50387
:100D70008093BB0080911C0490911D04A0911E04DF
:100D8000B0911F04892B8A2B8B2B99F00E94CD02E6
:100D900000911C0410911D0420911E0430911F0429
:100DA0006C197D098E099F0906171707280739074F
:100DB000E0F18091BC0083FDD9CF85EC8093BC002D
:100DC0000E94CD026B017C0180911A04823009F4EB
:100DD00045C0809118048F3F61F1809118048032E2
:100DE00041F18091180425C080911C0490911D044C
:100DF000A0911E04B0911F04892B8A2B8B2B09F420
:100E00008ACF0E94CD0200911C0410911D042091F4
:100E10001E0430911F046C197D098E099F09061765
:100E200017072807390708F076CF80911B040E9426
:100E3000C205109247041092460410922004DF91DC
:100E4000CF911F910F91FF90EF90DF90CF90089579
:100E50009D9191938F5F75CF85EEB0CF80911C04EB
:100E600090911D04A0911E04B0911F04892B8A2B20
:100E70008B2B09F4A9CF0E94CD0200911C04109184
:100E80001D0420911E0430911F046C197D098E09E8
:100E90009F09061717072807390708F095CFC5CF10
:100EA00090E080E008950F931F93CF938C01C62F9D
:100EB0000E9469066C2F6460C8010E9469066C2F4D
:100EC0006B7FC8010E94690683EC90E00197F1F7FF
:100ED000CF911F910F9108950F931F93CF93DF939D
:100EE0008C01D62FC42F607F642B0E94530780E1B2
:100EF000D89FB00111246C2BC801DF91CF911F91B5
:100F00000F910C945307CF93DF9300D000D01F9222
:100F10001F92CDB7DEB798E0E0E1F2E0DE01119676
:100F200001900D929A95E1F790911805961708F4A3
:100F30006FEF262F30E0220F331F41E050E04C0FBF
:100F40005D1F240F351FF9016081680F606840E064
:100F500080E195E028960FB6F894DEBF0FBECDBFB6
:100F6000DF91CF910C946C0740E061E080E195E067
:100F70000E946C078BE39FE10197F1F780911905BF
:100F8000882321F060E080E00C948307089541E01D
:100F90000E946C0781E090E00895FB010190002021
:100FA000E9F73197AF01461B570BDC01ED91FC913E
:100FB0000280F381E02D19948F929F92AF92BF929D
:100FC000EF92FF920F931F93CF93DF93CDB7DEB7CE
:100FD000A1970FB6F894DEBF0FBECDBF7C01FA011A
:100FE000CB0119A2223008F42AE08E010F5D1F4FB9
:100FF000822E912CB12CA12CBF01A50194010E943D
:10100000AD15F901CA016A300CF5605DD8016E9327
:101010008D01232B242B252B79F790E080E010976E
:1010200021F0BD01C7010E94CD07A1960FB6F8942B
:10103000DEBF0FBECDBFDF91CF911F910F91FF900B
:10104000EF90BF90AF909F908F900895695CDECF36
:10105000CF92DF92EF92FF926B017C0141E06DE253
:1010600080E195E00E946C0744275527BA014C198E
:101070005D096E097F092AE080E195E00E94DC07A6
:101080000196FF90EF90DF90CF900895AC01990FFB
:10109000660B770B77FF04C0CB01BA010C942808CC
:1010A0002AE080E195E00C94DC072F923F924F926A
:1010B0005F926F927F928F929F92AF92BF92CF92E8
:1010C000DF92EF92FF921F93CF93DF93EC016A01BF
:1010D0007B01722EAB019601CB01B6010E94A815CF
:1010E00068E472E0811126C046015701E894B7F820
:1010F0002FEF3FEF4FE75FE7C501B4010E94A8154E
:1011000081110CC02FEF3FEF4FE75FE7C501B4013E
:101110000E94D7136CE472E0181664F02FEF3FEFD3
:101120004FE75FE4C701B6010E9436151816B4F404
:1011300060E572E0CE01DF91CF911F91FF90EF90BB
:10114000DF90CF90BF90AF909F908F907F906F90E7
:101150005F904F903F902F900C94CD072FEF3FEF73
:101160004FE75FECC701B6010E94D71387FDE0CFC0
:1011700020E030E0A901C701B6010E94D713312C4D
:10118000212C87FF0DC0E881F9810190F081E02DCD
:101190006DE2CE0119951C01F7FAF094F7F8F0947E
:1011A00010E060E070E080E09FE3711641F020E025
:1011B00030E040E251E40E94DC131F5FF6CFA7014C
:1011C00096010E946B132B013C010E9455144B01A8
:1011D0005C012AE0BC01A401CE010E94DC077C0175
:1011E000E20CF31C1123E1F1C501B4010E94841447
:1011F0009B01AC01C301B2010E946A134B015C0167
:10120000E881F9810190F081E02D6EE2CE0119951F
:10121000E80EF91E115020F120E030E040E251E4E8
:10122000C501B4010E943B152B013C010E945514DD
:101230004B01B12CA12C2AE0B501A401CE010E94E2
:10124000DC07E80EF91EC501B4010E9484149B015D
:10125000AC01C301B2010E946A134B015C01DACFF9
:10126000C701DF91CF911F91FF90EF90DF90CF905A
:10127000BF90AF909F908F907F906F905F904F90B6
:101280003F902F9008950F931F93CF93DF93EC011E
:101290000E94CD078C0164E572E0CE010E94CD076B
:1012A000800F911FDF91CF911F910F9108950C94A2
:1012B000CD0785ED8093BC0080911C0490911D04A6
:1012C000A0911E04B0911F040796A11DB11D23E03B
:1012D000B695A795979587952A95D1F72091BC004B
:1012E00024FD03C010921A04089540911C045091EB
:1012F0001D0460911E0470911F04452B462B472B43
:1013000069F30097A105B10541F02AE22A95F1F7AA
:1013100000C00197A109B109E1CF80911B040C9491
:10132000C205CF92DF92EF92FF920F931F93CF935C
:10133000DF93EB017B0124E0E20EF11C8B016C01D9
:10134000C61AD70AC601800F911F0E945413F801D4
:1013500081938F01EE15FF05A9F7CE01DF91CF91A3
:101360001F910F91FF90EF90DF90CF9008959F9283
:10137000AF92BF92CF92DF92EF92FF920F931F93A3
:10138000CF93DF935C017B018B01D0E0C0E0F801DB
:1013900091908F016501CC0EDD1EC6010E94541391
:1013A000981621F0692DC6010E945C132196C43065
:1013B000D10569F7C701DF91CF911F910F91FF9080
:1013C000EF90DF90CF90BF90AF909F9008951F92C5
:1013D0000F920FB60F9211242F933F938F939F93E9
:1013E000AF93BF938091630490916404A0916504CE
:1013F000B091660430915E0423E0230F2D3758F539
:101400000196A11DB11D20935E0480936304909307
:101410006404A0936504B093660480915F04909186
:101420006004A0916104B09162040196A11DB11DF8
:1014300080935F0490936004A0936104B09362046E
:10144000BF91AF919F918F913F912F910F900FBEC0
:101450000F901F90189526E8230F0296A11DB11D2D
:10146000D2CF1F920F920FB60F9211240BB60F928C
:101470002F933F934F935F936F937F938F939F939C
:10148000AF93BF93EF93FF93E0910E02F0910F02A1
:101490001995FF91EF91BF91AF919F918F917F919E
:1014A0006F915F914F913F912F910F900BBE0F90D5
:1014B0000FBE0F901F9018951F920F920FB60F92AC
:1014C00011240BB60F922F933F934F935F936F931B
:1014D0007F938F939F93AF93BF93EF93FF93E0918D
:1014E0000C02F0910D021995FF91EF91BF91AF9110
:1014F0009F918F917F916F915F914F913F912F912C
:101500000F900BBE0F900FBE0F901F9018951F925B
:101510000F920FB60F9211240BB60F922F933F9399
:101520004F935F936F937F938F939F93AF93BF93EB
:10153000EF93FF93E0910202F09103021995FF915E
:10154000EF91BF91AF919F918F917F916F915F913B
:101550004F913F912F910F900BBE0F900FBE0F90A8
:101560001F9018951F920F920FB60F9211240BB671
:101570000F922F933F934F935F936F937F938F932C
:101580009F93AF93BF93EF93FF93E0910002F0918D
:1015900001021995FF91EF91BF91AF919F918F91AA
:1015A0007F916F915F914F913F912F910F900BBE63
:1015B0000F900FBE0F901F9018951F920F920FB6AD
:1015C0000F9211240BB60F922F933F934F935F937B
:1015D0006F937F938F939F93AF93BF93EF93FF93FB
:1015E000E0910A02F0910B021995FF91EF91BF91E2
:1015F000AF919F918F917F916F915F914F913F91AB
:101600002F910F900BBE0F900FBE0F901F9018954B
:101610001F920F920FB60F9211240BB60F922F93B9
:101620003F934F935F936F937F938F939F93AF936A
:10163000BF93EF93FF93E0910802F091090219958F
:10164000FF91EF91BF91AF919F918F917F916F919A
:101650005F914F913F912F910F900BBE0F900FBE56
:101660000F901F9018951F920F920FB60F92112492
:101670000BB60F922F933F934F935F936F937F938C
:101680008F939F93AF93BF93EF93FF93E0910602E5
:10169000F09107021995FF91EF91BF91AF919F9142
:1016A0008F917F916F915F914F913F912F910F900B
:1016B0000BBE0F900FBE0F901F9018951F920F92A8
:1016C0000FB60F9211240BB60F922F933F934F93A7
:1016D0005F936F937F938F939F93AF93BF93EF939A
:1016E000FF93E0910402F09105021995FF91EF91AB
:1016F000BF91AF919F918F917F916F915F914F912A
:101700003F912F910F900BBE0F900FBE0F901F9027
:1017100018951F920F920FB60F9211240BB60F92CD
:101720002F933F934F935F936F937F938F939F93E9
:10173000AF93BF93EF93FF9387E694E00E94BC04BE
:10174000FF91EF91BF91AF919F918F917F916F9199
:101750005F914F913F912F910F900BBE0F900FBE55
:101760000F901F9018951F920F920FB60F92112491
:101770000BB60F922F938F939F93EF93FF93E0916C
:101780007704F09178048081E0917D04F0917E04EB
:1017900082FD1DC09081809180048F5F8F732091A6
:1017A0008104821741F0E0918004F0E0E959FB4F99
:1017B000958F80938004FF91EF919F918F912F914E
:1017C0000F900BBE0F900FBE0F901F901895808149
:1017D000F2CF1F920F920FB60F9211240BB60F92F9
:1017E0002F933F934F935F936F937F938F939F9329
:1017F000AF93BF93EF93FF938091B900887F8036BA
:1018000009F44DC008F040C0883209F4A9C028F599
:10181000803109F49DC0C8F4882309F4FBC08830E6
:1018200009F496C0FF91EF91BF91AF919F918F9175
:101830007F916F915F914F913F912F910F900BBED0
:101840000F900FBE0F901F901895883109F488C033
:10185000803241F78093180414C0803409F49DC08D
:1018600040F48033B9F38833E9F68093180485ECAB
:10187000B0C0803509F485C0883509F496C0883435
:1018800089F60E945909CECF883909F48CC038F501
:10189000883729F050F4883611F0803719F683E044
:1018A00080931A041092F30357C0883809F47BC060
:1018B000803919F0803809F0B5CF8091F303803278
:1018C00008F071C0E091F30381E08E0F8093F30381
:1018D0008091BB00F0E0ED52FC4F80833DC0803B27
:1018E00039F0E0F4803A09F479C0883A09F09ACFE7
:1018F00084E080931A041092D2031092D103E091F5
:101900004404F091450419958091D10381110FC0D1
:1019100081E08093D1031092B10309C0803C09F4A7
:10192000A6CF883C09F4A3CF883B09F07BCFE09198
:10193000D20381E08E0F8093D203F0E0EF54FC4F8E
:1019400080818093BB009091D2038091D10329C004
:101950008091F5038093BB0085EC8093BC0062CF3F
:101960009091170480911604981758F5E091170488
:1019700081E08E0F80931704F0E0EA50FC4F8081E5
:10198000E9CFE091170481E08E0F809317048091D6
:10199000BB00F0E0EA50FC4F8083909117048091E7
:1019A00016049817C8F285E8D8CFE091170481E0B3
:1019B0008E0F809317048091BB00F0E0EA50FC4F3B
:1019C00080838091190481115CCF81E08093F403BE
:1019D00084EA8093BC0010921A0424CF85EC809393
:1019E000BC0010921A048091F303803230F4E0912D
:1019F000F303F0E0ED52FC4F10826091F30370E0CE
:101A0000E0914204F091430483ED93E01995109224
:101A1000F30308CF1092180434CFCF92DF92EF92E5
:101A2000FF920F931F93E82FF92F05C00150110962
:101A30002109310961F1908196239417B9F305C00A
:101A4000015011092109310911F190819623941354
:101A5000F7CFC12CD12CE12CF12C0AC08FEFC81A82
:101A6000D80AE80AF80A0C151D052E053F0579F07D
:101A700080818623841791F36C2D7D2D8E2D9F2DD3
:101A80001F910F91FF90EF90DF90CF90089560E04D
:101A900070E080E090E01F910F91FF90EF90DF9059
:101AA000CF900895E7E6F4E01382128288EE93E087
:101AB000A0E0B0E084839583A683B7832CE132E075
:101AC0003183208325EC30E03587248724EC30E017
:101AD0003787268720EC30E0318B208B21EC30E0FB
:101AE000338B228B22EC30E0358B248B26EC30E0DC
:101AF000378B268B118E128E138E148EE4E0F5E058
:101B00001382128284839583A683B7838EE292E048
:101B100091838083ADE1B5E08DE015968C931597A8
:101B20008BE016968C931697E7E6F2E0E491179611
:101B3000EC931797E1E2F2E0E4911896EC93189792
:101B400040E85EE360E070E01D964D935D936D9319
:101B50007C935097E0E1F5E01382128280E492E0FA
:101B600091838083118687E2848380E1828782E08B
:101B7000838714860895CF93DF93CDB7DEB7E097C0
:101B80000FB6F894DEBF0FBECDBF789484B58260E7
:101B900084BD84B5816084BD85B5826085BD85B511
:101BA000816085BD80916E00816080936E0010928F
:101BB000810080918100826080938100809181000A
:101BC000816080938100809180008160809380009B
:101BD0008091B10084608093B1008091B0008160F9
:101BE0008093B000809191008260809391008091F9
:101BF000910081608093910080919000816080933A
:101C000090008091A10082608093A1008091A1004A
:101C100081608093A1008091A00081608093A000EA
:101C20008091210182608093210180912101816056
:101C30008093210180912001816080932001809117
:101C40007A00846080937A0080917A008260809329
:101C50007A0080917A00816080937A0080917A0086
:101C6000806880937A001092C100E0917704F0912F
:101C7000780482E08083E0917304F0917404108210
:101C8000E0917504F09176048FEC808310927F04CC
:101C9000E0917B04F0917C0486E08083E0917904FC
:101CA000F0917A04808180618083E0917904F091E1
:101CB0007A04808188608083E0917904F0917A04CD
:101CC000808180688083E0917904F0917A0480813A
:101CD0008F7D808362E0809122050E947A022FB777
:101CE000F8948091630490916404A0916504B0918C
:101CF00066042FBF805D9740A109B1098093260536
:101D000090932705A0932805B093290587E3809336
:101D10002F0561E08CE00E947A0260E08BE00E9477
:101D20007A0260E087E00E947A0260E086E00E942A
:101D30007A0260E084E00E947A0260E085E00E941E
:101D40007A0260E083E00E947A0260E082E00E9412
:101D50007A0283E394E090930302809302028091DD
:101D60006A00837F886080936A00ED9A8CE394E038
:101D7000909301028093000280916A008C7F8260C0
:101D800080936A00EC9A10924904109248041092D1
:101D90004704109246040E94A40585E494E09093C1
:101DA00045048093440486E494E090934304809334
:101DB00042041092150580911B05823018F098E0BE
:101DC000909315058093180562E370E080E090E041
:101DD0000E94F20260911C0580E195E00E94690674
:101DE00068EE73E080E090E00E94F20260E380E140
:101DF00095E00E9453070BE416E4C8010197F1F740
:101E000060E380E195E00E945307C8010197F1F774
:101E100060E380E195E00E94530783E592E001973B
:101E2000F1F760E280E195E00E94530760911505AB
:101E3000606240E080E195E00E946C0784E080935E
:101E4000160540E06CE080E195E00E946C070E947E
:101E5000B40782E08093170540E066E080E195E0FA
:101E60000E946C0740E062E080E195E00E946C0710
:101E70008BE39FE10197F1F788E080931C0560E018
:101E800080E195E00E94690667E572E080E195E0F7
:101E90000E94570960ED77E080E090E00E94F20236
:101EA00023E2222E312C0E94B40764E672E080E126
:101EB00095E00E9457090E942403882349F08091ED
:101EC00023058B3028F08D3040F085518230C0F1F1
:101ED00060E070E080EC9FE71CC060911E0570E040
:101EE00090E080E00E9486142DEC3CEC4CEC5DE32D
:101EF0000E943B156B017C0160911D0570E090E034
:101F000080E00E9486149B01AC01C701B6010E94CB
:101F10006B130E944E1470935D0460935C040E94E6
:101F20002403882341F0809123058C3009F4FFC0FD
:101F3000C8F48B3091F160E070E080EC9FE755C011
:101F400060911D0570911E0576276727762790E022
:101F500080E00E9484142DEC3CEC4CEC5DE30E948C
:101F60003B15D7CF8551823030F7F0901F056F2D8C
:101F700070E0762F662766277F7780912005682B93
:101F800090E080E00E9484142DEC3CEC4CEC5DE38E
:101F90000E943B15F7FE29C0E8C060911F0570E064
:101FA00090E080E00E9484146B017C011091200578
:101FB00017FF0AC0AC019B0160E070E080E89FEB76
:101FC0000E946A136B017C011F70612F70E090E02A
:101FD00080E00E9486142DEC3CEC4CEC5DE30E940A
:101FE0003B15A70196010E946B130E944E1470933B
:101FF0005B0460935A0486E30E94B60290935904EE
:102000008093580487E30E94B6029093570480930C
:10201000560461E08CE00E944C02C1010197F1F787
:1020200060E08CE00E944C02E5E6F2E06491EFE1B2
:10203000F2E0E491F0E0EE0FFF1FE650FE4F8591D5
:10204000949100E412E42FE030E0462F0E940D0D41
:102050004B015C0181149104A104B10439F08FEFAC
:10206000881A980AA80AB80A9FE0B92287E00E9455
:1020700023027C01909355048093540486E00E94CF
:1020800023026C01909353048093520484E00E94D5
:1020900023023C01909351048093500485E00E94F8
:1020A00023022C0160915C0470915D04072E000CEA
:1020B000880B990B0E94861469A77AA78BA79CA707
:1020C0009B01AC010E94A815811114C060915A04B3
:1020D00070915B04072E000C880B990B0E948614EC
:1020E0006DA77EA78FA798AB9B01AC010E94A81596
:1020F0008823E9F160E772E087E694E00E944309F3
:1021000060E080E00E94830763E872E080E195E090
:102110000E94430961E080E00E94830760E972E069
:1021200080E195E00E9443090E944B05BCCE1091CE
:102130001F05612F70E090E080E00E9484146B0125
:102140007C01609120056F7070E090E080E00E945B
:1021500086142DEC3CEC4CEC5DE30E943B15A70192
:1021600096010E946B1317FF40CF90583ECFEA9420
:10217000EF2809F053C00E94B40781E080934F0418
:1021800062E370E080E090E00E94F20280914F04F0
:10219000882309F45FC060E080E00E9483076EE955
:1021A00072E080E195E00E94570960E085E00E94BE
:1021B000830780915C0490915D040E94460863EA65
:1021C00072E080E195E00E94570961E080E00E94A2
:1021D000830767EA72E080E195E00E94570961E0B9
:1021E00085E00E94830780915A0490915B040E94CD
:1021F00046086CEA72E080E195E00E94570960EDC4
:1022000077E080E090E00E94F20210924F0464E8D0
:1022100073E080E090E00E94F20286CFCA94CD285D
:1022200031F40E94B40781E080934E04A9CF6A94F0
:10223000672831F40E94B40781E080934D04A0CF59
:102240004A94452809F0A2CF0E94B40781E0809308
:102250004C0496CF80914E04882319F160E080E011
:102260000E9483076FEA72E080E195E00E945709BF
:1022700060E084E00E9483078091560490915704A7
:102280000E94460864EB72E080E195E00E945709E5
:1022900060ED77E080E090E00E94F20210924E0440
:1022A000B6CF80914D04882339F160E080E00E9430
:1022B00083076AEB72E080E195E00E94570960E0D5
:1022C00085E00E94830780915804909159040E94F0
:1022D000460860E089E00E94830766E873E080E1D9
:1022E00095E00E94570960ED77E080E090E00E9461
:1022F000F20210924D048BCFC501B4012BE330E004
:1023000040E050E00E94CF1569017A0180914C04B1
:10231000882321F160E080E00E9483076FEB72E088
:1023200080E195E00E94570960E085E00E94830704
:102330002AE0B701A60180E195E00E94DC0764EC89
:1023400072E080E195E00E94570960ED77E080E05F
:1023500090E00E94F20210924C0459CF80914B04FD
:10236000882309F480C06091580470915904072EA5
:10237000000C880B990B0E9486144B015C01609144
:10238000560470915704072E000C880B990B0E947D
:1023900086142B013C01C701B6010E948614698B8B
:1023A0007A8B8B8B9C8B4D865E866F86788A89862E
:1023B0009A86AB86BC868DA59EA5AFA5B8A98D8350
:1023C0009E83AF83B88789A59AA5ABA5BCA5898351
:1023D0009A83AB83BC83BE016F5E7F4F90E080E049
:1023E0000E94B709BE01635F7F4F84E090E00E94C6
:1023F000B709BE01675F7F4F88E090E00E94B70990
:10240000BE016B5F7F4F8CE090E00E94B709BE0178
:102410006F5F7F4F80E190E00E94B70968EC72E047
:1024200087E694E00E9457090E94B40760E080E0CC
:102430000E94830766EE72E080E195E00E945709F2
:1024400061E080E00E9483076CEE72E080E195E03D
:102450000E94570910924B0468EE73E080E090E010
:102460000E94F202D4CE80914A04882309F4CFCE90
:10247000BE016B5D7F4F90E080E00E949109BE013C
:102480006F5D7F4F84E090E00E949109BE01635E22
:102490007F4F88E090E00E949109BE01675E7F4F08
:1024A0008CE090E00E949109BE016B5E7F4F80E15D
:1024B00090E00E94910969EF72E087E694E00E9443
:1024C00057094DA15EA16FA178A522E087E694E0AF
:1024D0000E94550864EC72E087E694E00E9443098C
:1024E00060E173E087E694E00E94570949A15AA190
:1024F0006BA17CA122E087E694E00E94550864E588
:1025000072E087E694E00E94CD0769E273E087E617
:1025100094E00E9457094D8D5E8D6F8D78A122E069
:1025200087E694E00E94550864E572E087E694E04F
:102530000E94CD076AE373E087E694E00E945709A2
:10254000498D5A8D6B8D7C8D22E087E694E00E9448
:1025500055086CEA72E087E694E00E94430963E55F
:1025600073E087E694E00E9457094D895E896F8980
:10257000788D22E087E694E00E94550868E673E0D3
:1025800087E694E00E9443090E94B40760E080E07F
:102590000E9483076BE673E080E195E00E94570993
:1025A000498D5A8D6B8D7C8D22E080E195E00E94F3
:1025B00055086CEA72E080E195E00E94570961E0FD
:1025C00080E00E94830762E773E080E195E00E946B
:1025D00057094D895E896F89788D22E080E195E009
:1025E0000E94550868E673E080E195E00E94570973
:1025F00068E873E180E090E00E94F2020E94B40774
:1026000060E080E00E94830768E773E080E195E086
:102610000E9457094DA15EA16FA178A522E080E13B
:1026200095E00E94550864EC72E080E195E00E941C
:10263000570961E080E00E9483076FE773E080E163
:1026400095E00E9457094D8D5E8D6F8D78A122E037
:1026500080E195E00E94550865E873E080E195E02F
:102660000E94570968E873E180E090E00E94F2025E
:102670000E94B40760E080E00E9483076AE873E08C
:1026800080E195E00E94570949A15AA16BA17CA164
:1026900022E080E195E00E94550810924A0460ED26
:1026A00077E080E090E0DCCEF999FECF92BD81BD6D
:1026B000F89A992780B50895262FF999FECF1FBA69
:1026C00092BD81BD20BD0FB6F894FA9AF99A0FBE5B
:1026D000019608955058BB27AA270E9482130C9494
:1026E000FC140E94EE1438F00E94F51420F039F426
:1026F0009F3F19F426F40C94EB140EF4E095E7FBDD
:102700000C94E514E92F0E940D1558F3BA176207CF
:1027100073078407950720F079F4A6F50C942F151C
:102720000EF4E0950B2EBA2FA02D0B01B9019001EC
:102730000C01CA01A0011124FF27591B99F0593F30
:1027400050F4503E68F11A16F040A22F232F342F78
:102750004427585FF3CF469537952795A795F040C6
:102760005395C9F77EF41F16BA0B620B730B840BDB
:10277000BAF09150A1F0FF0FBB1F661F771F881F93
:10278000C2F70EC0BA0F621F731F841F48F48795EB
:1027900077956795B795F7959E3F08F0B0CF9395DD
:1027A000880F08F09927EE0F9795879508950E9456
:1027B000C11408F481E008950E94F0130C94FC14F5
:1027C0000E94F51458F00E94EE1440F029F45F3F87
:1027D00029F00C94E51451110C9430150C94EB1461
:1027E0000E940D1568F39923B1F3552391F3951BBE
:1027F000550BBB27AA2762177307840738F09F5F22
:102800005F4F220F331F441FAA1FA9F335D00E2E8E
:102810003AF0E0E832D091505040E695001CCAF7FB
:102820002BD0FE2F29D0660F771F881FBB1F2617BE
:1028300037074807AB07B0E809F0BB0B802DBF0195
:10284000FF2793585F4F3AF09E3F510578F00C9464
:10285000E5140C9430155F3FE4F3983ED4F386956D
:1028600077956795B795F7959F5FC9F7880F911D85
:102870009695879597F90895E1E0660F771F881F71
:10288000BB1F621773078407BA0720F0621B730B24
:10289000840BBA0BEE1F88F7E09508950E9455143B
:1028A0006894B1110C94301508950E94151588F0A4
:1028B0009F5798F0B92F9927B751B0F0E1F0660F04
:1028C000771F881F991F1AF0BA95C9F714C0B13045
:1028D00091F00E942F15B1E008950C942F15672FE9
:1028E000782F8827B85F39F0B93FCCF38695779574
:1028F0006795B395D9F73EF490958095709561955D
:102900007F4F8F4F9F4F0895E89409C097FB3EF487
:1029100090958095709561957F4F8F4F9F4F99232C
:10292000A9F0F92F96E9BB279395F69587957795AA
:102930006795B795F111F8CFFAF4BB0F11F460FF6A
:102940001BC06F5F7F4F8F4F9F4F16C0882311F0C2
:1029500096E911C0772321F09EE8872F762F05C0D6
:10296000662371F096E8862F70E060E02AF09A9571
:10297000660F771F881FDAF7880F9695879597F966
:102980000895990F0008550FAA0BE0E8FEEF161600
:102990001706E807F907C0F012161306E407F50753
:1029A00098F0621B730B840B950B39F40A2661F0C7
:1029B000232B242B252B21F408950A2609F4A1406A
:1029C000A6958FEF811D811D089597F99F6780E877
:1029D00070E060E008959FEF80EC089500240A9471
:1029E0001616170618060906089500240A941216EA
:1029F0001306140605060895092E0394000C11F41D
:102A0000882352F0BB0F40F4BF2B11F460FF04C0C9
:102A10006F5F7F4F8F4F9F4F089557FD9058440F22
:102A2000551F59F05F3F71F04795880F97FB991F2D
:102A300061F09F3F79F087950895121613061406EA
:102A4000551FF2CF4695F1DF08C016161706180677
:102A5000991FF1CF86957105610508940895E89452
:102A6000BB2766277727CB0197F908950E94C114E9
:102A700008F48FEF08950E944E150C94FC140E94E8
:102A8000EE1438F00E94F51420F0952311F00C9408
:102A9000E5140C94EB1411240C9430150E940D15C0
:102AA00070F3959FC1F3950F50E0551F629FF001A1
:102AB000729FBB27F00DB11D639FAA27F00DB11DBA
:102AC000AA1F649F6627B00DA11D661F829F222743
:102AD000B00DA11D621F739FB00DA11D621F839FCA
:102AE000A00D611D221F749F3327A00D611D231FA0
:102AF000849F600D211D822F762F6A2F11249F57EE
:102B000050409AF0F1F088234AF0EE0FFF1FBB1FF0
:102B1000661F771F881F91505040A9F79E3F5105AF
:102B200080F00C94E5140C9430155F3FE4F3983E6C
:102B3000D4F3869577956795B795F795E7959F5F59
:102B4000C1F7FE2B880F911D9695879597F90895EB
:102B50000E94C114880B990B0895A1E21A2EAA1B9A
:102B6000BB1BFD010DC0AA1FBB1FEE1FFF1FA2173D
:102B7000B307E407F50720F0A21BB30BE40BF50B3A
:102B8000661F771F881F991F1A9469F760957095C3
:102B9000809590959B01AC01BD01CF010895052E54
:102BA00097FB1EF400940E94E61557FD07D00E9483
:102BB000AD1507FC03D04EF40C94E61550954095E6
:102BC000309521953F4F4F4F5F4F089590958095D9
:102BD000709561957F4F8F4F9F4F0895EE0FFF1FA8
:102BE000881F8BBF0790F691E02D1994F894FFCFC2
:102BF000470447044704470447044704470447047D
:102C0000000040001400540000000000DE044804EE
:102C100075042B05A60484049804000000003A06FD
:102C20000D065007E3050606F305E4050000000065
:102C3000C707480450077C056E616E00696E660028
:102C40006F7666000D0A00414345322047525550C9
:102C50004F2037004269656E76656E69646F2E009D
:102C60004572726F7220656E20656C2073656E739D
:102C70006F720053656E736F72204D5131333500A2
:102C80006E6F20656E636F6E747261646F0048557D
:102C90004D3A002025200054454D3A002043004C79
:102CA000554D3A0020206C756D00434F323A004478
:102CB00049533A0020636D004461746F7320616C66
:102CC0006D6163656E61646F7320656E206D656D07
:102CD0006F7269612E004461746F7300616C6D6185
:102CE00063656E61646F732E0044697374616E6313
:102CF000696120616C6D6163656E6164613A200099
:102D00004C756D696E6F736964616420616C6D618F
:102D100063656E6164613A2000434F3220616C6DDF
:102D20006163656E6164613A200054656D7065721F
:102D3000617475726120616C6D6163656E6164615F
:102D40003A200048756D6564616420616C6D616353
:102D5000656E6164613A200020250054656D703A0B
:102D6000200048756D3A2000446973743A2000438E
:102D70004F323A20002070706D004C757A3A200076
:00000001FF
