:020000040000FA
:100000000C9451010C94660B0C943B0B0C94100B4C
:100010000C94E50A0C94BA0A0C948F0A0C94640AA6
:100020000C94390A0C9482010C9482010C94820184
:100030000C9482010C9482010C9482010C94820134
:100040000C9482010C9482010C9482010C94820124
:100050000C9482010C9482010C9482010C94EF099F
:100060000C9482010C94BB0B0C94910B0C948201A8
:100070000C9482010C9482010C9482010C948201F4
:100080000C9482010C9482010C9482010C948201E4
:100090000C9482010C9482010C9482010C94F10B5B
:1000A0000C9482010C9482010C9482010C948201C4
:1000B0000C9482010C9482010C9482010C948201B4
:1000C0000C9482010C9482010C9482010C948201A4
:1000D0000C9482010C9482010C9482010C94820194
:1000E0000C9482010C9433040C941A020C94FA05BB
:1000F0000C948B040C945A0D0C9445040C944704F6
:100100000C9457070C9411020C9483050C944F0423
:100110000C9446040C949F040C941F020C94EA0562
:100120000C94EC010C940D060C9414060C94AD0484
:100130000C9432050C9403020C94F5010C940D02FE
:100140000C94E5040C94F9010C94EB050C94DA0181
:100150000C947C040C94EF010C94FF010C94150298
:100160000C94E4010C94E8010C94CE070C941B024F
:100170000C9441060C94E0010C943C040C9407028E
:1001800000002100240027002A002D003000330049
:1001900001010000040107010A01000022002500FE
:1001A00028002B002E003100340002010000050160
:1001B00008010B0100000A0B02090C0D0E080703D1
:1001C000040100000000000000000000000000002A
:1001D000000000000000000000000000000000001F
:1001E00012111000000000000000000000000000DC
:1001F00000000000000000000000000020002300BC
:10020000260029002C002F0032000001000003010D
:100210000601090105050505070508080808020289
:1002200002020A0A08080404040401010101010190
:1002300001010303030303030303040707070C0C73
:100240000C0C0C0C0C0C020202020606060606063A
:1002500006060B0B0B0B0B0B0B0B010210202008DF
:100260000810204010204080020102010804020111
:100270000102040810204080804020100804020180
:1002800080040201804020100804020108040201D9
:100290000102040810204080010204081020408060
:1002A0005A0D11241FBECFEFD1E2DEBFCDBF00E05B
:1002B0000CBF13E0A0E0B2E0E4E7FBE200E00BBF1C
:1002C00002C007900D92A83AB107D9F725E0A8EA35
:1002D000B3E001C01D92A834B207E1F711E0C1E517
:1002E000D1E000E006C021970109802FFE010E94A5
:1002F000B015C035D10780E00807A9F70E94C30DEB
:100300000C94B8150C940000CF92DF92EF92FF92FC
:10031000CF93DF93B0913C05A0E08111AB2F80918A
:100320003D0590E0880F991FAC0146505E4FC0908C
:100330004205D0904305E0904405F090450530E03B
:1003400020E0FA01C591D491E881B90190E080E004
:10035000EB23EA130AC02F5F3F4F6C157D058E0516
:100360009F0578F36FEF7FEFCB01DF91CF91FF9087
:10037000EF90DF90CF9008958150823108F05AC0FD
:10038000E82FF0E08827E853FE4F8F4F0C94B0150C
:10039000E801EC01DA01E001E4011A02EF01F501E4
:1003A000F901FF01030207020D0211021A021502F0
:1003B0001B021F02809180008F7780938000089538
:1003C000809180008F7DF9CF80918000877FF5CF6D
:1003D00084B58F7784BD089584B58F7DFBCF8091E0
:1003E000B0008F778093B00008958091B0008F7D2A
:1003F000F9CF809190008F7780939000089580913D
:1004000090008F7DF9CF80919000877FF5CF80910C
:10041000A0008F778093A00008958091A0008F7D29
:10042000F9CF8091A000877FF5CF809120018F7751
:10043000809320010895809120018F7DF9CF8091D4
:100440002001877FF5CFCF93DF93282F30E0F9018C
:10045000EC54FE4F8491F901E65AFD4FD491F90115
:10046000EC5EFD4FC491CC23A1F081110E94BC0130
:10047000EC2FF0E0EE0FFF1FE650FE4FA591B49178
:10048000EC91ED2381E090E009F480E0DF91CF91E1
:10049000089580E090E0FACF1F93CF93DF93282F49
:1004A00030E0F901EC54FE4F8491F901E65AFD4F1A
:1004B000D491F901EC5EFD4FC491CC23A9F0162F25
:1004C00081110E94BC01EC2FF0E0EE0FFF1FE656F9
:1004D000FE4FA591B4918FB7F894EC91111108C01B
:1004E000D095DE23DC938FBFDF91CF911F910895CC
:1004F000DE2BF8CFCF93DF9390E0FC01E65AFD4F5F
:1005000024918C5E9D4FFC0184918823C9F090E07A
:10051000880F991FFC01E058FE4FA591B491FC0192
:10052000E656FE4FC591D49161110DC09FB7F89466
:100530008C91209582238C938881282328839FBFC8
:10054000DF91CF910895623051F49FB7F8943C91B8
:10055000822F809583238C93E8812E2BEFCF8FB74A
:10056000F894EC912E2B2C938FBFEACF90917B00C7
:10057000977F90937B008653806480937C0080916A
:100580007A00806480937A0080917A0086FDFCCFA7
:10059000809178009091790008953FB7F894809108
:1005A000770490917804A0917904B0917A0426B5EB
:1005B000A89B05C02F3F19F00196A11DB11D3FBF9B
:1005C000BA2FA92F982F8827BC01CD01620F711D6A
:1005D000811D911D42E0660F771F881F991F4A9564
:1005E000D1F708958F929F92AF92BF92CF92DF92F0
:1005F000EF92FF924B015C010E94CD026B017C01E6
:100600000E94CD026C197D098E099F09683E7340D6
:1006100081059105A8F321E0821A9108A108B1088B
:1006200088EEC80E83E0D81EE11CF11C81149104F1
:10063000A104B10429F7FF90EF90DF90CF90BF9015
:10064000AF909F908F900895CF92DF92EF92FF929C
:100650000F931F93CF93DF93CDB7DEB7C054D14034
:100660000FB6F894DEBF0FBECDBF2FB7F8948091C0
:100670007B0490917C04A0917D04B0917E042FBFF7
:1006800040913E0550913F056091400570914105B4
:100690008C019D01041B150B260B370BB901A8011A
:1006A000403D57406105710590F480914605C05C5E
:1006B000DE4F0FB6F894DEBF0FBECDBFDF91CF91F6
:1006C0001F910F91FF90EF90DF90CF90089580934E
:1006D0003E0590933F05A0934005B09341051092CD
:1006E0003905109238051092370510923605109290
:1006F000350562E080913A050E947A0261E070E07F
:1007000080E090E00E94F20261E080913A050E9450
:100710007A0260E080913A050E944C0280913B058C
:100720008551823020F58BE291E10197F1F762E08B
:1007300080913A050E947A028091470590E08230CC
:10074000910538F0880F991F880F991F0597019719
:10075000F1F7F89480E00E9484016F3F7F4F8F4F44
:100760009F4F61F410924605789480E0A0CF64E139
:1007700070E080E090E00E94F202D9CF81E00E9418
:1007800084016F3F7F4F8F4F9F4F61F38E010F5F4B
:100790001F4F6E018FEBC81A8EEFD80A780180E0E8
:1007A0000E948401F701608371838283938381E0D7
:1007B0000E948401F7016483758386839783F8E040
:1007C000EF0EF11CEC14FD0451F7789430E020E0BA
:1007D000F801C080D180E280F38044815581668138
:1007E0007781FFEFCF16DF06EF06FF0631F04F3FB0
:1007F0008FEF58076807780719F410924605B5CFB0
:10080000F90183E0F595E7958A95E1F7EB5CFA4FFE
:100810008081880FC416D506E606F70610F180839E
:100820002F5F3F4F085F1F4F2832310589F64091F7
:1008300039052091350580913605280F3327331F60
:1008400080913705280F311D80913805820F932F35
:10085000911D99274817190681F681E08093460576
:1008600026CF8160DCCF81E08093630462E370E097
:1008700080E090E00C94F20281E08093620462E3F5
:1008800070E080E090E00C94F202089508950895DD
:10089000DC01ED91FC910190F081E02D1994AF9273
:1008A000BF92CF92DF92EF92FF920F931F93CF935D
:1008B000DF936C017B018B01040F151FEB015E01BF
:1008C000AE18BF08C017D10759F06991D601ED9154
:1008D000FC910190F081E02DC6011995892B79F7E3
:1008E000C501DF91CF911F910F91FF90EF90DF90A5
:1008F000CF90BF90AF900895FC01538D448D252F6C
:1009000030E0842F90E0821B930B541710F0CF96A9
:10091000089501970895FC01918D828D981761F0DB
:10092000A28DAE0FBF2FB11D5D968C91928D9F5FF2
:100930009F73928F90E008958FEF9FEF0895FC01D1
:10094000918D828D981731F0828DE80FF11D858D84
:1009500090E008958FEF9FEF0895FC01918D228D17
:10096000892F90E0805C9F4F821B91098F7399279C
:1009700008958FE794E00E94AD0421E0892B09F4EB
:1009800020E0822F0895FC01A48DA80FB92FB11D7E
:10099000A35ABF4F2C91848D90E001968F739927B5
:1009A000848FA689B7892C93A089B1898C91837093
:1009B00080648C93938D848D981306C00288F3898C
:1009C000E02D80818F7D80830895EF92FF920F93B9
:1009D0001F93CF93DF93EC0181E0888F9B8D8C8DEB
:1009E00098131AC0E889F989808185FF15C09FB7DF
:1009F000F894EE89FF896083E889F98980818370A2
:100A0000806480839FBF81E090E0DF91CF911F9150
:100A10000F91FF90EF900895F62E0B8D10E00F5F71
:100A20001F4F0F731127E02E8C8D8E110CC00FB647
:100A300007FCFACFE889F989808185FFF5CFCE01DF
:100A40000E94C304F1CFEB8DEC0FFD2FF11DE35A93
:100A5000FF4FF0829FB7F8940B8FEA89FB89808162
:100A60008062CFCFCF93DF93EC01888D8823B9F0DC
:100A7000AA89BB89E889F9898C9185FD03C08081A9
:100A800086FD0DC00FB607FCF7CF8C9185FFF2CF26
:100A9000808185FFEDCFCE010E94C304E9CFDF91B5
:100AA000CF91089580E090E0892B29F00E94B9044D
:100AB00081110E94000080E090E0892B49F080E0E5
:100AC00090E0892B29F00E94000081110E94000013
:100AD00080E090E0892B49F080E090E0892B29F0BC
:100AE0000E94000081110E94000080E090E0892BAC
:100AF00049F080E090E0892B29F00E9400008111EC
:100B00000C940000089508952091E903260F3327DF
:100B1000331F21323105ECF420913204FC0190E0C6
:100B200080E0243069F082E00895A091E9032191EA
:100B3000AC0147535C4FA40FB52FB11D2C93019608
:100B4000861798F38091E903680F6093E90380E0CA
:100B5000089581E008951092320481E08093310479
:100B600010920C0461E084E10E944C0261E085E196
:100B70000E944C02E9EBF0E080818E7F80838081CF
:100B80008D7F808388E48093B80085E48093BC00E7
:100B90000895CF93DF9391E09093C8038823B9F031
:100BA000C091B800D091BA008091BC008A7B80933C
:100BB000BC0060E084E10E944C0260E085E10E949C
:100BC0004C020E94AB05D093BA00C093B800DF91ED
:100BD000CF9108950895E091610480916004E81731
:100BE00030F4F0E0E855FC4F808190E008958FEFFD
:100BF0009FEF089590916104809160042FEF3FEF83
:100C0000981748F4E92FF0E0E855FC4F208130E0D8
:100C10009F5F90936104C901089580916004909151
:100C20006104891B990B0895CF92DF92EF92FF9296
:100C30000F931F93CF93DF937C01CB018A01209107
:100C40003804222389F0EB016B01C40ED51ECC15AC
:100C5000DD0569F06991D701ED91FC910190F0817A
:100C6000E02DC7011995F3CF642F0E948405C801B8
:100C7000DF91CF911F910F91FF90EF90DF90CF9078
:100C80000895CF93DF931F92CDB7DEB7698320918C
:100C900038042223F9F020915E04203258F021E03C
:100CA00030E0FC013383228390E080E00F90DF91FD
:100CB000CF91089580915F04E82FF0E0E75CFB4F4F
:100CC000998190838F5F80935F0480935E0481E0BD
:100CD00090E0ECCF61E0CE0101960E948405F7CF51
:100CE000CF92DF92EF92FF920F931F93CF93DF93F8
:100CF000FC01C48121E020933804C0935904109270
:100D00005F0410925E048485682B8CE195E00E945C
:100D10004106D0915E04D13208F092C00E94CD020B
:100D20006B017C0180913204811165C082E0809367
:100D3000320481E0809331048FEF8093300410926D
:100D40002F04D0932E04A9E3B4E0EEE0F4E080E0B9
:100D5000D81385C010920D0480910D04CC0FC82BC0
:100D6000C0930D0480910C04813009F07CC0109276
:100D70000C040E94CD026B017C0180910D048093D4
:100D8000BB008091340490913504A0913604B09159
:100D90003704892B8A2B8B2B99F00E94CD0200916E
:100DA00034041091350420913604309137046C19C5
:100DB0007D098E099F090617170728073907E0F1F3
:100DC0008091BC0083FDD9CF85EC8093BC000E944C
:100DD000CD026B017C0180913204823009F445C060
:100DE000809130048F3F61F180913004803241F175
:100DF0008091300425C08091340490913504A091F5
:100E00003604B0913704892B8A2B8B2B09F48ACFB7
:100E10000E94CD02009134041091350420913604D3
:100E2000309137046C197D098E099F090617170741
:100E30002807390708F076CF809133040E94C9054E
:100E400010925F0410925E0410923804DF91CF91EB
:100E50001F910F91FF90EF90DF90CF9008959D919B
:100E600091938F5F75CF85EEB0CF809134049091D0
:100E70003504A0913604B0913704892B8A2B8B2B33
:100E800009F4A9CF0E94CD020091340410913504D9
:100E900020913604309137046C197D098E099F0921
:100EA000061717072807390708F095CFC5CF90E038
:100EB00080E008950F931F93CF938C01C62F0E945B
:100EC00070066C2F6460C8010E9470066C2F6B7FE7
:100ED000C8010E94700683EC90E00197F1F7CF9172
:100EE0001F910F9108950F931F93CF93DF938C0160
:100EF000D62FC42F607F642B0E945A0780E1D89FB1
:100F0000B00111246C2BC801DF91CF911F910F917B
:100F10000C945A07CF93DF9300D000D01F921F92FA
:100F2000CDB7DEB798E0E0E1F2E0DE011196019086
:100F30000D929A95E1F790913005961708F46FEFAE
:100F4000262F30E0220F331F41E050E04C0F5D1F91
:100F5000240F351FF9016081680F606840E088E266
:100F600095E028960FB6F894DEBF0FBECDBFDF9197
:100F7000CF910C94730740E061E088E295E00E9415
:100F800073078BE39FE10197F1F780913105882387
:100F900021F060E080E00C948A07089541E00E940F
:100FA000730781E090E00895FB0101900020E9F7CC
:100FB0003197AF01461B570BDC01ED91FC9102808C
:100FC000F381E02D19948F929F92AF92BF92EF928E
:100FD000FF920F931F93CF93DF93CDB7DEB7A19707
:100FE0000FB6F894DEBF0FBECDBF7C01FA01CB0176
:100FF00019A2223008F42AE08E010F5D1F4F822EC5
:10100000912CB12CA12CBF01A50194010E948E1539
:10101000F901CA016A300CF5605DD8016E938D014B
:10102000232B242B252B79F790E080E0109721F0DB
:10103000BD01C7010E94D407A1960FB6F894DEBF88
:101040000FBECDBFDF91CF911F910F91FF90EF9019
:10105000BF90AF909F908F900895695CDECFCF9244
:10106000DF92EF92FF920F931F93CF93DF936B0169
:10107000770FEE08FF08F7FE1BC0EC016DE20E943F
:1010800048048C0144275527BA014C195D096E09A3
:101090007F092AE0CE010E94E307800F911FDF91B4
:1010A000CF911F910F91FF90EF90DF90CF90089517
:1010B0002AE0B701A601DF91CF911F910F91FF9018
:1010C000EF90DF90CF900C94E3072F923F924F92D6
:1010D0005F926F927F928F929F92AF92BF92CF92C8
:1010E000DF92EF92FF921F93CF93DF93EC016A019F
:1010F0007B01722EAB019601CB01B6010E948915CE
:1011000068E472E0811126C046015701E894B7F8FF
:101110002FEF3FEF4FE75FE7C501B4010E9489154C
:1011200081110CC02FEF3FEF4FE75FE7C501B4011E
:101130000E94B8136CE472E0181664F02FEF3FEFD2
:101140004FE75FE4C701B6010E9417151816B4F403
:1011500060E572E0CE01DF91CF911F91FF90EF909B
:10116000DF90CF90BF90AF909F908F907F906F90C7
:101170005F904F903F902F900C94D4072FEF3FEF4C
:101180004FE75FECC701B6010E94B81387FDE0CFBF
:1011900020E030E0A901C701B6010E94B813312C4C
:1011A000212C87FF09C06DE2CE010E9448041C017A
:1011B000F7FAF094F7F8F09410E060E070E080E067
:1011C0009FE3711641F020E030E040E251E40E94DC
:1011D000BD131F5FF6CFA70196010E944C132B0190
:1011E0003C010E9436144B015C012AE0BC01A401C1
:1011F000CE010E94E3077C01E20CF31C1123C1F134
:10120000C501B4010E9465149B01AC01C301B20188
:101210000E944B134B015C016EE2CE010E94480418
:10122000E80EF91E115020F120E030E040E251E4D8
:10123000C501B4010E941C152B013C010E9436140B
:101240004B01B12CA12C2AE0B501A401CE010E94D2
:10125000E307E80EF91EC501B4010E9465149B0165
:10126000AC01C301B2010E944B134B015C01DACF08
:10127000C701DF91CF911F91FF90EF90DF90CF904A
:10128000BF90AF909F908F907F906F905F904F90A6
:101290003F902F9008950F931F93CF93DF93EC010E
:1012A0000E94D4078C0164E572E0CE010E94D4074D
:1012B000800F911FDF91CF911F910F9108950C9492
:1012C000D40785ED8093BC0080913404909135045F
:1012D000A0913604B09137040796A11DB11D23E0FB
:1012E000B695A795979587952A95D1F72091BC003B
:1012F00024FD03C0109232040895409134045091AB
:1013000035046091360470913704452B462B472BEA
:1013100069F30097A105B10541F02AE22A95F1F79A
:1013200000C00197A109B109E1CF809133040C9469
:10133000C905CF92DF92EF92FF920F931F93CF9345
:10134000DF93EB017B0124E0E20EF11C8B016C01C9
:10135000C61AD70AC601800F911F0E943513F801E3
:1013600081938F01EE15FF05A9F7CE01DF91CF9193
:101370001F910F91FF90EF90DF90CF9008959F9273
:10138000AF92BF92CF92DF92EF92FF920F931F9393
:10139000CF93DF935C017B018B01D0E0C0E0F801CB
:1013A00091908F016501CC0EDD1EC6010E943513A0
:1013B000981621F0692DC6010E943D132196C43074
:1013C000D10569F7C701DF91CF911F910F91FF9070
:1013D000EF90DF90CF90BF90AF909F9008951F92B5
:1013E0000F920FB60F9211242F933F938F939F93D9
:1013F000AF93BF9380917B0490917C04A0917D0476
:10140000B0917E043091760423E0230F2D3758F5F8
:101410000196A11DB11D2093760480937B049093C7
:101420007C04A0937D04B0937E0480917704909116
:101430007804A0917904B0917A040196A11DB11DA0
:101440008093770490937804A0937904B0937A04FE
:10145000BF91AF919F918F913F912F910F900FBEB0
:101460000F901F90189526E8230F0296A11DB11D1D
:10147000D2CF1F920F920FB60F9211240BB60F927C
:101480002F933F934F935F936F937F938F939F938C
:10149000AF93BF93EF93FF93E0910E02F0910F0291
:1014A0001995FF91EF91BF91AF919F918F917F918E
:1014B0006F915F914F913F912F910F900BBE0F90C5
:1014C0000FBE0F901F9018951F920F920FB60F929C
:1014D00011240BB60F922F933F934F935F936F930B
:1014E0007F938F939F93AF93BF93EF93FF93E0917D
:1014F0000C02F0910D021995FF91EF91BF91AF9100
:101500009F918F917F916F915F914F913F912F911B
:101510000F900BBE0F900FBE0F901F9018951F924B
:101520000F920FB60F9211240BB60F922F933F9389
:101530004F935F936F937F938F939F93AF93BF93DB
:10154000EF93FF93E0910202F09103021995FF914E
:10155000EF91BF91AF919F918F917F916F915F912B
:101560004F913F912F910F900BBE0F900FBE0F9098
:101570001F9018951F920F920FB60F9211240BB661
:101580000F922F933F934F935F936F937F938F931C
:101590009F93AF93BF93EF93FF93E0910002F0917D
:1015A00001021995FF91EF91BF91AF919F918F919A
:1015B0007F916F915F914F913F912F910F900BBE53
:1015C0000F900FBE0F901F9018951F920F920FB69D
:1015D0000F9211240BB60F922F933F934F935F936B
:1015E0006F937F938F939F93AF93BF93EF93FF93EB
:1015F000E0910A02F0910B021995FF91EF91BF91D2
:10160000AF919F918F917F916F915F914F913F919A
:101610002F910F900BBE0F900FBE0F901F9018953B
:101620001F920F920FB60F9211240BB60F922F93A9
:101630003F934F935F936F937F938F939F93AF935A
:10164000BF93EF93FF93E0910802F091090219957F
:10165000FF91EF91BF91AF919F918F917F916F918A
:101660005F914F913F912F910F900BBE0F900FBE46
:101670000F901F9018951F920F920FB60F92112482
:101680000BB60F922F933F934F935F936F937F937C
:101690008F939F93AF93BF93EF93FF93E0910602D5
:1016A000F09107021995FF91EF91BF91AF919F9132
:1016B0008F917F916F915F914F913F912F910F90FB
:1016C0000BBE0F900FBE0F901F9018951F920F9298
:1016D0000FB60F9211240BB60F922F933F934F9397
:1016E0005F936F937F938F939F93AF93BF93EF938A
:1016F000FF93E0910402F09105021995FF91EF919B
:10170000BF91AF919F918F917F916F915F914F9119
:101710003F912F910F900BBE0F900FBE0F901F9017
:1017200018951F920F920FB60F9211240BB60F92BD
:101730002F933F934F935F936F937F938F939F93D9
:10174000AF93BF93EF93FF938FE794E00E94C3049E
:10175000FF91EF91BF91AF919F918F917F916F9189
:101760005F914F913F912F910F900BBE0F900FBE45
:101770000F901F9018951F920F920FB60F92112481
:101780000BB60F922F938F939F93EF93FF93E0915C
:101790008F04F09190048081E0919504F09196047B
:1017A00082FD1DC09081809198048F5F8F7320917E
:1017B0009904821741F0E0919804F0E0E158FB4F62
:1017C000958F80939804FF91EF919F918F912F9126
:1017D0000F900BBE0F900FBE0F901F901895808139
:1017E000F2CF1F920F920FB60F9211240BB60F92E9
:1017F0002F933F934F935F936F937F938F939F9319
:10180000AF93BF93EF93FF938091B900887F8036A9
:1018100009F44DC008F040C0883209F4A9C028F589
:10182000803109F49DC0C8F4882309F4FBC08830D6
:1018300009F496C0FF91EF91BF91AF919F918F9165
:101840007F916F915F914F913F912F910F900BBEC0
:101850000F900FBE0F901F901895883109F488C023
:10186000803241F78093300414C0803409F49DC065
:1018700040F48033B9F38833E9F68093300485EC83
:10188000B0C0803509F485C0883509F496C0883425
:1018900089F60E946109CECF883909F48CC038F5E9
:1018A000883729F050F4883611F0803719F683E034
:1018B0008093320410920B0457C0883809F47BC01F
:1018C000803919F0803809F0B5CF80910B0480324F
:1018D00008F071C0E0910B0481E08E0F80930B043F
:1018E0008091BB00F0E0E551FC4F80833DC0803B20
:1018F00039F0E0F4803A09F479C0883A09F09ACFD7
:1019000084E0809332041092EA031092E903E0919C
:101910005C04F0915D0419958091E90381110FC079
:1019200081E08093E9031092C90309C0803C09F467
:10193000A6CF883C09F4A3CF883B09F07BCFE09188
:10194000EA0381E08E0F8093EA03F0E0E753FC4F57
:1019500080818093BB009091EA038091E90329C0C4
:1019600080910D048093BB0085EC8093BC0062CF16
:1019700090912F0480912E04981758F5E0912F0430
:1019800081E08E0F80932F04F0E0E25FFB4F8081B7
:10199000E9CFE0912F0481E08E0F80932F04809196
:1019A000BB00F0E0E25FFB4F808390912F048091B9
:1019B0002E049817C8F285E8D8CFE0912F0481E073
:1019C0008E0F80932F048091BB00F0E0E25FFB4F0D
:1019D00080838091310481115CCF81E080930C047D
:1019E00084EA8093BC001092320424CF85EC80936B
:1019F000BC001092320480910B04803230F4E091EC
:101A00000B04F0E0E551FC4F108260910B0470E094
:101A1000E0915A04F0915B048BEE93E019951092DB
:101A20000B0408CF1092300434CFCF92DF92EF92A4
:101A3000FF920F931F93E82FF92F05C00150110952
:101A40002109310961F1908196239417B9F305C0FA
:101A5000015011092109310911F190819623941344
:101A6000F7CFC12CD12CE12CF12C0AC08FEFC81A72
:101A7000D80AE80AF80A0C151D052E053F0579F06D
:101A800080818623841791F36C2D7D2D8E2D9F2DC3
:101A90001F910F91FF90EF90DF90CF90089560E03D
:101AA00070E080E090E01F910F91FF90EF90DF9049
:101AB000CF900895EFE7F4E01382128288EE93E06E
:101AC000A0E0B0E084839583A683B7832CE132E065
:101AD0003183208325EC30E03587248724EC30E007
:101AE0003787268720EC30E0318B208B21EC30E0EB
:101AF000338B228B22EC30E0358B248B26EC30E0CC
:101B0000378B268B118E128E138E148EECE1F5E03E
:101B10001382128284839583A683B7838EE292E038
:101B200091838083A5E3B5E08DE015968C9315979E
:101B30008BE016968C931697E7E6F2E0E491179601
:101B4000EC931797E1E2F2E0E4911896EC93189782
:101B500040E85EE360E070E01D964D935D936D9309
:101B60007C935097E8E2F5E01382128280E492E0E1
:101B700091838083118687E2848380E1828782E07B
:101B8000838714860895CF93DF93CDB7DEB7AC97E4
:101B90000FB6F894DEBF0FBECDBF789484B58260D7
:101BA00084BD84B5816084BD85B5826085BD85B501
:101BB000816085BD80916E00816080936E0010927F
:101BC00081008091810082608093810080918100FA
:101BD000816080938100809180008160809380008B
:101BE0008091B10084608093B1008091B0008160E9
:101BF0008093B000809191008260809391008091E9
:101C00009100816080939100809190008160809329
:101C100090008091A10082608093A1008091A1003A
:101C200081608093A1008091A00081608093A000DA
:101C30008091210182608093210180912101816046
:101C40008093210180912001816080932001809107
:101C50007A00846080937A0080917A008260809319
:101C60007A0080917A00816080937A0080917A0076
:101C7000806880937A001092C100E0918F04F09107
:101C8000900482E08083E0918B04F0918C041082B8
:101C9000E0918D04F0918E048FEC80831092970474
:101CA000E0919304F091940486E08083E0919104A4
:101CB000F0919204808180618083E0919104F091A1
:101CC0009204808188608083E0919104F091920475
:101CD000808180688083E0919104F09192048081FA
:101CE0008F7D808362E080913A050E947A022FB74F
:101CF000F89480917B0490917C04A0917D04B09134
:101D00007E042FBF805D9740A109B10980933E05F5
:101D100090933F05A0934005B093410587E38093DE
:101D2000470561E08CE00E947A0260E08BE00E944F
:101D30007A0260E087E00E947A0260E086E00E941A
:101D40007A0260E084E00E947A0260E085E00E940E
:101D50007A0260E083E00E947A0260E082E00E9402
:101D60007A0283E394E090930302809302028091CD
:101D70006A00837F886080936A00ED9A8CE394E028
:101D8000909301028093000280916A008C7F8260B0
:101D900080936A00EC9A1092610410926004109291
:101DA0005F0410925E040E94AB0585E494E090937A
:101DB0005D0480935C0486E494E090935B048093DC
:101DC0005A0410922D0580913305823018F098E066
:101DD00090932D058093300562E370E080E090E001
:101DE0000E94F2026091340588E295E00E9470063C
:101DF00068EE73E080E090E00E94F20260E388E227
:101E000095E00E945A070BE416E4C8010197F1F728
:101E100060E388E295E00E945A07C8010197F1F754
:101E200060E388E295E00E945A0783E592E001971B
:101E3000F1F760E288E295E00E945A0760912D0573
:101E4000606240E088E295E00E94730784E080933E
:101E50002E0540E06CE088E295E00E9473070E9446
:101E6000BB0782E080932F0540E066E088E295E0C2
:101E70000E94730740E062E088E295E00E947307E9
:101E80008BE39FE10197F1F788E08093340560E0F0
:101E900088E295E00E94700667E572E088E295E0CE
:101EA0000E945F0960ED77E080E090E00E94F2021E
:101EB0000E94BB0764E672E088E295E00E945F0939
:101EC00060E08CE00E944C020E942403882349F0C9
:101ED00080913B058B3028F08D3040F08551823069
:101EE000C8F160E070E080EC9FE71CC060913605AF
:101EF00070E090E080E00E9467142DEC3CEC4CEC2C
:101F00005DE30E941C156B017C016091350570E05A
:101F100090E080E00E9467149B01AC01C701B6010C
:101F20000E944C130E942F142B0170937504609330
:101F300074040E942403882341F080913B058C3077
:101F400009F4C9C0C8F48B3081F160E070E080EC26
:101F50009FE753C060913505709136057627672756
:101F6000762790E080E00E9465142DEC3CEC4CEC70
:101F70005DE30E941C15D6CF8551823030F7109159
:101F80003705612F70E0762F662766277F7780916F
:101F90003805682B90E080E00E9465142DEC3CEC45
:101FA0004CEC5DE30E941C15B2C06091370570E0F7
:101FB00090E080E00E9465146B017C01109138056F
:101FC00017FF0AC0AC019B0160E070E080E89FEB66
:101FD0000E944B136B017C011F70612F70E090E039
:101FE00080E00E9467142DEC3CEC4CEC5DE30E9419
:101FF0001C15A70196010E944C130E942F146B011F
:10200000709373046093720486E30E94B6029AA7E9
:1020100089A7909371048093700487E30E94B602AD
:102020001C0190936F0480936E0487E00E9423024A
:102030004C0190936D0480936C0486E00E9423020F
:102040005C0190936B0480936A0484E00E942302F5
:102050008C01909369048093680485E00E942302B8
:102060009CA78BA7B201550C880B990B0E94671493
:102070002B013C01AC019B010E94891581110EC00E
:10208000B601DD0C880B990B0E9467146B017C0173
:10209000AC019B010E9489158823E9F160E772E099
:1020A0008FE794E00E944B0960E080E00E948A077D
:1020B00063E872E088E295E00E944B0961E080E00D
:1020C0000E948A0760E972E088E295E00E944B096D
:1020D0000E945205EDCE10913705612F70E090E01F
:1020E00080E00E9465146B017C01609138056F707F
:1020F00070E090E080E00E9467142DEC3CEC4CEC2A
:102100005DE30E941C15A70196010E944C1317FF66
:1021100074CF905872CF8A94892809F057C00E94D2
:10212000BB0781E08093670462E370E080E090E0A9
:102130000E94F20280916704882309F464C060E081
:1021400080E00E948A076EE972E088E295E00E94D2
:102150005F0960E085E00E948A07609174047091D5
:10216000750488E295E00E942F0863EA72E088E235
:1021700095E00E945F0961E080E00E948A0767EABB
:1021800072E088E295E00E945F0961E085E00E94CC
:102190008A07609172047091730488E295E00E944E
:1021A0002F086CEA72E088E295E00E945F0960ED1A
:1021B00077E080E090E00E94F2021092670464E809
:1021C00073E080E090E00E94F20282CFAA94AB28F4
:1021D00031F40E94BB0781E080936604A5CF0130F3
:1021E000110531F40E94BB0781E0809365049CCF08
:1021F0008BA59CA5019709F09DCF0E94BB0781E0AC
:102200008093640491CF80916604882329F160E073
:1022100080E00E948A0761EB72E088E295E00E940C
:102220005F0960E084E00E948A0760916E0470910B
:102230006F0488E295E00E942F0866EB72E088E266
:1022400095E00E945F0960ED77E080E090E00E94F9
:10225000F20210926604B3CF809165048823F9F0EE
:1022600060E080E00E948A076CEB72E088E295E013
:102270000E945F0960E085E00E948A076091700417
:102280007091710488E295E00E942F0860ED77E07C
:1022900080E090E00E94F2021092650490CF80915D
:1022A0006404882309F47BC060E080E00E948A0710
:1022B00061EC72E088E295E00E945F0960E085E0F1
:1022C0000E948A0760E08CE00E944C0283E090E06C
:1022D0000197F1F761E08CE00E944C0283E290E00C
:1022E0000197F1F760E08CE00E944C02E5E6F2E035
:1022F0006491EFE1F2E0E491F0E0EE0FFF1FE650B1
:10230000FE4F8591949100E412E42FE030E0462FD7
:102310000E94150D611571058105910529F06F5F0A
:102320007F4F8F4F9F4F9F700E94651426E933E4C3
:102330004BE05DE30E941C1520E030E040E05FE3ED
:102340000E941C150E942F146B0166EC72E08FE74F
:1023500094E00E945F09B6018FE794E00E942F0885
:1023600062ED72E08FE794E00E944B0961E070E05B
:10237000CD2811F470E060E088E295E00E942F081B
:1023800062ED72E088E295E00E945F0960ED77E01F
:1023900080E090E00E94F2021092640410CF8091DD
:1023A0006304882309F46AC0198A1A8A1B8A1C8A62
:1023B000B101330C880B990B0E9467146D877E87DF
:1023C0008F87988B29A53AA5B901330F880B990BF4
:1023D0000E94671469877A878B879C87CD82DE820B
:1023E000EF82F88649825A826B827C82BE016F5EE0
:1023F0007F4F90E080E00E94BF09BE01635F7F4F86
:1024000084E090E00E94BF09BE01675F7F4F88E0D3
:1024100090E00E94BF09BE016B5F7F4F8CE090E0AF
:102420000E94BF09BE016F5F7F4F80E190E00E9474
:10243000BF0966ED72E08FE794E00E945F090E9499
:10244000BB0760E080E00E948A0764EF72E088E2E8
:1024500095E00E945F0961E080E00E948A076AEFD0
:1024600072E088E295E00E945F091092630468EED2
:1024700073E080E090E00E94F202A1CE80916204BD
:10248000882309F49CCEBE016B5D7F4F90E080E015
:102490000E949909BE016F5D7F4F84E090E00E9429
:1024A0009909BE01635E7F4F88E090E00E94990920
:1024B000BE01675E7F4F8CE090E00E949909BE01EB
:1024C0006B5E7F4F80E190E00E94990967E073E0C6
:1024D0008FE794E00E945F094DA15EA16FA178A5EE
:1024E00022E08FE794E00E94650862ED72E08FE7DA
:1024F00094E00E944B096EE173E08FE794E00E9444
:102500005F0949A15AA16BA17CA122E08FE794E069
:102510000E94650864E572E08FE794E00E94D407AA
:1025200067E373E08FE794E00E945F094D8D5E8D55
:102530006F8D78A122E08FE794E00E94650864E542
:1025400072E08FE794E00E94D40768E473E08FE7BD
:1025500094E00E945F09498D5A8D6B8D7C8D22E03D
:102560008FE794E00E9465086EEA72E08FE794E0DE
:102570000E944B0961E673E08FE794E00E945F09D7
:102580004D895E896F89788D22E08FE794E00E9403
:10259000650866E773E08FE794E00E944B090E94AC
:1025A000BB0760E080E00E948A0769E773E088E289
:1025B00095E00E945F09498D5A8D6B8D7C8D22E0DC
:1025C00088E295E00E94650860E873E088E295E0A3
:1025D0000E945F094D895E896F89788D22E088E2CB
:1025E00095E00E94650861E080E00E948A0769E842
:1025F00073E088E295E00E945F094DA15EA16FA1A2
:1026000078A522E088E295E00E94650860E973E021
:1026100088E295E00E945F0961E080E00E948A07FD
:1026200066E973E088E295E00E945F094D8D5E8D5A
:102630006F8D78A122E088E295E00E9465086CE940
:1026400073E088E295E00E945F0949A15AA16BA15D
:102650007CA122E088E295E00E9465081092620465
:1026600060ED77E080E090E006CFF999FECF92BD73
:1026700081BDF89A992780B50895262FF999FECF44
:102680001FBA92BD81BD20BD0FB6F894FA9AF99A8F
:102690000FBE019608955058BB27AA270E946313C6
:1026A0000C94DD140E94CF1438F00E94D61420F050
:1026B00039F49F3F19F426F40C94CC140EF4E095F1
:1026C000E7FB0C94C614E92F0E94EE1458F3BA17D6
:1026D000620773078407950720F079F4A6F50C9438
:1026E00010150EF4E0950B2EBA2FA02D0B01B90199
:1026F00090010C01CA01A0011124FF27591B99F078
:10270000593F50F4503E68F11A16F040A22F232F83
:10271000342F4427585FF3CF469537952795A795D3
:10272000F0405395C9F77EF41F16BA0B620B730B7A
:10273000840BBAF09150A1F0FF0FBB1F661F771FEB
:10274000881FC2F70EC0BA0F621F731F841F48F4A0
:10275000879577956795B795F7959E3F08F0B0CF29
:102760009395880F08F09927EE0F97958795089510
:102770000E94A21408F481E008950E94D1130C94E1
:10278000DD140E94D61458F00E94CF1440F029F4B2
:102790005F3F29F00C94C61451110C9411150C9440
:1027A000CC140E94EE1468F39923B1F3552391F3EE
:1027B000951B550BBB27AA2762177307840738F0B0
:1027C0009F5F5F4F220F331F441FAA1FA9F335D00D
:1027D0000E2E3AF0E0E832D091505040E695001CC1
:1027E000CAF72BD0FE2F29D0660F771F881FBB1F7B
:1027F000261737074807AB07B0E809F0BB0B802D59
:10280000BF01FF2793585F4F3AF09E3F510578F084
:102810000C94C6140C9411155F3FE4F3983ED4F366
:10282000869577956795B795F7959F5FC9F7880F58
:10283000911D9695879597F90895E1E0660F771FAA
:10284000881FBB1F621773078407BA0720F0621B3B
:10285000730B840BBA0BEE1F88F7E09508950E9466
:1028600036146894B1110C94111508950E94F61451
:1028700088F09F5798F0B92F9927B751B0F0E1F041
:10288000660F771F881F991F1AF0BA95C9F714C0F1
:10289000B13091F00E941015B1E008950C9410151C
:1028A000672F782F8827B85F39F0B93FCCF386952A
:1028B00077956795B395D9F73EF490958095709587
:1028C00061957F4F8F4F9F4F0895E89409C097FB04
:1028D0003EF490958095709561957F4F8F4F9F4FF7
:1028E0009923A9F0F92F96E9BB279395F69587953B
:1028F00077956795B795F111F8CFFAF4BB0F11F4FE
:1029000060FF1BC06F5F7F4F8F4F9F4F16C08823A4
:1029100011F096E911C0772321F09EE8872F762FDA
:1029200005C0662371F096E8862F70E060E02AF01B
:102930009A95660F771F881FDAF7880F9695879507
:1029400097F90895990F0008550FAA0BE0E8FEEFDC
:1029500016161706E807F907C0F012161306E40763
:10296000F50798F0621B730B840B950B39F40A265C
:1029700061F0232B242B252B21F408950A2609F43A
:10298000A140A6958FEF811D811D089597F99F673E
:1029900080E870E060E008959FEF80EC08950024E7
:1029A0000A941616170618060906089500240A94B4
:1029B00012161306140605060895092E0394000C3A
:1029C00011F4882352F0BB0F40F4BF2B11F460FFC9
:1029D00004C06F5F7F4F8F4F9F4F089557FD9058F2
:1029E000440F551F59F05F3F71F04795880F97FBD3
:1029F000991F61F09F3F79F087950895121613068D
:102A00001406551FF2CF4695F1DF08C016161706BB
:102A10001806991FF1CF86957105610508940895F0
:102A2000E894BB2766277727CB0197F908950E9482
:102A3000A21408F48FEF08950E942F150C94DD1452
:102A40000E94CF1438F00E94D61420F0952311F084
:102A50000C94C6140C94CC1411240C9411150E94DF
:102A6000EE1470F3959FC1F3950F50E0551F629FD0
:102A7000F001729FBB27F00DB11D639FAA27F00DD7
:102A8000B11DAA1F649F6627B00DA11D661F829FFE
:102A90002227B00DA11D621F739FB00DA11D621FE3
:102AA000839FA00D611D221F749F3327A00D611D00
:102AB000231F849F600D211D822F762F6A2F1124E2
:102AC0009F5750409AF0F1F088234AF0EE0FFF1F15
:102AD000BB1F661F771F881F91505040A9F79E3F6C
:102AE000510580F00C94C6140C9411155F3FE4F36B
:102AF000983ED4F3869577956795B795F795E795C2
:102B00009F5FC1F7FE2B880F911D9695879597F9CA
:102B100008950E94A214880B990B0895A1E21A2E21
:102B2000AA1BBB1BFD010DC0AA1FBB1FEE1FFF1F71
:102B3000A217B307E407F50720F0A21BB30BE40BC1
:102B4000F50B661F771F881F991F1A9469F7609508
:102B50007095809590959B01AC01BD01CF010895C2
:102B6000EE0FFF1F881F8BBF0790F691E02D199481
:102B7000F894FFCF47044704470447044704470439
:102B80004704470400004000140054000000000007
:102B9000E5044F047C043205AD048B049F0400005F
:102BA0000000410614065707EA050D06FA05EB0575
:102BB00000000000CE074F04570783056E616E00CA
:102BC000696E66006F7666000D0A0041434532204B
:102BD000475255504F2037004269656E76656E69E1
:102BE000646F2E004572726F7220656E20656C20D6
:102BF00073656E736F720053656E736F72204D5103
:102C0000313335006E6F20656E636F6E7472616470
:102C10006F0048554D3A002025200054454D3A009C
:102C2000C2B02043004C554D3A0020206C756D0019
:102C3000434F323A004449533A0044697374616E19
:102C40006369613A200020636D004461746F7320F2
:102C5000616C6D6163656E61646F7320656E206D7C
:102C6000656D6F7269612E004461746F7300616CF1
:102C70006D6163656E61646F732E00446973746186
:102C80006E63696120616C6D6163656E6164613A58
:102C900020004C756D696E6F736964616420616CAE
:102CA0006D6163656E6164613A2000434F3220615B
:102CB0006C6D6163656E6164613A200054656D708E
:102CC0006572617475726120616C6D6163656E61BE
:102CD00064613A200048756D6564616420616C6DC3
:102CE0006163656E6164613A200020250054656D62
:102CF000703A200043202048756D3A2000446973E3
:102D0000743A2000636D20202000434F323A2000A7
:0C2D100070706D20204C757A3A20000095
:020000040003F7
:10E000000D9489F10D94B2F10D94B2F10D94B2F129
:10E010000D94B2F10D94B2F10D94B2F10D94B2F1F0
:10E020000D94B2F10D94B2F10D94B2F10D94B2F1E0
:10E030000D94B2F10D94B2F10D94B2F10D94B2F1D0
:10E040000D94B2F10D94B2F10D94B2F10D94B2F1C0
:10E050000D94B2F10D94B2F10D94B2F10D94B2F1B0
:10E060000D94B2F10D94B2F10D94B2F10D94B2F1A0
:10E070000D94B2F10D94B2F10D94B2F10D94B2F190
:10E080000D94B2F10D94B2F10D94B2F10D94B2F180
:10E090000D94B2F10D94B2F10D94B2F10D94B2F170
:10E0A0000D94B2F10D94B2F10D94B2F10D94B2F160
:10E0B0000D94B2F10D94B2F10D94B2F10D94B2F150
:10E0C0000D94B2F10D94B2F10D94B2F10D94B2F140
:10E0D0000D94B2F10D94B2F10D94B2F10D94B2F130
:10E0E0000D94B2F141546D656761323536300041AF
:10E0F000726475696E6F206578706C6F72657220DE
:10E1000073746B3530305632206279204D4C530099
:10E11000426F6F746C6F616465723E004875683F52
:10E1200000436F6D70696C6564206F6E203D200048
:10E130004350552054797065202020203D20005FF9
:10E140005F4156525F415243485F5F3D2000415658
:10E1500052204C696243205665723D20004743437C
:10E160002056657273696F6E203D20004350552024
:10E1700049442020202020203D20004C6F7720663D
:10E18000757365202020203D20004869676820665F
:10E190007573652020203D200045787420667573D6
:10E1A00065202020203D20004C6F636B2066757336
:10E1B000652020203D20004D617220203720323024
:10E1C000313300312E362E3800342E332E350056A2
:10E1D00023202020414444522020206F7020636F70
:10E1E00064652020202020696E73747275637469E1
:10E1F0006F6E2061646472202020496E74657272B3
:10E20000757074006E6F20766563746F7200726A49
:10E210006D702020006A6D70200057686174207056
:10E220006F72743A00506F7274206E6F7420737541
:10E2300070706F72746564004D7573742062652030
:10E2400061206C6574746572002000577269747483
:10E25000696E672045450052656164696E672045B7
:10E26000450045452065727220636E743D00504F35
:10E27000525400303D5A65726F2061646472003FF1
:10E280003D43505520737461747300403D454550C3
:10E29000524F4D207465737400423D426C696E6B41
:10E2A000204C454400453D44756D70204545505215
:10E2B0004F4D00463D44756D7020464C415348001B
:10E2C000483D48656C70004C3D4C69737420492F83
:10E2D0004F20506F72747300513D51756974005234
:10E2E0003D44756D702052414D00563D73686F7707
:10E2F00020696E7465727275707420566563746FF0
:10E30000727300593D506F727420626C696E6B00BD
:10E310002A0011241FBECFEFD1E2DEBFCDBF01E046
:10E320000CBF12E0A0E0B2E0EEE1FDEF03E00BBFB6
:10E3300002C007900D92A030B107D9F712E0A0E01B
:10E34000B2E001C01D92AE30B107E1F70F9460F367
:10E350000D948DFE01E20EBF0FEF0DBF11241FBE05
:10E360000D9460F30D9400F020E030E040ED57E0B4
:10E3700005C0FA013197F1F72F5F3F4F2817390792
:10E38000C0F308959C01260F311DC901A0E0B0E043
:10E390002F5F3F4FABBFFC018791882361F08093D3
:10E3A000C6008091C00086FFFCCF8091C0008064D1
:10E3B0008093C000EACF08958DE08093C6008091DD
:10E3C000C00086FFFCCF8091C00080648093C000B5
:10E3D0008AE08093C6008091C00086FFFCCF8091C8
:10E3E000C00080648093C00008950F94C2F10F9420
:10E3F000DCF10895FC019081992359F09093C600B7
:10E400008091C00086FFFCCF8091C0008064809323
:10E41000C0003196992379F70895282F982F929567
:10E420009F70892F805D8A3308F0895F8093C600D2
:10E430008091C00086FFFCCF8091C00080648093F3
:10E44000C000822F8F70982F905D9A3308F0995FEB
:10E450009093C6008091C00086FFFCCF8091C000E1
:10E4600080648093C00008959C01FB01853691056E
:10E470001CF46330710594F0C90164E670E00F94F8
:10E480002EFE605D7F4F6093C6008091C00086FFC6
:10E49000FCCF8091C00080648093C0002B30310598
:10E4A00014F43297B4F0C90164E670E00F942EFEC4
:10E4B0006AE070E00F942EFE605D7F4F6093C600AF
:10E4C0008091C00086FFFCCF8091C0008064809363
:10E4D000C000C9016AE070E00F942EFEC0968093E0
:10E4E000C6008091C00086FFFCCF8091C000806490
:10E4F0008093C00008951F93182F8EE692EE60E07F
:10E500000F94C2F11093C6008091C00086FFFCCF2B
:10E510008091C00080648093C0000F94DCF11F9153
:10E5200008952F923F924F925F926F927F928F92B7
:10E530009F92AF92BF92CF92DF92EF92FF920F9392
:10E540001F93DF93CF93CDB7DEB762970FB6F894E2
:10E55000DEBF0FBECDBF382E622ECA01DB015C01CB
:10E560006D01772420E2222E2E010894411C511CBB
:10E570008BC081E0A81680E0B80681E0C80680E084
:10E58000D80628F0C601AA27BB270F940DF2BB2797
:10E59000AD2D9C2D8B2D0F940DF28A2D0F940DF225
:10E5A0002092C6008091C00086FFFCCF8091C00001
:10E5B00080648093C0009DE29093C6008091C0006B
:10E5C00086FFFCCF8091C00080648093C0002092C1
:10E5D000C6008091C00086FFFCCF8091C00080649F
:10E5E0008093C00019828601750188249924A1E0D6
:10E5F0003A1651F03A1620F0B2E03B1661F409C029
:10E600000BBFF701779007C0C7010F9477FE782EF4
:10E6100002C0F7017080872D0F940DF22092C60082
:10E620008091C00086FFFCCF8091C0008064809301
:10E63000C000872D8052F401EF70F0708F3520F408
:10E64000E40DF51D708204C0E40DF51D8EE280839B
:10E650000894E11CF11C011D111D0894811C911CE2
:10E6600090E18916910409F0C2CF80E190E0A0E02A
:10E67000B0E0A80EB91ECA1EDB1E198AC2010F9493
:10E68000FAF10F94DCF16A94662009F072CF629679
:10E690000FB6F894DEBF0FBECDBFCF91DF911F91B3
:10E6A0000F91FF90EF90DF90CF90BF90AF909F9031
:10E6B0008F907F906F905F904F903F902F90089534
:10E6C0002F923F924F925F926F927F928F929F9282
:10E6D000AF92BF92CF92DF92EF92FF920F931F9370
:10E6E000DF93CF93CDB7DEB7CD53D1400FB6F894BB
:10E6F000DEBF0FBECDBF01E20EBF0FEF0DBF94B75F
:10E70000F894A89514BE80916000886180936000A1
:10E7100010926000789493FF05C0E0910002F091A0
:10E7200001021995279A2F9A8091C00082608093E8
:10E73000C00080E18093C40088E18093C1000000A4
:10E74000EE24FF24870144E0A42EB12CCC24DD2448
:10E7500024C0C5010197F1F70894E11CF11C011DCB
:10E76000111D21E2E2162EE4F20620E0020720E06D
:10E77000120718F031E0C32ED12CC801B70127ECE5
:10E780003BE140E050E00F9441FE611571058105C9
:10E79000910519F485B1805885B98091C00087FD35
:10E7A00003C0C114D104A9F2A6014F5F5F4FC25E3E
:10E7B000DE4F59834883CE51D140C25EDE4F8881FF
:10E7C0009981CE51D140019711F00D9410FEC05D9A
:10E7D000DE4F19821882C053D14060E0C15DDE4F28
:10E7E0001882CF52D14088249924C35DDE4F19820C
:10E7F0001882CD52D140C05EDE4F188219821A8233
:10E800001B82C052D140CE5CDE4F188219821A8220
:10E810001B82C253D140EE24FF2487010BBFF701B6
:10E8200007911691C45CDE4F19830883CC53D14005
:10E830000D940BFEC25EDE4F28813981CE51D1404E
:10E840002130310509F52091C600C25EDE4F1982E4
:10E850001882CE51D14022C02F5F3F4F4F4F5F4FA4
:10E86000213082E138078AE7480780E0580780F0C6
:10E87000C45CDE4FE881F981CC53D140EF5FFF4F9C
:10E8800019F0EE27FF27099420E030E040E050E047
:10E890008091C00087FFE0CF2091C600C35DDE4FAE
:10E8A00048815981CD52D1404F5F5F4FC35DDE4FEC
:10E8B00059834883CD52D140213209F063C64A3092
:10E8C000510508F05FC60894811C911C53E0851621
:10E8D000910409F059C600E010E018C081E280936D
:10E8E000C6008091C00086FFFCCF8091C00080648C
:10E8F0008093C0002F5F3F4F2931310579F70F9486
:10E90000DCF10F5F1F4F0530110519F020E030E0FA
:10E91000E5CF10920A0210920B0210920C02109294
:10E920000D02109206021092070210920802109235
:10E930000902109202021092030210920402109235
:10E9400005028FEE90EE60E00F94F5F180E191EE1C
:10E9500060E00F94C2F18091C00087FFFCCF9091DE
:10E96000C600903608F09F759032B8F09093C600BC
:10E970008091C00086FFFCCF8091C00080648093AE
:10E98000C000A0E2A093C6008091C00086FFFCCF2B
:10E990008091C00080648093C000983409F4D7C18E
:10E9A0009934B8F4923409F459C1933458F490333B
:10E9B00019F1903308F4E3C59F33A1F1903409F0C5
:10E9C000DEC5BDC0953409F470C1963409F0D7C5D1
:10E9D00098C1923509F42BC2933538F49C3409F46C
:10E9E000F5C1913509F0CBC518C2963509F445C279
:10E9F000993509F0C4C567C483E792EE62E00F94CD
:10EA0000F5F110920602109207021092080210927D
:10EA1000090210920A0210920B0210920C0210923C
:10EA20000D0213C18FE792EE62E00F94F5F18FEEC5
:10EA300090EE60E00F94F5F181E291EE60E00F94CA
:10EA4000C2F187EB91EE60E00F94F5F180E391EE77
:10EA500060E00F94C2F184EE90EE60E00F94F5F167
:10EA60008FE391EE60E00F94C2F186E090E061E008
:10EA700070E00F9434F20F94DCF18DE591EE60E0DC
:10EA80000F94C2F189EC91EE60E00F94F5F18EE401
:10EA900091EE60E00F94C2F183EC91EE60E00F9490
:10EAA000F5F18CE691EE60E00F94C2F18EE10F94E7
:10EAB0000DF288E90F940DF281E00F940DF20F949E
:10EAC000DCF18BE791EE60E00F94C2F119E0E0E039
:10EAD000F0E010935700E4918E2F0F940DF20F94F5
:10EAE000DCF18AE891EE60E00F94C2F1E3E0F0E03F
:10EAF00010935700E4918E2F0F940DF20F94DCF1D8
:10EB000089E991EE60E00F94C2F1E2E0F0E0109349
:10EB10005700E4918E2F0F940DF20F94DCF188EAE8
:10EB200091EE60E00F94C2F1E1E0F0E01093570045
:10EB30001491812F0F940DF20F94DCF107CF8BE825
:10EB400092EE62E00F94F5F18BE492EE60E00F94A8
:10EB5000F5F10F94DCF100E010E019C0C8016F2D51
:10EB60000F947FFEFF2031F489E492EE60E00F9471
:10EB7000C2F10BC0F092C6008091C00086FFFCCFAE
:10EB80008091C00080648093C0000F5F1F4FC80158
:10EB900081519F41A0E0B0E0ABBFFC01F790BAE229
:10EBA000FB1621F0E2E000301E07C1F60F94DCF105
:10EBB0000F94DCF187E592EE60E00F94F5F10F948D
:10EBC000DCF1CC24DD2400E010E01EC0C8010F946D
:10EBD00077FEF82E882331F489E492EE60E00F94FA
:10EBE000C2F10BC08093C6008091C00086FFFCCFAD
:10EBF0008091C00080648093C000FE1419F00894D6
:10EC0000C11CD11C0F5F1F4FC80181519F41A0E063
:10EC1000B0E0ABBFFC01E790FAE2EF1621F022E092
:10EC20000030120799F60F94DCF10F94DCF182E6C4
:10EC300092EE60E00F94C2F1C60161E070E00F94C3
:10EC400034F20F94DCF10F94DCF110920202109276
:10EC50000302109204021092050278CE89E992EE26
:10EC600062E00F94F5F1279A2F9A16C02F9880E052
:10EC700090E0E0EDF7E03197F1F7019684369105E9
:10EC8000C1F72F9A80E090E0E0EDF7E03197F1F7DF
:10EC9000019684369105C1F78091C00087FFE6CFC9
:10ECA0008091C00087FFFCCF64C485EA92EE62E0E9
:10ECB0000F94F5F140910202509103026091040219
:10ECC0007091050281E020E10F9491F2809102029F
:10ECD00090910302A0910402B091050280509F4FD1
:10ECE000AF4FBF4F8093020290930302A0930402A0
:10ECF000B093050280509041A040B04008F426CE69
:10ED0000A4CF83EB92EE62E00F94F5F140910602FE
:10ED100050910702609108027091090280E020E1A1
:10ED20000F9491F28091060290910702A09108023F
:10ED3000B091090280509F4FAF4FBF4F80930602A2
:10ED400090930702A0930802B0930902FFCD80ECD4
:10ED500092EE62E00F94F5F183E792EE60E00F949B
:10ED6000F5F18FE792EE60E00F94F5F18BE892EE0B
:10ED700060E00F94F5F189E992EE60E00F94F5F10F
:10ED800085EA92EE60E00F94F5F183EB92EE60E09D
:10ED90000F94F5F180EC92EE60E00F94F5F187ECC2
:10EDA00092EE60E00F94F5F188ED92EE60E00F9442
:10EDB000F5F18FED92EE60E00F94F5F18AEE92EEB0
:10EDC00060E00F94F5F183E093EEBDCD87EC92EE19
:10EDD00062E00F94F5F181E40F947BF282E40F94EA
:10EDE0007BF283E40F947BF284E40F947BF285E45E
:10EDF0000F947BF286E40F947BF287E40F947BF20E
:10EE000088E40F947BF28AE40F947BF28BE40F94F6
:10EE10007BF28CE40F947BF299CD88ED92EE62E068
:10EE20000F94F5F1772473948824992409C48FED05
:10EE300092EE62E00F94F5F140910A0250910B02BC
:10EE400060910C0270910D0282E020E10F9491F22A
:10EE500080910A0290910B02A0910C02B0910D02D8
:10EE600080509F4FAF4FBF4F80930A0290930B0289
:10EE7000A0930C02B0930D0269CD8AEE92EE62E08F
:10EE80000F94F5F184EE90EE60E00F94F5F18FECC5
:10EE900091EE60E00F94F5F1662477244301CC5D98
:10EEA000DE4F19821882C452D140D401C301B695F5
:10EEB000A79597958795CA5DDE4F88839983AA8326
:10EEC000BB83C652D140CC5DDE4FA881B981C4520C
:10EED000D1401196CC5DDE4FB983A883C452D14096
:10EEE000CD0162E070E00F9434F2B0E2B093C6005E
:10EEF0008091C00086FFFCCF8091C0008064809329
:10EF0000C000EDE2E093C6008091C00086FFFCCF18
:10EF10008091C00080648093C000F0E2F093C6004E
:10EF20008091C00086FFFCCF8091C00080648093F8
:10EF3000C000CA5DDE4FE880F9800A811B81C6529D
:10EF4000D140BB27A12F902F8F2D0F940DF2CA5DBA
:10EF5000DE4F8881C652D1400F940DF2B0E2FB2EF5
:10EF6000F092C6008091C00086FFFCCF8091C00067
:10EF700080648093C0000DE30093C6008091C000C0
:10EF800086FFFCCF8091C00080648093C00010E2B7
:10EF90001093C6008091C00086FFFCCF8091C00016
:10EFA00080648093C0008BBEF3012791C65DDE4F65
:10EFB0002883CA52D140A22EBB24CC24DD2408943D
:10EFC000611C711C811C911C8BBEF3018791282E42
:10EFD0003324442455240894611C711C811C911C09
:10EFE0008BBEF3013791C55DDE4F3883CB52D140E4
:10EFF0000894611C711C811C911C8BBEF30147910C
:10F00000C45DDE4F4883CC52D140ADEFEA2EAFEF66
:10F01000FA2EAFEF0A2FAFEF1A2F6E0C7F1C801E57
:10F02000911E142D032DF22CEE24EA0CFB1C0C1D5A
:10F030001D1D0F940DF220E22093C6008091C000A8
:10F0400086FFFCCF8091C00080648093C000C65DC5
:10F05000DE4F8881CA52D1400F940DF230E23093D6
:10F06000C6008091C00086FFFCCF8091C000806404
:10F070008093C000C45DDE4F8881CC52D1400F9494
:10F080000DF240E24093C6008091C00086FFFCCFA5
:10F090008091C00080648093C000C55DDE4F888190
:10F0A000CB52D1400F940DF250E25093C6008091A4
:10F0B000C00086FFFCCF8091C00080648093C000B8
:10F0C0008FEFE8168FEFF80680E0080780E018075A
:10F0D00031F484E092EE60E00F94C2F1DFC0D80119
:10F0E000C7018070907CA070B0708050904CA040A0
:10F0F000B040D1F52FEF3FE340E050E0E222F322B1
:10F1000004231523CA5DDE4FA880B980CA80DB8046
:10F11000C652D140AE0CBF1CC01ED11EAA0CBB1CD7
:10F12000CC1CDD1C8EE092EE60E00F94C2F1BB2798
:10F13000A12F902F8F2D0F940DF28E2D0F940DF285
:10F1400030E23093C6008091C00086FFFCCF8091F2
:10F15000C00080648093C0004EE34093C60080915D
:10F16000C00086FFFCCF87C08EE09EEFA0E0B0E03D
:10F17000E822F9220A231B239CE0E91694E9F90608
:10F1800090E0090790E0190709F088C0C45DDE4FE0
:10F19000A881CC52D140EA2EFF2400E010E0102FCD
:10F1A0000F2DFE2CEE24C55DDE4FB881CB52D14031
:10F1B000EB0EF11C011D111DD601C501817090706F
:10F1C000A070B070DC0199278827E80EF91E0A1F8D
:10F1D0001B1F20EF30E040E050E0A222B322C42207
:10F1E000D52241E1AA0CBB1CCC1CDD1C4A95D1F7F1
:10F1F000EA0CFB1C0C1D1D1D81E090E0A0E0B0E0BE
:10F20000282239224A225B2235E1220C331C441C7D
:10F21000551C3A95D1F7E20CF31C041D151D57013E
:10F220006801AA0CBB1CCC1CDD1C85E192EE60E0E1
:10F230000F94C2F1C801AA27BB270F940DF2BB2778
:10F24000A12F902F8F2D0F940DF28E2D0F940DF274
:10F2500090E29093C6008091C00086FFFCCF809121
:10F26000C00080648093C000AEE3A093C60080918C
:10F27000C00086FFFCCF8091C00080648093C000F6
:10F28000C601AA27BB270F940DF2BB27AD2D9C2DDD
:10F290008B2D0F940DF28A2D0F940DF20F94DCF14B
:10F2A000CC5DDE4FE881F981C452D140F99709F471
:10F2B0004DCBF4E0EF2EF12C012D112D6E0C7F1CA7
:10F2C000801E911EF2CD83E093EE62E00F94F5F183
:10F2D0008AE192EE60E00F94C2F18091C00087FF56
:10F2E000FCCF1091C6001F751093C6008091C0001E
:10F2F00086FFFCCF8091C00080648093C0000F9493
:10F30000DCF1812F81548A3108F036C1163409F4BA
:10F3100095C0173490F4133409F44EC0143430F40B
:10F320001134F1F0123409F01DC130C0143409F465
:10F3300059C0153409F016C16BC01A3409F4C4C0A1
:10F340001B3438F4173409F48FC0183409F00AC19B
:10F35000A1C01B3409F4D2C01C3409F003C1E8C0B9
:10F360008FEF81B90DC082B1809582B980E090E0C5
:10F37000E0EDF7E03197F1F70196883C9105C1F790
:10F380008091C00087FFEFCF12B8EFC08FEF84B934
:10F390000DC085B1809585B980E090E0E0EDF7E0A3
:10F3A0003197F1F70196883C9105C1F78091C00033
:10F3B00087FFEFCF15B8D9C08FEF87B90DC088B1DF
:10F3C000809588B980E090E0E0EDF7E03197F1F7C3
:10F3D0000196883C9105C1F78091C00087FFEFCF6F
:10F3E00018B8C3C08FEF8AB90DC08BB180958BB9A7
:10F3F00080E090E0E0EDF7E03197F1F70196883C8E
:10F400009105C1F78091C00087FFEFCF1BB8ADC059
:10F410008FEF8DB90DC08EB180958EB980E090E0F0
:10F42000E0EDF7E03197F1F70196883C9105C1F7DF
:10F430008091C00087FFEFCF1EB897C08FEF80BBD1
:10F440000DC081B3809581BB80E090E0E0EDF7E0F6
:10F450003197F1F70196883C9105C1F78091C00082
:10F4600087FFEFCF11BA81C08FEF83BB0DC084B38C
:10F47000809584BB80E090E0E0EDF7E03197F1F714
:10F480000196883C9105C1F78091C00087FFEFCFBE
:10F4900014BA6BC08FEF809301010FC080910201FD
:10F4A00080958093020180E090E0E0EDF7E03197F5
:10F4B000F1F70196883C9105C1F78091C00087FF64
:10F4C000EDCF1092020151C08FEF809304010FC065
:10F4D0008091050180958093050180E090E0E0ED4A
:10F4E000F7E03197F1F70196883C9105C1F78091DB
:10F4F000C00087FFEDCF1092050137C08FEF8093DA
:10F5000007010FC08091080180958093080180E079
:10F5100090E0E0EDF7E03197F1F70196883C910536
:10F52000C1F78091C00087FFEDCF109208011DC088
:10F530008FEF80930A010FC080910B01809580931B
:10F540000B0180E090E0E0EDF7E03197F1F70196F4
:10F55000883C9105C1F78091C00087FFEDCF1092E4
:10F560000B0103C085E292EEEEC98091C00087FFD7
:10F57000FCCF8091C600EAC988E392EEE4C98CE131
:10F5800091EEE1C988249924933011F1943028F444
:10F59000913089F09230B8F408C0953061F195301F
:10F5A000F0F0963009F048C043C02B3109F042C951
:10F5B00091E06BE13FC96227C15DDE4F2883CF52E6
:10F5C000D14092E037C9B22FA0E0622793E032C960
:10F5D000822F90E0A82BB92B622794E02BC92E3004
:10F5E00009F039C3622795E0C05DDE4F19821882A9
:10F5F000C053D1401FC9E1E0F0E0EC0FFD1FC05D3A
:10F60000DE4F08811981C053D140E00FF11F2083E4
:10F610000F5F1F4FC05DDE4F19830883C053D14079
:10F6200062270A171B0709F005C9D80196E002C92D
:10F63000261709F010C303C0973009F0FBC87724E0
:10F640009981933109F412C19431C8F4963009F4C8
:10F65000D8C0973050F4923009F406C1933009F4C1
:10F660006DC0913009F059C253C0913109F477C08F
:10F67000923108F0BBC0903109F04FC2F5C098310B
:10F6800009F487C0993150F4953109F4EFC09531F0
:10F6900008F4C6C1963109F040C2C2C19A3109F4DA
:10F6A0006CC09A3108F491C09B3109F45BC09D3164
:10F6B00009F033C29D81903359F48F81882311F46E
:10F6C0009EE11CC0813011F091E018C098E916C08D
:10F6D000892F807591F0903539F4E0E0F0E089E011
:10F6E0008093570094910AC0983539F4E3E0F0E034
:10F6F00089E080935700949101C090E01A821B82A8
:10F700008D818C831D829E831F8227E030E009C299
:10F710001A8288E08B8381E48C8386E58D8382E581
:10F720008E8389E48F8383E5888780E589878FE5E9
:10F730008A8782E38B872BE030E0F3C18A818139AD
:10F7400041F0823941F0803911F48FE005C080E04A
:10F7500003C082E001C08AE01A828B8344C0772410
:10F76000739482C08D81882311F48EE12CC0813086
:10F7700011F081E028C088E926C01A82E1E0F0E0BB
:10F7800089E08093570084918B831C8224E030E0D1
:10F79000C8C18B81803589F48C81883039F4E2E0EE
:10F7A000F0E089E08093570084910DC0E0E0F0E044
:10F7B00089E080935700849106C0E3E0F0E089E09F
:10F7C0008093570084911A82DFCF8D81836C99E0FA
:10F7D000E1E0F0E0082E90935700E89507B600FCB2
:10F7E000FDCF1A821B8223E030E09BC180EC8A832C
:10F7F000CE5CDE4F188219821A821B82C253D1401E
:10F800008EC18A8190E0A0E0B0E0582F44273327D2
:10F8100022278B8190E0A0E0B0E0DC0199278827C7
:10F82000282B392B4A2B5B2B8D8190E0A0E0B0E098
:10F83000282B392B4A2B5B2B8C8190E0A0E0B0E089
:10F84000BA2FA92F982F8827282B392B4A2B5B2BCF
:10F85000220F331F441F551FC05EDE4F288339839C
:10F860004A835B83C052D1401A8259C13A81C95C34
:10F87000DE4F3883C753D140CA5CDE4F1882C6536F
:10F88000D1408B81C82EDD24CA5CDE4F488159816E
:10F89000C653D140C42AD52A933109F082C0CE5C28
:10F8A000DE4F88819981AA81BB81C253D1408050AB
:10F8B000904CA340B04030F583E0CE5CDE4FE88052
:10F8C000F9800A811B81C253D140F70100935B008C
:10F8D00080935700E89507B600FCFDCFCE5CDE4F65
:10F8E000088119812A813B81C253D14000501F4FAA
:10F8F0002F4F3F4FCE5CDE4F088319832A833B8313
:10F90000C253D140C05EDE4F488159816A817B81FC
:10F91000C052D140DE011B9631E08C9111962C91A2
:10F9200011971296C75CDE4F2883C953D140C85C3B
:10F93000DE4F1882C853D14090E0C85CDE4FE881AA
:10F94000F981C853D1408E2B9F2B0C01FA01609393
:10F950005B0030935700E89511244E5F5F4F6F4F67
:10F960007F4F0EEFE02E0FEFF02ECE0CDF1CC114F8
:10F97000D10499F685E0C05EDE4F088119812A81A5
:10F980003B81C052D140F80120935B008093570027
:10F99000E89507B600FCFDCF81E180935700E8951C
:10F9A00035C0C05EDE4F88819981AA81BB81C0527B
:10F9B000D140B695A795979587957C018601ABE0D8
:10F9C000AA2EB12CAC0EBD1E0BC0D5016D915D01F0
:10F9D000C7010F947FFE0894E11CF11C01501040F8
:10F9E0000115110591F7A60160E070E0440F551F65
:10F9F000661F771FC05EDE4FE880F9800A811B8199
:10FA0000C052D1404E0D5F1D601F711F1A82C05E33
:10FA1000DE4F488359836A837B83C052D1407FC0C5
:10FA2000FA80C55CDE4FF882CB53D140C65CDE4F16
:10FA30001882CA53D1408B81C82EDD24C65CDE4FAC
:10FA400008811981CA53D140C02AD12A1A828981DA
:10FA5000BE016D5F7F4F843121F59601C05EDE4FA0
:10FA6000E880F9800A811B81C052D1400BBFF701A9
:10FA700087919691DB018C9311969C936E5F7F4FDB
:10FA8000D801C7010296A11DB11DC05EDE4F88835B
:10FA90009983AA83BB83C052D14022503040F1F6F3
:10FAA00036C0C05EDE4F288139814A815B81C052F9
:10FAB000D1400894C108D108760100E010E0089414
:10FAC000C11CD11C0894E11CF11C011D111DE20E8A
:10FAD000F31E041F151F21BDBB27A52F942F832FB5
:10FAE00082BD2F5F3F4F4F4F5F4FF89A80B5DB01CC
:10FAF0008D93BD012E153F054007510761F7C05E8C
:10FB0000DE4F288339834A835B83C052D1409601FC
:10FB10002D5F3F4FFB01108204C080EC8A8322E0FE
:10FB200030E08BE18093C6008091C00086FFFCCF5F
:10FB30008091C00080648093C000C15DDE4FF88179
:10FB4000CF52D140F093C6008091C00086FFFCCF19
:10FB50008091C00080648093C000432F3093C60022
:10FB60008091C00086FFFCCF8091C00080648093AC
:10FB7000C000922F2093C6008091C00086FFFCCF6A
:10FB80008091C00080648093C0008EE08093C600A6
:10FB90008091C00086FFFCCF8091C000806480937C
:10FBA000C00065E1C15DDE4FE880CF52D1406E25D7
:10FBB00069276427FE01319610C090819093C6009A
:10FBC0008091C00086FFFCCF31968091C000806498
:10FBD0008093C0006927215030402115310569F715
:10FBE0006093C6008091C00086FFFCCF8091C0006A
:10FBF00080648093C00085B1805885B9772081F4F6
:10FC0000C15DDE4F0881CF52D1400F5FC15DDE4F35
:10FC10000883CF52D14090E0A0E0B0E00D941AF4F8
:10FC200027982F9880E090E020ED37E0F901319798
:10FC3000F1F7019684369105C9F700008091C00064
:10FC40008D7F8093C00081E180935700E895EE2777
:10FC5000FF270994FFCF90E00D941AF497FB092E2B
:10FC600007260AD077FD04D02ED006D000201AF443
:10FC7000709561957F4F0895F6F7909581959F4F08
:10FC80000895A1E21A2EAA1BBB1BFD010DC0AA1FDD
:10FC9000BB1FEE1FFF1FA217B307E407F50720F0F5
:10FCA000A21BB30BE40BF50B661F771F881F991F70
:10FCB0001A9469F760957095809590959B01AC01B9
:10FCC000BD01CF010895AA1BBB1B51E107C0AA1FAC
:10FCD000BB1FA617B70710F0A61BB70B881F991FED
:10FCE0005A95A9F780959095BC01CD010895F99991
:10FCF000FECF92BD81BDF89A992780B50895262F31
:10FD0000F999FECF1FBA92BD81BD20BD0FB6F89400
:0EFD1000FA9AF99A0FBE01960895F894FFCF63
:00000001FF
