:020000040000FA
:100000000C944B010C947C010C947C010C947C01AD
:100010000C947C010C947C010C947C010C947C016C
:100020000C947C010C947C010C947C010C947C015C
:100030000C947C010C947C010C947C010C947C014C
:100040000C947C010C947C010C947C010C947C013C
:100050000C947C010C947C010C947C010C94690838
:100060000C947C010C94DD080C94B3080C947C0176
:100070000C947C010C947C010C947C010C947C010C
:100080000C947C010C947C010C947C010C947C01FC
:100090000C947C010C947C010C947C010C9413094D
:1000A0000C947C010C947C010C947C010C947C01DC
:1000B0000C947C010C947C010C947C010C947C01CC
:1000C0000C947C010C947C010C947C010C947C01BC
:1000D0000C947C010C947C010C947C010C947C01AC
:1000E0000C947C010C946B040C942D040C9415025C
:1000F0000C940F020C94DA050C9421060C948D04D8
:100100000C942F040C94F4050C94C5040C94F90180
:100110000C9437070C94E2010C94CA050C94120558
:100120000C9401020C94EF010C947C0A0C9483074C
:100130000C94F3010C94CB050C94ED050C94140273
:100140000C942E040C9419020C94DE010C94DA0128
:100150000C94D4010C94E9010C940B020C946305EB
:100160000C9407020C945C040C94FD010C94E601C1
:100170000C947F0400002100240027002A002D0099
:100180003000330001010000040107010A010000F2
:100190002200250028002B002E003100340002012F
:1001A0000000050108010B0100000A0B02090C0DFB
:1001B0000E0807030401000000000000000000001A
:1001C000000000000000000000000000000000002F
:1001D00000000000121110000000000000000000EC
:1001E000000000000000000000000000000000000F
:1001F00020002300260029002C002F0032000001DF
:1002000000000301060109010505050507050808A9
:100210000808020202020A0A080804040404010190
:1002200001010101010103030303030303030407A5
:1002300007070C0C0C0C0C0C0C0C0202020206063C
:100240000606060606060B0B0B0B0B0B0B0B01022F
:1002500010202008081020401020408002010201D8
:100260000804020101020408102040808040201090
:1002700008040201800402018040201008040201E9
:100280000804020101020408102040800102040851
:10029000102040807C0A11241FBECFEFD1E2DEBFC8
:1002A000CDBF00E00CBF12E0A0E0B2E0ECECF2E267
:1002B00000E00BBF02C007900D92AE3BB107D9F72B
:1002C00024E0AEEBB2E001C01D92AC35B207E1F71D
:1002D00011E0CBE4D1E000E006C021970109802FB6
:1002E000FE010E945C11CA34D10780E00807A9F71B
:1002F0000E94E50A0C9464110C940000CF92DF92E6
:10030000EF92FF92CF93DF93B0915004A0E0811160
:10031000AB2F8091510490E0880F991FAC0142519E
:100320005E4FC0905604D0905704E0905804F0906F
:10033000590430E020E0FA01C591D491E881B90177
:1003400090E080E0EB23EA130AC02F5F3F4F6C156B
:100350007D058E059F0578F36FEF7FEFCB01DF9171
:10036000CF91FF90EF90DF90CF9008958150823130
:1003700008F05AC0E82FF0E08827EE53FE4F8F4F69
:100380000C945C11E201E601D401DA01DE011402F1
:10039000E901EF01F301F901FD01010207020B027E
:1003A00014020F0215021902809180008F7780934A
:1003B00080000895809180008F7DF9CF809180002A
:1003C000877FF5CF84B58F7784BD089584B58F7D01
:1003D000FBCF8091B0008F778093B000089580911B
:1003E000B0008F7DF9CF809190008F77809390003F
:1003F0000895809190008F7DF9CF80919000877F44
:10040000F5CF8091A0008F778093A0000895809110
:10041000A0008F7DF9CF8091A000877FF5CF8091DC
:1004200020018F77809320010895809120018F7D96
:10043000F9CF80912001877FF5CFCF93DF93282FCD
:1004400030E0F901E855FE4F8491F901E25BFD4F80
:10045000D491F901E85FFD4FC491CC23A1F0811143
:100460000E94B601EC2FF0E0EE0FFF1FE251FE4FAD
:10047000A591B491EC91ED2381E090E009F480E046
:10048000DF91CF91089580E090E0FACF1F93CF9352
:10049000DF93282F30E0F901E855FE4F8491F901F0
:1004A000E25BFD4FD491F901E85FFD4FC491CC238D
:1004B000A9F0162F81110E94B601EC2FF0E0EE0F8B
:1004C000FF1FE257FE4FA591B4918FB7F894EC91BE
:1004D000111108C0D095DE23DC938FBFDF91CF913F
:1004E0001F910895DE2BF8CFCF93DF9390E0FC01AE
:1004F000E25BFD4F2491885F9D4FFC01849188232E
:10050000C9F090E0880F991FFC01EC58FE4FA591AF
:10051000B491FC01E257FE4FC591D49161110DC019
:100520009FB7F8948C91209582238C9388812823FF
:1005300028839FBFDF91CF910895623051F49FB718
:10054000F8943C91822F809583238C93E8812E2B05
:10055000EFCF8FB7F894EC912E2B2C938FBFEACF6F
:1005600090917B00977F90937B008653806480936B
:100570007C0080917A00806480937A0080917A0078
:1005800086FDFCCF809178009091790008953FB767
:10059000F89480918B0390918C03A0918D03B0917E
:1005A0008E0326B5A89B05C02F3F19F00196A11D0B
:1005B000B11D3FBFBA2FA92F982F8827BC01CD01AD
:1005C000620F711D811D911D42E0660F771F881F0C
:1005D000991F4A95D1F708958F929F92AF92BF923B
:1005E000CF92DF92EF92FF924B015C010E94C70213
:1005F0006B017C010E94C7026C197D098E099F095D
:10060000683E734081059105A8F321E0821A9108A4
:10061000A108B10888EEC80E83E0D81EE11CF11CC9
:1006200081149104A104B10429F7FF90EF90DF90A9
:10063000CF90BF90AF909F908F900895CF92DF9210
:10064000EF92FF920F931F93CF93DF93CDB7DEB757
:10065000C054D1400FB6F894DEBF0FBECDBF2FB748
:10066000F89480918F0390919003A0919103B091A1
:1006700092032FBF4091520450915304609154044F
:10068000709155048C019D01041B150B260B370B33
:10069000B901A801403D57406105710590F4809172
:1006A0005A04C05CDE4F0FB6F894DEBF0FBECDBF5C
:1006B000DF91CF911F910F91FF90EF90DF90CF903E
:1006C00008958093520490935304A0935404B093DC
:1006D000550410924D0410924C0410924B04109249
:1006E0004A041092490462E080914E040E94740210
:1006F00061E070E080E090E00E94EC0261E08091B7
:100700004E040E94740260E080914E040E944602F2
:1007100080914F048551823020F58BE291E1019761
:10072000F1F762E080914E040E94740280915B04B4
:1007300090E08230910538F0880F991F880F991F3B
:1007400005970197F1F7F89480E00E947E016F3FD2
:100750007F4F8F4F9F4F61F410925A04789480E03E
:10076000A0CF64E170E080E090E00E94EC02D9CF7D
:1007700081E00E947E016F3F7F4F8F4F9F4F61F35B
:100780008E010F5F1F4F6E018FEBC81A8EEFD80AD4
:10079000780180E00E947E01F7016083718382838B
:1007A000938381E00E947E01F701648375838683D1
:1007B0009783F8E0EF0EF11CEC14FD0451F77894E8
:1007C00030E020E0F801C080D180E280F3804481F5
:1007D000558166817781FFEFCF16DF06EF06FF06B2
:1007E00031F04F3F8FEF58076807780719F41092E0
:1007F0005A04B5CFF90183E0F595E7958A95E1F7BD
:10080000E75BFB4F8081880FC416D506E606F70626
:1008100010F180832F5F3F4F085F1F4F2832310553
:1008200089F640914D042091490480914A04280F93
:100830003327331F80914B04280F311D80914C04C6
:10084000820F932F911D99274817190681F681E091
:1008500080935A0426CF8160DCCF08950895AF922B
:10086000BF92CF92DF92EF92FF920F931F93CF939D
:10087000DF936C017B018B01040F151FEB015E01FF
:10088000AE18BF08C017D10759F06991D601ED9194
:10089000FC910190F081E02DC6011995892B79F723
:1008A000C501DF91CF911F910F91FF90EF90DF90E5
:1008B000CF90BF90AF900895FC01538D448D252FAC
:1008C00030E0842F90E0821B930B541710F0CF96EA
:1008D000089501970895FC01918D828D981761F01C
:1008E000A28DAE0FBF2FB11D5D968C91928D9F5F33
:1008F0009F73928F90E008958FEF9FEF0895FC0112
:10090000918D828D981731F0828DE80FF11D858DC4
:1009100090E008958FEF9FEF0895FC01918D228D57
:10092000892F90E0805C9F4F821B91098F739927DC
:10093000089583E993E00E948D0421E0892B09F456
:1009400020E0822F0895FC01A48DA80FB92FB11DBE
:10095000A35ABF4F2C91848D90E001968F739927F5
:10096000848FA689B7892C93A089B1898C918370D3
:1009700080648C93938D848D981306C00288F389CC
:10098000E02D80818F7D80830895EF92FF920F93F9
:100990001F93CF93DF93EC0181E0888F9B8D8C8D2B
:1009A00098131AC0E889F989808185FF15C09FB71F
:1009B000F894EE89FF896083E889F98980818370E2
:1009C000806480839FBF81E090E0DF91CF911F9191
:1009D0000F91FF90EF900895F62E0B8D10E00F5FB2
:1009E0001F4F0F731127E02E8C8D8E110CC00FB688
:1009F00007FCFACFE889F989808185FFF5CFCE0120
:100A00000E94A304F1CFEB8DEC0FFD2FF11DE35AF3
:100A1000FF4FF0829FB7F8940B8FEA89FB898081A2
:100A20008062CFCFCF93DF93EC01888D8823B9F01C
:100A3000AA89BB89E889F9898C9185FD03C08081E9
:100A400086FD0DC00FB607FCF7CF8C9185FFF2CF66
:100A5000808185FFEDCFCE010E94A304E9CFDF9115
:100A6000CF91089580E090E0892B29F00E949904AD
:100A700081110E94000080E090E0892B49F080E025
:100A800090E0892B29F00E94000081110E94000053
:100A900080E090E0892B49F080E090E0892B29F0FC
:100AA0000E94000081110E94000080E090E0892BEC
:100AB00049F080E090E0892B29F00E94000081112C
:100AC0000C940000089508952091FF02260F33270B
:100AD000331F21323105ECF420914803FC0190E0F2
:100AE00080E0243069F082E00895A091FF02219116
:100AF000AC0141525D4FA40FB52FB11D2C9301964F
:100B0000861798F38091FF02680F6093FF0280E0E0
:100B1000089581E008951092480381E0809347038F
:100B20001092220361E084E10E94460261E085E1C7
:100B30000E944602E9EBF0E080818E7F8083808115
:100B40008D7F808388E48093B80085E48093BC0027
:100B50000895CF93DF9391E09093DE028823B9F05C
:100B6000C091B800D091BA008091BC008A7B80937C
:100B7000BC0060E084E10E94460260E085E10E94E2
:100B800046020E948B05D093BA00C093B800DF9153
:100B9000CF9108950895E091770380917603E81747
:100BA00030F4F0E0E254FD4F808190E008958FEF43
:100BB0009FEF089590917703809176032FEF3FEF99
:100BC000981748F4E92FF0E0E254FD4F208130E01F
:100BD0009F5F90937703C901089580917603909168
:100BE0007703891B990B0895CF92DF92EF92FF92C2
:100BF0000F931F93CF93DF937C01CB018A01209148
:100C00004E03222389F0EB016B01C40ED51ECC15D7
:100C1000DD0569F06991D701ED91FC910190F081BA
:100C2000E02DC7011995F3CF642F0E946405C80118
:100C3000DF91CF911F910F91FF90EF90DF90CF90B8
:100C40000895CF93DF931F92CDB7DEB769832091CC
:100C50004E032223F9F020917403203258F021E052
:100C600030E0FC013383228390E080E00F90DF913D
:100C7000CF91089580917503E82FF0E0E15BFC4F80
:100C8000998190838F5F809375038093740381E0D3
:100C900090E0ECCF61E0CE0101960E946405F7CFB1
:100CA000CF92DF92EF92FF920F931F93CF93DF9338
:100CB000FC01C48121E020934E03C0936F03109286
:100CC0007503109274038485682B80E394E00E947E
:100CD0002106D0917403D13208F092C00E94C7025D
:100CE0006B017C0180914803811165C082E0809393
:100CF000480381E0809347038FEF8093460310926F
:100D00004503D0934403AFE4B3E0E4E2F3E080E0D2
:100D1000D81385C01092230380912303CC0FC82BD6
:100D2000C093230380912203813009F07CC010928C
:100D300022030E94C7026B017C01809123038093F0
:100D4000BB0080914A0390914B03A0914C03B0915A
:100D50004D03892B8A2B8B2B99F00E94C70200919F
:100D60004A0310914B0320914C0330914D036C19B1
:100D70007D098E099F090617170728073907E0F133
:100D80008091BC0083FDD9CF85EC8093BC000E948C
:100D9000C7026B017C0180914803823009F445C091
:100DA000809146038F3F61F180914603803241F18B
:100DB0008091460325C080914A0390914B03A091F6
:100DC0004C03B0914D03892B8A2B8B2B09F48ACFCE
:100DD0000E94C70200914A0310914B0320914C03DB
:100DE00030914D036C197D098E099F09061717076D
:100DF0002807390708F076CF809149030E94A9059A
:100E0000109275031092740310924E03DF91CF91EC
:100E10001F910F91FF90EF90DF90CF9008959D91DB
:100E200091938F5F75CF85EEB0CF80914A039091FB
:100E30004B03A0914C03B0914D03892B8A2B8B2B34
:100E400009F4A9CF0E94C70200914A0310914B03F5
:100E500020914C0330914D036C197D098E099F0937
:100E6000061717072807390708F095CFC5CF90E078
:100E700080E008950F931F93CF938C01C62F0E949B
:100E800050066C2F6460C8010E9450066C2F6B7F67
:100E9000C8010E94500683EC90E00197F1F7CF91D2
:100EA0001F910F9108950F931F93CF93DF938C01A0
:100EB000D62FC42F607F642B0E943A0780E1D89F11
:100EC000B00111246C2BC801DF91CF911F910F91BC
:100ED0000C943A07682F606840E08CE394E00C942F
:100EE000530740E061E08CE394E00E9453078BE3FA
:100EF0009FE10197F1F780914504882319F080E084
:100F00000C946A07089541E00E94530781E090E045
:100F10000895FB0101900020E9F73197AF01461BCE
:100F2000570BDC01ED91FC910280F381E02D1994C7
:100F30008F929F92AF92BF92EF92FF920F931F9367
:100F4000CF93DF93CDB7DEB7A1970FB6F894DEBF8E
:100F50000FBECDBF7C01FA01CB0119A2223008F4EB
:100F60002AE08E010F5D1F4F822E912CB12CA12CF7
:100F7000BF01A50194010E943A11F901CA016A302A
:100F80000CF5605DD8016E938D01232B242B252B4E
:100F900079F790E080E0109721F0BD01C7010E9431
:100FA0008907A1960FB6F894DEBF0FBECDBFDF91C3
:100FB000CF911F910F91FF90EF90BF90AF909F90B6
:100FC0008F900895695CDECFCF92DF92EF92FF920F
:100FD0000F931F93CF93DF936B01770FEE08FF08FA
:100FE000F7FE1FC0EC01E881F9810190F081E02D4E
:100FF0006DE219958C0144275527BA014C195D09FA
:101000006E097F092AE0CE010E949807800F911F88
:10101000DF91CF911F910F91FF90EF90DF90CF90D4
:1010200008952AE0B701A601DF91CF911F910F919A
:10103000FF90EF90DF90CF900C949807CF93DF93C1
:10104000BC0183E993E00E948907EC0160E372E050
:1010500083E993E00E9489078C0F9D1FDF91CF9158
:10106000089585ED8093BC0080914A0390914B03D5
:10107000A0914C03B0914D030796A11DB11D23E033
:10108000B695A795979587952A95D1F72091BC009D
:1010900024FD03C010924803089540914A035091E3
:1010A0004B0360914C0370914D03452B462B472B0E
:1010B00069F30097A105B10541F02AE22A95F1F7FD
:1010C00000C00197A109B109E1CF809149030C94B7
:1010D000A9051F920F920FB60F9211242F933F93E1
:1010E0008F939F93AF93BF9380918F0390919003C1
:1010F000A0919103B091920330918A0323E0230FD2
:101100002D3758F50196A11DB11D20938A038093B8
:101110008F0390939003A0939103B09392038091D7
:101120008B0390918C03A0918D03B0918E03019657
:10113000A11DB11D80938B0390938C03A0938D030D
:10114000B0938E03BF91AF919F918F913F912F915B
:101150000F900FBE0F901F90189526E8230F029650
:10116000A11DB11DD2CF1F920F920FB60F92112465
:101170000BB60F922F933F934F935F936F937F9391
:101180008F939F93AF93BF93EF93FF9383E993E084
:101190000E94A304FF91EF91BF91AF919F918F9116
:1011A0007F916F915F914F913F912F910F900BBE67
:1011B0000F900FBE0F901F9018951F920F920FB6B1
:1011C0000F9211240BB60F922F938F939F93EF934F
:1011D000FF93E091A303F091A4038081E091A90320
:1011E000F091AA0382FD1DC090818091AC038F5FB6
:1011F0008F732091AD03821741F0E091AC03F0E0D2
:10120000ED56FC4F958F8093AC03FF91EF919F912A
:101210008F912F910F900BBE0F900FBE0F901F90CC
:1012200018958081F2CF1F920F920FB60F92112462
:101230000BB60F922F933F934F935F936F937F93D0
:101240008F939F93AF93BF93EF93FF938091B900D8
:10125000887F803609F44DC008F040C0883209F418
:10126000A9C028F5803109F49DC0C8F4882309F489
:10127000FBC0883009F496C0FF91EF91BF91AF9108
:101280009F918F917F916F915F914F913F912F919E
:101290000F900BBE0F900FBE0F901F9018958831C6
:1012A00009F488C0803241F78093460314C080342B
:1012B00009F49DC040F48033B9F38833E9F6809394
:1012C000460385ECB0C0803509F485C0883509F443
:1012D00096C0883489F60E943108CECF883909F447
:1012E0008CC038F5883729F050F4883611F08037F3
:1012F00019F683E0809348031092210357C0883881
:1013000009F47BC0803919F0803809F0B5CF80919D
:101310002103803208F071C0E091210381E08E0F3B
:10132000809321038091BB00F0E0EF5FFC4F80834E
:101330003DC0803B39F0E0F4803A09F479C0883A46
:1013400009F09ACF84E08093480310920003109232
:10135000FF02E0917203F091730319958091FF02EF
:1013600081110FC081E08093FF021092DF0209C05B
:10137000803C09F4A6CF883C09F4A3CF883B09F050
:101380007BCFE091000381E08E0F80930003F0E0BB
:10139000E152FD4F80818093BB00909100038091CA
:1013A000FF0229C0809123038093BB0085EC8093CA
:1013B000BC0062CF9091450380914403981758F583
:1013C000E091450381E08E0F80934503F0E0EC5DF2
:1013D000FC4F8081E9CFE091450381E08E0F80933F
:1013E00045038091BB00F0E0EC5DFC4F8083909161
:1013F0004503809144039817C8F285E8D8CFE0915F
:10140000450381E08E0F809345038091BB00F0E09F
:10141000EC5DFC4F80838091470381115CCF81E0BC
:101420008093220384EA8093BC001092480324CF67
:1014300085EC8093BC001092480380912103803298
:1014400030F4E0912103F0E0EF5FFC4F10826091F7
:10145000210370E0E0917003F091710381E093E06B
:1014600019951092210308CF1092460334CFCF92E2
:10147000DF92EF92FF920F931F93E82FF92F05C091
:10148000015011092109310961F1908196239417C6
:10149000B9F305C0015011092109310911F19081F9
:1014A00096239413F7CFC12CD12CE12CF12C0AC038
:1014B0008FEFC81AD80AE80AF80A0C151D052E0580
:1014C0003F0579F080818623841791F36C2D7D2D63
:1014D0008E2D9F2D1F910F91FF90EF90DF90CF9059
:1014E000089560E070E080E090E01F910F91FF9020
:1014F000EF90DF90CF900895E3E9F3E0138212823A
:1015000088EE93E0A0E0B0E084839583A683B78360
:1015100024E032E03183208325EC30E035872487D6
:1015200024EC30E03787268720EC30E0318B208BAD
:1015300021EC30E0338B228B22EC30E0358B248B96
:1015400026EC30E0378B268B118E128E138E148E84
:10155000E0E3F4E01382128284839583A683B78349
:1015600086E192E091838083A9E4B4E08DE0159652
:101570008C9315978BE016968C931697EBE5F2E01B
:10158000E4911796EC931797E5E1F2E0E491189651
:10159000EC93189740E85EE360E070E01D964D9391
:1015A0005D936D937C935097ECE3F4E01382128289
:1015B00088E292E091838083118687E2848380E1D0
:1015C000828782E0838714860895789484B5826048
:1015D00084BD84B5816084BD85B5826085BD85B5D7
:1015E000816085BD80916E00816080936E00109255
:1015F00081008091810082608093810080918100D0
:101600008160809381008091800081608093800060
:101610008091B10084608093B1008091B0008160BE
:101620008093B000809191008260809391008091BE
:1016300091008160809391008091900081608093FF
:1016400090008091A10082608093A1008091A10010
:1016500081608093A1008091A00081608093A000B0
:10166000809121018260809321018091210181601C
:1016700080932101809120018160809320018091DD
:101680007A00846080937A0080917A0082608093EF
:101690007A0080917A00816080937A0080917A004C
:1016A000806880937A001092C100E091A303F091CA
:1016B000A40382E08083E0919F03F091A003108255
:1016C000E091A103F091A2038FEC80831092AB0311
:1016D000E091A703F091A80386E08083E091A50341
:1016E000F091A603808180618083E091A503F09151
:1016F000A603808188608083E091A503F091A60312
:10170000808180688083E091A503F091A6038081A9
:101710008F7D808362E080914E040E9474022FB717
:10172000F89480918F0390919003A0919103B091D0
:1017300092032FBF805D9740A109B10980935204A5
:1017400090935304A0935404B093550487E380937B
:101750005B0461E08CE00E94740260E08BE00E9418
:10176000740260E08AE00E94740260E089E00E94F6
:10177000740260E088E00E94740260E087E00E94EA
:10178000740260E086E00E94740210927703109267
:10179000760310927503109274030E948B058DE2FC
:1017A00094E090937303809372038EE294E090939D
:1017B000710380937003109241048091470482303A
:1017C00018F098E0909341048093440462E370E041
:1017D00080E090E00E94EC02609148048CE394E089
:1017E0000E94500668EE73E080E090E00E94EC02F8
:1017F00060E38CE394E00E943A07CBE4D6E4CE01A8
:101800000197F1F760E38CE394E00E943A07219797
:10181000F1F760E38CE394E00E943A0783E592E0FD
:101820000197F1F760E28CE394E00E943A0760913F
:101830004104606240E08CE394E00E94530784E03E
:101840008093420440E06CE08CE394E00E945307F4
:101850000E94710782E08093430440E066E08CE3DD
:1018600094E00E94530740E062E08CE394E00E9421
:1018700053078BE39FE10197F1F788E080934804D9
:1018800060E08CE394E00E94500663E372E08CE336
:1018900094E00E94890760ED77E080E090E00E948C
:1018A000EC0223E2E22EF12C39E5C32E32E0D32EF6
:1018B00043E1242E42E0342E0E94710760E08CE068
:1018C0000E94460268EC70E080E090E00E94EC022A
:1018D0000E941E03882349F080914F048B3028F02A
:1018E0008D3040F085518230C0F160E070E080ECD6
:1018F0009FE71CC060914A0470E090E080E00E9485
:1019000013102DEC3CEC4CEC5DE30E94C8102B0155
:101910003C016091490470E090E080E00E94131067
:101920009B01AC01C301B2010E94F80E0E94DB0FC3
:1019300070938903609388030E941E03882341F0FB
:1019400080914F048C3009F4EBC0C8F48B3081F1E6
:1019500060E070E080EC9FE753C0609149047091B3
:101960004A0476276727762790E080E00E941110CE
:101970002DEC3CEC4CEC5DE30E94C810D7CF8551B8
:10198000823030F7C0914B046C2F70E0762F6627C1
:1019900066277F7780914C04682B90E080E00E945E
:1019A00011102DEC3CEC4CEC5DE30E94C810D4C04F
:1019B00060914B0470E090E080E00E9411102B01D8
:1019C0003C01C0914C04C7FF0AC0AC019B0160E020
:1019D00070E080E89FEB0E94F70E2B013C01CF7076
:1019E0006C2F70E090E080E00E9413102DEC3CEC36
:1019F0004CEC5DE30E94C810A30192010E94F80E16
:101A00000E94DB0F709387036093860386E30E9436
:101A1000B002EC0187E30E94B0024C018AE00E9410
:101A20001D02909385038093840389E00E941D0228
:101A3000909383038093820388E00E941D02909319
:101A400081038093800387E00E941D0290937F03AF
:101A500080937E0386E00E941D0290937D03809315
:101A60007C0361E08CE00E944602C7010197F1F718
:101A700060E08CE00E944602F6016491F1018491DD
:101A8000E82FF0E0EE0FFF1FE251FE4F8591949199
:101A900000E412E42FE030E0462F0E94370A61157F
:101AA00071058105910529F06F5F7F4F8F4F9F4F23
:101AB0009F700E9411102AE939E949E652E40E9418
:101AC000690F609378037093790380937A039093FE
:101AD0007B036091880370918903072E000C880BAB
:101AE000990B0E9413109B01AC010E9435118111CA
:101AF00010C06091860370918703072E000C880B3D
:101B0000990B0E9413109B01AC010E943511882390
:101B100039F18AE392E00E941E080E943205CCCE81
:101B2000C0914B046C2F70E090E080E00E94111097
:101B30002B013C0160914C046F7070E090E080E0FC
:101B40000E9413102DEC3CEC4CEC5DE30E94C8109D
:101B5000A30192010E94F80EC7FF52CF905850CFB8
:101B600080E00E946A076DE472E08CE394E00E94DA
:101B7000890785E00E946A07BE018CE394E00E9419
:101B8000E40782E592E00E941E0880918403909110
:101B90008503892B41F56AE572E083E993E00E94B1
:101BA0008907609188037091890383E993E00E941B
:101BB000E40765E672E083E993E00E94890760919B
:101BC00086037091870383E993E00E94E40765E749
:101BD00072E083E993E00E94890768EC70E080E09E
:101BE00090E00E94EC028091820390918303019720
:101BF00089F469E772E083E993E00E948907B40100
:101C000083E993E00E94E40768EC70E080E090E0F4
:101C10000E94EC028091800390918103019759F416
:101C200069E872E083E993E00E948907BE0183E9D5
:101C300093E00E94E40780917E0390917F030197D7
:101C400009F040C06AE972E083E993E00E948907E5
:101C5000409078035090790360907A0370907B03F2
:101C6000A3019201C301B2010E94351166EA72E03C
:101C700081111AC053014201E894B7F82FEF3FEFEA
:101C80004FE75FE7C501B4010E943511811131C0F2
:101C90002FEF3FEF4FE75FE7C501B4010E94640FEC
:101CA00018163CF56AEA72E083E993E00E9489071E
:101CB00082EB92E00E941E0868EC70E080E090E009
:101CC0000E94EC0280917C0390917D03019751F476
:101CD00086EB92E00E941E0868EC70E080E090E0E5
:101CE0000E94EC0264E670E080E090E00E94EC026A
:101CF00014CF2FEF3FEF4FE75FE4C301B2010E9423
:101D0000C31018161CF46EEA72E0CECF2FEF3FEF2F
:101D10004FE75FECC301B2010E94640F87FDF3CF70
:101D200020E030E0A901C301B2010E94640F87FFE7
:101D300009C06DE283E993E00E94C50477FA7094CC
:101D400077F870942AE037ED43EA5BE3C301B20110
:101D50000E94F80E4B015C010E94E20F2B013C0136
:101D60000E9411109B01AC01C501B4010E94F70E45
:101D70004B015C012AE0B301A20183E993E00E94D8
:101D800098076EE283E993E00E94C50420E030E00A
:101D900040E251E4C501B4010E94C8104B015C014E
:101DA0000E94E20F2B01712C612C2AE0B301A201E9
:101DB00083E993E00E949807C301B2010E941110C9
:101DC0009B01AC01C501B4010E94F70E20E030E098
:101DD00040E251E40E94C8100E94E20FAB0170E0A3
:101DE00060E02AE083E993E00E94980761CF5058B1
:101DF000BB27AA270E940F0F0C9489100E947B100A
:101E000038F00E94821020F039F49F3F19F426F434
:101E10000C9478100EF4E095E7FB0C947210E92F07
:101E20000E949A1058F3BA17620773078407950740
:101E300020F079F4A6F50C94BC100EF4E0950B2E6E
:101E4000BA2FA02D0B01B90190010C01CA01A0010C
:101E50001124FF27591B99F0593F50F4503E68F167
:101E60001A16F040A22F232F342F4427585FF3CFA8
:101E7000469537952795A795F0405395C9F77EF479
:101E80001F16BA0B620B730B840BBAF09150A1F0C2
:101E9000FF0FBB1F661F771F881FC2F70EC0BA0F48
:101EA000621F731F841F48F4879577956795B795D0
:101EB000F7959E3F08F0B0CF9395880F08F09927CB
:101EC000EE0F9795879508950E944E1008F481E0D3
:101ED00008950E947D0F0C9489100E94821058F082
:101EE0000E947B1040F029F45F3F29F00C9472109F
:101EF00051110C94BD100C9478100E949A1068F344
:101F00009923B1F3552391F3951B550BBB27AA27B2
:101F100062177307840738F09F5F5F4F220F331FEC
:101F2000441FAA1FA9F335D00E2E3AF0E0E832D0B4
:101F300091505040E695001CCAF72BD0FE2F29D0B7
:101F4000660F771F881FBB1F261737074807AB0789
:101F5000B0E809F0BB0B802DBF01FF2793585F4FFE
:101F60003AF09E3F510578F00C9472100C94BD101D
:101F70005F3FE4F3983ED4F3869577956795B795E0
:101F8000F7959F5FC9F7880F911D9695879597F9EB
:101F90000895E1E0660F771F881FBB1F6217730764
:101FA0008407BA0720F0621B730B840BBA0BEE1F79
:101FB00088F7E09508950E94E20F6894B1110C949F
:101FC000BD1008950E94A21088F09F5798F0B92F75
:101FD0009927B751B0F0E1F0660F771F881F991F5E
:101FE0001AF0BA95C9F714C0B13091F00E94BC1034
:101FF000B1E008950C94BC10672F782F8827B85F44
:1020000039F0B93FCCF3869577956795B395D9F7B5
:102010003EF490958095709561957F4F8F4F9F4FBF
:102020000895E89409C097FB3EF4909580957095CB
:1020300061957F4F8F4F9F4F9923A9F0F92F96E914
:10204000BB279395F695879577956795B795F11189
:10205000F8CFFAF4BB0F11F460FF1BC06F5F7F4F26
:102060008F4F9F4F16C0882311F096E911C0772338
:1020700021F09EE8872F762F05C0662371F096E841
:10208000862F70E060E02AF09A95660F771F881F10
:10209000DAF7880F9695879597F90895990F0008B4
:1020A000550FAA0BE0E8FEEF16161706E807F9072A
:1020B000C0F012161306E407F50798F0621B730BC5
:1020C000840B950B39F40A2661F0232B242B252B46
:1020D00021F408950A2609F4A140A6958FEF811DE9
:1020E000811D089597F99F6780E870E060E008958A
:1020F0009FEF80EC089500240A9416161706180620
:102100000906089500240A941216130614060506FB
:102110000895092E0394000C11F4882352F0BB0F8C
:1021200040F4BF2B11F460FF04C06F5F7F4F8F4FEF
:102130009F4F089557FD9058440F551F59F05F3F2A
:1021400071F04795880F97FB991F61F09F3F79F0D9
:1021500087950895121613061406551FF2CF46955B
:10216000F1DF08C0161617061806991FF1CF8695DD
:102170007105610508940895E894BB2766277727C1
:10218000CB0197F908950E944E1008F48FEF08953F
:102190000E94DB100C9489100E947B1038F00E9482
:1021A000821020F0952311F00C9472100C9478108A
:1021B00011240C94BD100E949A1070F3959FC1F3E6
:1021C000950F50E0551F629FF001729FBB27F00DE5
:1021D000B11D639FAA27F00DB11DAA1F649F66273A
:1021E000B00DA11D661F829F2227B00DA11D621F89
:1021F000739FB00DA11D621F839FA00D611D221F43
:10220000749F3327A00D611D231F849F600D211D26
:10221000822F762F6A2F11249F5750409AF0F1F0A9
:1022200088234AF0EE0FFF1FBB1F661F771F881F12
:1022300091505040A9F79E3F510580F00C947210C8
:102240000C94BD105F3FE4F3983ED4F386957795E8
:102250006795B795F795E7959F5FC1F7FE2B880FB8
:10226000911D9695879597F908950E944E10880BB9
:10227000990B0895A1E21A2EAA1BBB1BFD010DC0EC
:10228000AA1FBB1FEE1FFF1FA217B307E407F50726
:1022900020F0A21BB30BE40BF50B661F771F881F02
:1022A000991F1A9469F760957095809590959B0198
:1022B000AC01BD01CF010895EE0FFF1F881F8BBF3A
:1022C0000790F691E02D1994F894FFCF00000000DC
:1022D000C5042F045C0412058D046B047F04000008
:1022E00000002106F4053707CA05ED05DA05CB0520
:1022F0000000000083072F04370763050D0A00570D
:10230000656E61732E004572726F7220656E206576
:102310006C2073656E736F7200434F323A007175B3
:102320006520686179002048756D656461643A20B4
:1023300000252054656D70657261747572613A2074
:102340000020432000204C756D696E6F73696461D5
:1023500064203D2000476173207261772076616CB4
:102360007565203D200044697374616E6369613A4C
:1023700020006E616E00696E66006F7666002063F5
:0A2380006D004D616E636F73000085
:020000040003F7
:10E000000D9489F10D94B2F10D94B2F10D94B2F129
:10E010000D94B2F10D94B2F10D94B2F10D94B2F1F0
:10E020000D94B2F10D94B2F10D94B2F10D94B2F1E0
:10E030000D94B2F10D94B2F10D94B2F10D94B2F1D0
:10E040000D94B2F10D94B2F10D94B2F10D94B2F1C0
:10E050000D94B2F10D94B2F10D94B2F10D94B2F1B0
:10E060000D94B2F10D94B2F10D94B2F10D94B2F1A0
:10E070000D94B2F10D94B2F10D94B2F10D94B2F190
:10E080000D94B2F10D94B2F10D94B2F10D94B2F180
:10E090000D94B2F10D94B2F10D94B2F10D94B2F170
:10E0A0000D94B2F10D94B2F10D94B2F10D94B2F160
:10E0B0000D94B2F10D94B2F10D94B2F10D94B2F150
:10E0C0000D94B2F10D94B2F10D94B2F10D94B2F140
:10E0D0000D94B2F10D94B2F10D94B2F10D94B2F130
:10E0E0000D94B2F141546D656761323536300041AF
:10E0F000726475696E6F206578706C6F72657220DE
:10E1000073746B3530305632206279204D4C530099
:10E11000426F6F746C6F616465723E004875683F52
:10E1200000436F6D70696C6564206F6E203D200048
:10E130004350552054797065202020203D20005FF9
:10E140005F4156525F415243485F5F3D2000415658
:10E1500052204C696243205665723D20004743437C
:10E160002056657273696F6E203D20004350552024
:10E1700049442020202020203D20004C6F7720663D
:10E18000757365202020203D20004869676820665F
:10E190007573652020203D200045787420667573D6
:10E1A00065202020203D20004C6F636B2066757336
:10E1B000652020203D20004D617220203720323024
:10E1C000313300312E362E3800342E332E350056A2
:10E1D00023202020414444522020206F7020636F70
:10E1E00064652020202020696E73747275637469E1
:10E1F0006F6E2061646472202020496E74657272B3
:10E20000757074006E6F20766563746F7200726A49
:10E210006D702020006A6D70200057686174207056
:10E220006F72743A00506F7274206E6F7420737541
:10E2300070706F72746564004D7573742062652030
:10E2400061206C6574746572002000577269747483
:10E25000696E672045450052656164696E672045B7
:10E26000450045452065727220636E743D00504F35
:10E27000525400303D5A65726F2061646472003FF1
:10E280003D43505520737461747300403D454550C3
:10E29000524F4D207465737400423D426C696E6B41
:10E2A000204C454400453D44756D70204545505215
:10E2B0004F4D00463D44756D7020464C415348001B
:10E2C000483D48656C70004C3D4C69737420492F83
:10E2D0004F20506F72747300513D51756974005234
:10E2E0003D44756D702052414D00563D73686F7707
:10E2F00020696E7465727275707420566563746FF0
:10E30000727300593D506F727420626C696E6B00BD
:10E310002A0011241FBECFEFD1E2DEBFCDBF01E046
:10E320000CBF12E0A0E0B2E0EEE1FDEF03E00BBFB6
:10E3300002C007900D92A030B107D9F712E0A0E01B
:10E34000B2E001C01D92AE30B107E1F70F9460F367
:10E350000D948DFE01E20EBF0FEF0DBF11241FBE05
:10E360000D9460F30D9400F020E030E040ED57E0B4
:10E3700005C0FA013197F1F72F5F3F4F2817390792
:10E38000C0F308959C01260F311DC901A0E0B0E043
:10E390002F5F3F4FABBFFC018791882361F08093D3
:10E3A000C6008091C00086FFFCCF8091C0008064D1
:10E3B0008093C000EACF08958DE08093C6008091DD
:10E3C000C00086FFFCCF8091C00080648093C000B5
:10E3D0008AE08093C6008091C00086FFFCCF8091C8
:10E3E000C00080648093C00008950F94C2F10F9420
:10E3F000DCF10895FC019081992359F09093C600B7
:10E400008091C00086FFFCCF8091C0008064809323
:10E41000C0003196992379F70895282F982F929567
:10E420009F70892F805D8A3308F0895F8093C600D2
:10E430008091C00086FFFCCF8091C00080648093F3
:10E44000C000822F8F70982F905D9A3308F0995FEB
:10E450009093C6008091C00086FFFCCF8091C000E1
:10E4600080648093C00008959C01FB01853691056E
:10E470001CF46330710594F0C90164E670E00F94F8
:10E480002EFE605D7F4F6093C6008091C00086FFC6
:10E49000FCCF8091C00080648093C0002B30310598
:10E4A00014F43297B4F0C90164E670E00F942EFEC4
:10E4B0006AE070E00F942EFE605D7F4F6093C600AF
:10E4C0008091C00086FFFCCF8091C0008064809363
:10E4D000C000C9016AE070E00F942EFEC0968093E0
:10E4E000C6008091C00086FFFCCF8091C000806490
:10E4F0008093C00008951F93182F8EE692EE60E07F
:10E500000F94C2F11093C6008091C00086FFFCCF2B
:10E510008091C00080648093C0000F94DCF11F9153
:10E5200008952F923F924F925F926F927F928F92B7
:10E530009F92AF92BF92CF92DF92EF92FF920F9392
:10E540001F93DF93CF93CDB7DEB762970FB6F894E2
:10E55000DEBF0FBECDBF382E622ECA01DB015C01CB
:10E560006D01772420E2222E2E010894411C511CBB
:10E570008BC081E0A81680E0B80681E0C80680E084
:10E58000D80628F0C601AA27BB270F940DF2BB2797
:10E59000AD2D9C2D8B2D0F940DF28A2D0F940DF225
:10E5A0002092C6008091C00086FFFCCF8091C00001
:10E5B00080648093C0009DE29093C6008091C0006B
:10E5C00086FFFCCF8091C00080648093C0002092C1
:10E5D000C6008091C00086FFFCCF8091C00080649F
:10E5E0008093C00019828601750188249924A1E0D6
:10E5F0003A1651F03A1620F0B2E03B1661F409C029
:10E600000BBFF701779007C0C7010F9477FE782EF4
:10E6100002C0F7017080872D0F940DF22092C60082
:10E620008091C00086FFFCCF8091C0008064809301
:10E63000C000872D8052F401EF70F0708F3520F408
:10E64000E40DF51D708204C0E40DF51D8EE280839B
:10E650000894E11CF11C011D111D0894811C911CE2
:10E6600090E18916910409F0C2CF80E190E0A0E02A
:10E67000B0E0A80EB91ECA1EDB1E198AC2010F9493
:10E68000FAF10F94DCF16A94662009F072CF629679
:10E690000FB6F894DEBF0FBECDBFCF91DF911F91B3
:10E6A0000F91FF90EF90DF90CF90BF90AF909F9031
:10E6B0008F907F906F905F904F903F902F90089534
:10E6C0002F923F924F925F926F927F928F929F9282
:10E6D000AF92BF92CF92DF92EF92FF920F931F9370
:10E6E000DF93CF93CDB7DEB7CD53D1400FB6F894BB
:10E6F000DEBF0FBECDBF01E20EBF0FEF0DBF94B75F
:10E70000F894A89514BE80916000886180936000A1
:10E7100010926000789493FF05C0E0910002F091A0
:10E7200001021995279A2F9A8091C00082608093E8
:10E73000C00080E18093C40088E18093C1000000A4
:10E74000EE24FF24870144E0A42EB12CCC24DD2448
:10E7500024C0C5010197F1F70894E11CF11C011DCB
:10E76000111D21E2E2162EE4F20620E0020720E06D
:10E77000120718F031E0C32ED12CC801B70127ECE5
:10E780003BE140E050E00F9441FE611571058105C9
:10E79000910519F485B1805885B98091C00087FD35
:10E7A00003C0C114D104A9F2A6014F5F5F4FC25E3E
:10E7B000DE4F59834883CE51D140C25EDE4F8881FF
:10E7C0009981CE51D140019711F00D9410FEC05D9A
:10E7D000DE4F19821882C053D14060E0C15DDE4F28
:10E7E0001882CF52D14088249924C35DDE4F19820C
:10E7F0001882CD52D140C05EDE4F188219821A8233
:10E800001B82C052D140CE5CDE4F188219821A8220
:10E810001B82C253D140EE24FF2487010BBFF701B6
:10E8200007911691C45CDE4F19830883CC53D14005
:10E830000D940BFEC25EDE4F28813981CE51D1404E
:10E840002130310509F52091C600C25EDE4F1982E4
:10E850001882CE51D14022C02F5F3F4F4F4F5F4FA4
:10E86000213082E138078AE7480780E0580780F0C6
:10E87000C45CDE4FE881F981CC53D140EF5FFF4F9C
:10E8800019F0EE27FF27099420E030E040E050E047
:10E890008091C00087FFE0CF2091C600C35DDE4FAE
:10E8A00048815981CD52D1404F5F5F4FC35DDE4FEC
:10E8B00059834883CD52D140213209F063C64A3092
:10E8C000510508F05FC60894811C911C53E0851621
:10E8D000910409F059C600E010E018C081E280936D
:10E8E000C6008091C00086FFFCCF8091C00080648C
:10E8F0008093C0002F5F3F4F2931310579F70F9486
:10E90000DCF10F5F1F4F0530110519F020E030E0FA
:10E91000E5CF10920A0210920B0210920C02109294
:10E920000D02109206021092070210920802109235
:10E930000902109202021092030210920402109235
:10E9400005028FEE90EE60E00F94F5F180E191EE1C
:10E9500060E00F94C2F18091C00087FFFCCF9091DE
:10E96000C600903608F09F759032B8F09093C600BC
:10E970008091C00086FFFCCF8091C00080648093AE
:10E98000C000A0E2A093C6008091C00086FFFCCF2B
:10E990008091C00080648093C000983409F4D7C18E
:10E9A0009934B8F4923409F459C1933458F490333B
:10E9B00019F1903308F4E3C59F33A1F1903409F0C5
:10E9C000DEC5BDC0953409F470C1963409F0D7C5D1
:10E9D00098C1923509F42BC2933538F49C3409F46C
:10E9E000F5C1913509F0CBC518C2963509F445C279
:10E9F000993509F0C4C567C483E792EE62E00F94CD
:10EA0000F5F110920602109207021092080210927D
:10EA1000090210920A0210920B0210920C0210923C
:10EA20000D0213C18FE792EE62E00F94F5F18FEEC5
:10EA300090EE60E00F94F5F181E291EE60E00F94CA
:10EA4000C2F187EB91EE60E00F94F5F180E391EE77
:10EA500060E00F94C2F184EE90EE60E00F94F5F167
:10EA60008FE391EE60E00F94C2F186E090E061E008
:10EA700070E00F9434F20F94DCF18DE591EE60E0DC
:10EA80000F94C2F189EC91EE60E00F94F5F18EE401
:10EA900091EE60E00F94C2F183EC91EE60E00F9490
:10EAA000F5F18CE691EE60E00F94C2F18EE10F94E7
:10EAB0000DF288E90F940DF281E00F940DF20F949E
:10EAC000DCF18BE791EE60E00F94C2F119E0E0E039
:10EAD000F0E010935700E4918E2F0F940DF20F94F5
:10EAE000DCF18AE891EE60E00F94C2F1E3E0F0E03F
:10EAF00010935700E4918E2F0F940DF20F94DCF1D8
:10EB000089E991EE60E00F94C2F1E2E0F0E0109349
:10EB10005700E4918E2F0F940DF20F94DCF188EAE8
:10EB200091EE60E00F94C2F1E1E0F0E01093570045
:10EB30001491812F0F940DF20F94DCF107CF8BE825
:10EB400092EE62E00F94F5F18BE492EE60E00F94A8
:10EB5000F5F10F94DCF100E010E019C0C8016F2D51
:10EB60000F947FFEFF2031F489E492EE60E00F9471
:10EB7000C2F10BC0F092C6008091C00086FFFCCFAE
:10EB80008091C00080648093C0000F5F1F4FC80158
:10EB900081519F41A0E0B0E0ABBFFC01F790BAE229
:10EBA000FB1621F0E2E000301E07C1F60F94DCF105
:10EBB0000F94DCF187E592EE60E00F94F5F10F948D
:10EBC000DCF1CC24DD2400E010E01EC0C8010F946D
:10EBD00077FEF82E882331F489E492EE60E00F94FA
:10EBE000C2F10BC08093C6008091C00086FFFCCFAD
:10EBF0008091C00080648093C000FE1419F00894D6
:10EC0000C11CD11C0F5F1F4FC80181519F41A0E063
:10EC1000B0E0ABBFFC01E790FAE2EF1621F022E092
:10EC20000030120799F60F94DCF10F94DCF182E6C4
:10EC300092EE60E00F94C2F1C60161E070E00F94C3
:10EC400034F20F94DCF10F94DCF110920202109276
:10EC50000302109204021092050278CE89E992EE26
:10EC600062E00F94F5F1279A2F9A16C02F9880E052
:10EC700090E0E0EDF7E03197F1F7019684369105E9
:10EC8000C1F72F9A80E090E0E0EDF7E03197F1F7DF
:10EC9000019684369105C1F78091C00087FFE6CFC9
:10ECA0008091C00087FFFCCF64C485EA92EE62E0E9
:10ECB0000F94F5F140910202509103026091040219
:10ECC0007091050281E020E10F9491F2809102029F
:10ECD00090910302A0910402B091050280509F4FD1
:10ECE000AF4FBF4F8093020290930302A0930402A0
:10ECF000B093050280509041A040B04008F426CE69
:10ED0000A4CF83EB92EE62E00F94F5F140910602FE
:10ED100050910702609108027091090280E020E1A1
:10ED20000F9491F28091060290910702A09108023F
:10ED3000B091090280509F4FAF4FBF4F80930602A2
:10ED400090930702A0930802B0930902FFCD80ECD4
:10ED500092EE62E00F94F5F183E792EE60E00F949B
:10ED6000F5F18FE792EE60E00F94F5F18BE892EE0B
:10ED700060E00F94F5F189E992EE60E00F94F5F10F
:10ED800085EA92EE60E00F94F5F183EB92EE60E09D
:10ED90000F94F5F180EC92EE60E00F94F5F187ECC2
:10EDA00092EE60E00F94F5F188ED92EE60E00F9442
:10EDB000F5F18FED92EE60E00F94F5F18AEE92EEB0
:10EDC00060E00F94F5F183E093EEBDCD87EC92EE19
:10EDD00062E00F94F5F181E40F947BF282E40F94EA
:10EDE0007BF283E40F947BF284E40F947BF285E45E
:10EDF0000F947BF286E40F947BF287E40F947BF20E
:10EE000088E40F947BF28AE40F947BF28BE40F94F6
:10EE10007BF28CE40F947BF299CD88ED92EE62E068
:10EE20000F94F5F1772473948824992409C48FED05
:10EE300092EE62E00F94F5F140910A0250910B02BC
:10EE400060910C0270910D0282E020E10F9491F22A
:10EE500080910A0290910B02A0910C02B0910D02D8
:10EE600080509F4FAF4FBF4F80930A0290930B0289
:10EE7000A0930C02B0930D0269CD8AEE92EE62E08F
:10EE80000F94F5F184EE90EE60E00F94F5F18FECC5
:10EE900091EE60E00F94F5F1662477244301CC5D98
:10EEA000DE4F19821882C452D140D401C301B695F5
:10EEB000A79597958795CA5DDE4F88839983AA8326
:10EEC000BB83C652D140CC5DDE4FA881B981C4520C
:10EED000D1401196CC5DDE4FB983A883C452D14096
:10EEE000CD0162E070E00F9434F2B0E2B093C6005E
:10EEF0008091C00086FFFCCF8091C0008064809329
:10EF0000C000EDE2E093C6008091C00086FFFCCF18
:10EF10008091C00080648093C000F0E2F093C6004E
:10EF20008091C00086FFFCCF8091C00080648093F8
:10EF3000C000CA5DDE4FE880F9800A811B81C6529D
:10EF4000D140BB27A12F902F8F2D0F940DF2CA5DBA
:10EF5000DE4F8881C652D1400F940DF2B0E2FB2EF5
:10EF6000F092C6008091C00086FFFCCF8091C00067
:10EF700080648093C0000DE30093C6008091C000C0
:10EF800086FFFCCF8091C00080648093C00010E2B7
:10EF90001093C6008091C00086FFFCCF8091C00016
:10EFA00080648093C0008BBEF3012791C65DDE4F65
:10EFB0002883CA52D140A22EBB24CC24DD2408943D
:10EFC000611C711C811C911C8BBEF3018791282E42
:10EFD0003324442455240894611C711C811C911C09
:10EFE0008BBEF3013791C55DDE4F3883CB52D140E4
:10EFF0000894611C711C811C911C8BBEF30147910C
:10F00000C45DDE4F4883CC52D140ADEFEA2EAFEF66
:10F01000FA2EAFEF0A2FAFEF1A2F6E0C7F1C801E57
:10F02000911E142D032DF22CEE24EA0CFB1C0C1D5A
:10F030001D1D0F940DF220E22093C6008091C000A8
:10F0400086FFFCCF8091C00080648093C000C65DC5
:10F05000DE4F8881CA52D1400F940DF230E23093D6
:10F06000C6008091C00086FFFCCF8091C000806404
:10F070008093C000C45DDE4F8881CC52D1400F9494
:10F080000DF240E24093C6008091C00086FFFCCFA5
:10F090008091C00080648093C000C55DDE4F888190
:10F0A000CB52D1400F940DF250E25093C6008091A4
:10F0B000C00086FFFCCF8091C00080648093C000B8
:10F0C0008FEFE8168FEFF80680E0080780E018075A
:10F0D00031F484E092EE60E00F94C2F1DFC0D80119
:10F0E000C7018070907CA070B0708050904CA040A0
:10F0F000B040D1F52FEF3FE340E050E0E222F322B1
:10F1000004231523CA5DDE4FA880B980CA80DB8046
:10F11000C652D140AE0CBF1CC01ED11EAA0CBB1CD7
:10F12000CC1CDD1C8EE092EE60E00F94C2F1BB2798
:10F13000A12F902F8F2D0F940DF28E2D0F940DF285
:10F1400030E23093C6008091C00086FFFCCF8091F2
:10F15000C00080648093C0004EE34093C60080915D
:10F16000C00086FFFCCF87C08EE09EEFA0E0B0E03D
:10F17000E822F9220A231B239CE0E91694E9F90608
:10F1800090E0090790E0190709F088C0C45DDE4FE0
:10F19000A881CC52D140EA2EFF2400E010E0102FCD
:10F1A0000F2DFE2CEE24C55DDE4FB881CB52D14031
:10F1B000EB0EF11C011D111DD601C501817090706F
:10F1C000A070B070DC0199278827E80EF91E0A1F8D
:10F1D0001B1F20EF30E040E050E0A222B322C42207
:10F1E000D52241E1AA0CBB1CCC1CDD1C4A95D1F7F1
:10F1F000EA0CFB1C0C1D1D1D81E090E0A0E0B0E0BE
:10F20000282239224A225B2235E1220C331C441C7D
:10F21000551C3A95D1F7E20CF31C041D151D57013E
:10F220006801AA0CBB1CCC1CDD1C85E192EE60E0E1
:10F230000F94C2F1C801AA27BB270F940DF2BB2778
:10F24000A12F902F8F2D0F940DF28E2D0F940DF274
:10F2500090E29093C6008091C00086FFFCCF809121
:10F26000C00080648093C000AEE3A093C60080918C
:10F27000C00086FFFCCF8091C00080648093C000F6
:10F28000C601AA27BB270F940DF2BB27AD2D9C2DDD
:10F290008B2D0F940DF28A2D0F940DF20F94DCF14B
:10F2A000CC5DDE4FE881F981C452D140F99709F471
:10F2B0004DCBF4E0EF2EF12C012D112D6E0C7F1CA7
:10F2C000801E911EF2CD83E093EE62E00F94F5F183
:10F2D0008AE192EE60E00F94C2F18091C00087FF56
:10F2E000FCCF1091C6001F751093C6008091C0001E
:10F2F00086FFFCCF8091C00080648093C0000F9493
:10F30000DCF1812F81548A3108F036C1163409F4BA
:10F3100095C0173490F4133409F44EC0143430F40B
:10F320001134F1F0123409F01DC130C0143409F465
:10F3300059C0153409F016C16BC01A3409F4C4C0A1
:10F340001B3438F4173409F48FC0183409F00AC19B
:10F35000A1C01B3409F4D2C01C3409F003C1E8C0B9
:10F360008FEF81B90DC082B1809582B980E090E0C5
:10F37000E0EDF7E03197F1F70196883C9105C1F790
:10F380008091C00087FFEFCF12B8EFC08FEF84B934
:10F390000DC085B1809585B980E090E0E0EDF7E0A3
:10F3A0003197F1F70196883C9105C1F78091C00033
:10F3B00087FFEFCF15B8D9C08FEF87B90DC088B1DF
:10F3C000809588B980E090E0E0EDF7E03197F1F7C3
:10F3D0000196883C9105C1F78091C00087FFEFCF6F
:10F3E00018B8C3C08FEF8AB90DC08BB180958BB9A7
:10F3F00080E090E0E0EDF7E03197F1F70196883C8E
:10F400009105C1F78091C00087FFEFCF1BB8ADC059
:10F410008FEF8DB90DC08EB180958EB980E090E0F0
:10F42000E0EDF7E03197F1F70196883C9105C1F7DF
:10F430008091C00087FFEFCF1EB897C08FEF80BBD1
:10F440000DC081B3809581BB80E090E0E0EDF7E0F6
:10F450003197F1F70196883C9105C1F78091C00082
:10F4600087FFEFCF11BA81C08FEF83BB0DC084B38C
:10F47000809584BB80E090E0E0EDF7E03197F1F714
:10F480000196883C9105C1F78091C00087FFEFCFBE
:10F4900014BA6BC08FEF809301010FC080910201FD
:10F4A00080958093020180E090E0E0EDF7E03197F5
:10F4B000F1F70196883C9105C1F78091C00087FF64
:10F4C000EDCF1092020151C08FEF809304010FC065
:10F4D0008091050180958093050180E090E0E0ED4A
:10F4E000F7E03197F1F70196883C9105C1F78091DB
:10F4F000C00087FFEDCF1092050137C08FEF8093DA
:10F5000007010FC08091080180958093080180E079
:10F5100090E0E0EDF7E03197F1F70196883C910536
:10F52000C1F78091C00087FFEDCF109208011DC088
:10F530008FEF80930A010FC080910B01809580931B
:10F540000B0180E090E0E0EDF7E03197F1F70196F4
:10F55000883C9105C1F78091C00087FFEDCF1092E4
:10F560000B0103C085E292EEEEC98091C00087FFD7
:10F57000FCCF8091C600EAC988E392EEE4C98CE131
:10F5800091EEE1C988249924933011F1943028F444
:10F59000913089F09230B8F408C0953061F195301F
:10F5A000F0F0963009F048C043C02B3109F042C951
:10F5B00091E06BE13FC96227C15DDE4F2883CF52E6
:10F5C000D14092E037C9B22FA0E0622793E032C960
:10F5D000822F90E0A82BB92B622794E02BC92E3004
:10F5E00009F039C3622795E0C05DDE4F19821882A9
:10F5F000C053D1401FC9E1E0F0E0EC0FFD1FC05D3A
:10F60000DE4F08811981C053D140E00FF11F2083E4
:10F610000F5F1F4FC05DDE4F19830883C053D14079
:10F6200062270A171B0709F005C9D80196E002C92D
:10F63000261709F010C303C0973009F0FBC87724E0
:10F640009981933109F412C19431C8F4963009F4C8
:10F65000D8C0973050F4923009F406C1933009F4C1
:10F660006DC0913009F059C253C0913109F477C08F
:10F67000923108F0BBC0903109F04FC2F5C098310B
:10F6800009F487C0993150F4953109F4EFC09531F0
:10F6900008F4C6C1963109F040C2C2C19A3109F4DA
:10F6A0006CC09A3108F491C09B3109F45BC09D3164
:10F6B00009F033C29D81903359F48F81882311F46E
:10F6C0009EE11CC0813011F091E018C098E916C08D
:10F6D000892F807591F0903539F4E0E0F0E089E011
:10F6E0008093570094910AC0983539F4E3E0F0E034
:10F6F00089E080935700949101C090E01A821B82A8
:10F700008D818C831D829E831F8227E030E009C299
:10F710001A8288E08B8381E48C8386E58D8382E581
:10F720008E8389E48F8383E5888780E589878FE5E9
:10F730008A8782E38B872BE030E0F3C18A818139AD
:10F7400041F0823941F0803911F48FE005C080E04A
:10F7500003C082E001C08AE01A828B8344C0772410
:10F76000739482C08D81882311F48EE12CC0813086
:10F7700011F081E028C088E926C01A82E1E0F0E0BB
:10F7800089E08093570084918B831C8224E030E0D1
:10F79000C8C18B81803589F48C81883039F4E2E0EE
:10F7A000F0E089E08093570084910DC0E0E0F0E044
:10F7B00089E080935700849106C0E3E0F0E089E09F
:10F7C0008093570084911A82DFCF8D81836C99E0FA
:10F7D000E1E0F0E0082E90935700E89507B600FCB2
:10F7E000FDCF1A821B8223E030E09BC180EC8A832C
:10F7F000CE5CDE4F188219821A821B82C253D1401E
:10F800008EC18A8190E0A0E0B0E0582F44273327D2
:10F8100022278B8190E0A0E0B0E0DC0199278827C7
:10F82000282B392B4A2B5B2B8D8190E0A0E0B0E098
:10F83000282B392B4A2B5B2B8C8190E0A0E0B0E089
:10F84000BA2FA92F982F8827282B392B4A2B5B2BCF
:10F85000220F331F441F551FC05EDE4F288339839C
:10F860004A835B83C052D1401A8259C13A81C95C34
:10F87000DE4F3883C753D140CA5CDE4F1882C6536F
:10F88000D1408B81C82EDD24CA5CDE4F488159816E
:10F89000C653D140C42AD52A933109F082C0CE5C28
:10F8A000DE4F88819981AA81BB81C253D1408050AB
:10F8B000904CA340B04030F583E0CE5CDE4FE88052
:10F8C000F9800A811B81C253D140F70100935B008C
:10F8D00080935700E89507B600FCFDCFCE5CDE4F65
:10F8E000088119812A813B81C253D14000501F4FAA
:10F8F0002F4F3F4FCE5CDE4F088319832A833B8313
:10F90000C253D140C05EDE4F488159816A817B81FC
:10F91000C052D140DE011B9631E08C9111962C91A2
:10F9200011971296C75CDE4F2883C953D140C85C3B
:10F93000DE4F1882C853D14090E0C85CDE4FE881AA
:10F94000F981C853D1408E2B9F2B0C01FA01609393
:10F950005B0030935700E89511244E5F5F4F6F4F67
:10F960007F4F0EEFE02E0FEFF02ECE0CDF1CC114F8
:10F97000D10499F685E0C05EDE4F088119812A81A5
:10F980003B81C052D140F80120935B008093570027
:10F99000E89507B600FCFDCF81E180935700E8951C
:10F9A00035C0C05EDE4F88819981AA81BB81C0527B
:10F9B000D140B695A795979587957C018601ABE0D8
:10F9C000AA2EB12CAC0EBD1E0BC0D5016D915D01F0
:10F9D000C7010F947FFE0894E11CF11C01501040F8
:10F9E0000115110591F7A60160E070E0440F551F65
:10F9F000661F771FC05EDE4FE880F9800A811B8199
:10FA0000C052D1404E0D5F1D601F711F1A82C05E33
:10FA1000DE4F488359836A837B83C052D1407FC0C5
:10FA2000FA80C55CDE4FF882CB53D140C65CDE4F16
:10FA30001882CA53D1408B81C82EDD24C65CDE4FAC
:10FA400008811981CA53D140C02AD12A1A828981DA
:10FA5000BE016D5F7F4F843121F59601C05EDE4FA0
:10FA6000E880F9800A811B81C052D1400BBFF701A9
:10FA700087919691DB018C9311969C936E5F7F4FDB
:10FA8000D801C7010296A11DB11DC05EDE4F88835B
:10FA90009983AA83BB83C052D14022503040F1F6F3
:10FAA00036C0C05EDE4F288139814A815B81C052F9
:10FAB000D1400894C108D108760100E010E0089414
:10FAC000C11CD11C0894E11CF11C011D111DE20E8A
:10FAD000F31E041F151F21BDBB27A52F942F832FB5
:10FAE00082BD2F5F3F4F4F4F5F4FF89A80B5DB01CC
:10FAF0008D93BD012E153F054007510761F7C05E8C
:10FB0000DE4F288339834A835B83C052D1409601FC
:10FB10002D5F3F4FFB01108204C080EC8A8322E0FE
:10FB200030E08BE18093C6008091C00086FFFCCF5F
:10FB30008091C00080648093C000C15DDE4FF88179
:10FB4000CF52D140F093C6008091C00086FFFCCF19
:10FB50008091C00080648093C000432F3093C60022
:10FB60008091C00086FFFCCF8091C00080648093AC
:10FB7000C000922F2093C6008091C00086FFFCCF6A
:10FB80008091C00080648093C0008EE08093C600A6
:10FB90008091C00086FFFCCF8091C000806480937C
:10FBA000C00065E1C15DDE4FE880CF52D1406E25D7
:10FBB00069276427FE01319610C090819093C6009A
:10FBC0008091C00086FFFCCF31968091C000806498
:10FBD0008093C0006927215030402115310569F715
:10FBE0006093C6008091C00086FFFCCF8091C0006A
:10FBF00080648093C00085B1805885B9772081F4F6
:10FC0000C15DDE4F0881CF52D1400F5FC15DDE4F35
:10FC10000883CF52D14090E0A0E0B0E00D941AF4F8
:10FC200027982F9880E090E020ED37E0F901319798
:10FC3000F1F7019684369105C9F700008091C00064
:10FC40008D7F8093C00081E180935700E895EE2777
:10FC5000FF270994FFCF90E00D941AF497FB092E2B
:10FC600007260AD077FD04D02ED006D000201AF443
:10FC7000709561957F4F0895F6F7909581959F4F08
:10FC80000895A1E21A2EAA1BBB1BFD010DC0AA1FDD
:10FC9000BB1FEE1FFF1FA217B307E407F50720F0F5
:10FCA000A21BB30BE40BF50B661F771F881F991F70
:10FCB0001A9469F760957095809590959B01AC01B9
:10FCC000BD01CF010895AA1BBB1B51E107C0AA1FAC
:10FCD000BB1FA617B70710F0A61BB70B881F991FED
:10FCE0005A95A9F780959095BC01CD010895F99991
:10FCF000FECF92BD81BDF89A992780B50895262F31
:10FD0000F999FECF1FBA92BD81BD20BD0FB6F89400
:0EFD1000FA9AF99A0FBE01960895F894FFCF63
:00000001FF
